:04000000C7EF00F056
:100008005E82F2A80AEF00F00CEF00F015EF00F0A6
:10001800F2A211EF00F013EF00F015EF00F095ECED
:1000280011F0F2A61AEF00F01CEF00F036EF00F026
:10003800F2A021EF00F023EF00F036EF00F07DA8EA
:1000480028EF00F02AEF00F036EF00F081A82FEF3C
:1000580000F031EF00F036EF00F0010E7DEC11F00A
:1000680055EF00F0F2A63BEF00F03DEF00F055EF42
:1000780000F0F2A042EF00F044EF00F055EF00F07E
:100088007DA849EF00F04BEF00F055EF00F081B884
:1000980050EF00F052EF00F055EF00F0000E7DEC4D
:1000A80011F09DAC5AEF00F05CEF00F065EF00F046
:1000B8009EAC61EF00F063EF00F065EF00F09BECA1
:1000C80011F0F2AA6AEF00F06CEF00F075EF00F0A3
:1000D800F2A471EF00F073EF00F075EF00F093EC0D
:1000E80011F09DA07AEF00F07CEF00F085EF00F0B2
:1000F8009EA081EF00F083EF00F085EF00F091EC17
:1001080011F09DA28AEF00F08CEF00F095EF00F05F
:100118009EA291EF00F093EF00F095EF00F08FECC6
:1001280011F0A0A29AEF00F09CEF00F0A5EF00F00C
:10013800A1A2A1EF00F0A3EF00F0A5EF00F08DEC75
:1001480011F09DA4AAEF00F0ACEF00F0B5EF00F0BD
:100158009EA4B1EF00F0B3EF00F0B5EF00F099EC1A
:1001680011F0A0A0BAEF00F0BCEF00F0C5EF00F06E
:10017800A1A0C1EF00F0C3EF00F0C5EF00F097ECCD
:0A01880011F05E92110000EF11F07B
:10100000003738392F3435362A3132332D23303DED
:091010002B256C7500257500000C
:10101A00000E3C6E000E3D6E000E3E6E000E3F6EE0
:10102A003950D8A41BEF08F01DEF08F035EF0AF08D
:10103A007EEF0AF0AC98AC94B8963950D96EDA6A59
:10104A00DECF02F0DECF03F0DECF04F0DECF05F014
:10105A00000EACEC0EF002C014F003C015F004C090
:10106A0016F005C017F0000E106E240E116EF40E65
:10107A00126E4A0E136EDFEC0CF010C040F011C075
:10108A0041F012C042F013C043F0000E146E000E7D
:10109A00156E800E166E420E176E40C010F041C0DB
:1010AA0011F042C012F043C013F0DFEC0CF010C094
:1010BA0029F011C02AF012C02BF013C02CF0000E38
:1010CA002D6E000E2E6E800E2F6EBF0E306E7FECD0
:1010DA000AF029C03CF02AC03DF02BC03EF02CC0DB
:1010EA003FF05FEF0AF0AC98AC84B8963950D96EED
:1010FA00DA6ADECF02F0DECF03F0DECF04F0DECF15
:10110A0005F0000EACEC0EF002C014F003C015F0AE
:10111A0004C016F005C017F0000E106E240E116EF2
:10112A00F40E126E4A0E136EDFEC0CF010C040F093
:10113A0011C041F012C042F013C043F0000E146E09
:10114A00000E156E800E166E410E176E40C010F01E
:10115A0041C011F042C012F043C013F0DFEC0CF0B2
:10116A0010C029F011C02AF012C02BF013C02CF0C5
:10117A00000E2D6E000E2E6E800E2F6EBF0E306E7C
:10118A007FEC0AF029C03CF02AC03DF02BC03EF0AB
:10119A002CC03FF076EF08F0AC98AC94B886395082
:1011AA00D96EDA6ADECF02F0DECF03F0DECF04F0CA
:1011BA00DECF05F0000EACEC0EF002C014F003C056
:1011CA0015F004C016F005C017F0000E106E240EBC
:1011DA00116EF40E126E4A0E136EDFEC0CF010C094
:1011EA0040F011C041F012C042F013C043F0000EAB
:1011FA00146E000E156E800E166E410E176E40C0EC
:10120A0010F041C011F042C012F043C013F0DFECFD
:10121A000CF010C029F011C02AF012C02BF013C034
:10122A002CF0000E2D6E000E2E6E800E2F6EBF0E4D
:10123A00306E7FEC0AF029C03CF02AC03DF02BC08A
:10124A003EF02CC03FF076EF08F0AC98AC84B8863C
:10125A003950D96EDA6ADECF02F0DECF03F0DECF84
:10126A0004F0DECF05F0000EACEC0EF002C014F074
:10127A0003C015F004C016F005C017F0000E106E7A
:10128A00240E116EF40E126E4A0E136EDFEC0CF081
:10129A0010C040F011C041F012C042F013C043F038
:1012AA00000E146E000E156E800E166E400E176E2E
:1012BA0040C010F041C011F042C012F043C013F018
:1012CA00DFEC0CF010C029F011C02AF012C02BF08C
:1012DA0013C02CF0000E2D6E000E2E6E800E2F6E97
:1012EA00BF0E306E7FEC0AF029C03CF02AC03DF0F8
:1012FA002BC03EF02CC03FF076EF08F0AC88B896D1
:10130A003950D96EDA6ADECF02F0DECF03F0DECFD3
:10131A0004F0DECF05F0000EACEC0EF002C014F0C3
:10132A0003C015F004C016F005C017F0000E106EC9
:10133A00240E116EF40E126E4A0E136EDFEC0CF0D0
:10134A0010C040F011C041F012C042F013C043F087
:10135A00000E146E000E156E800E166E400E176E7D
:10136A0040C010F041C011F042C012F043C013F067
:10137A00DFEC0CF010C029F011C02AF012C02BF0DB
:10138A0013C02CF0000E2D6E000E2E6E800E2F6EE6
:10139A00BF0E306E7FEC0AF029C03CF02AC03DF047
:1013AA002BC03EF02CC03FF076EF08F0AC88B88630
:1013BA003950D96EDA6ADECF02F0DECF03F0DECF23
:1013CA0004F0DECF05F0000EACEC0EF002C014F013
:1013DA0003C015F004C016F005C017F0000E106E19
:1013EA00240E116EF40E126E4A0E136EDFEC0CF020
:1013FA0010C040F011C041F012C042F013C043F0D7
:10140A00000E146E000E156E800E166E400E176ECC
:10141A0040C010F041C011F042C012F043C013F0B6
:10142A00DFEC0CF010C029F011C02AF012C02BF02A
:10143A0013C02CF0000E2D6E000E2E6E800E2F6E35
:10144A00BF0E306E7FEC0AF029C03CF02AC03DF096
:10145A002BC03EF02CC03FF076EF08F05FEF0AF0A9
:10146A003950D96EDA6A040ED926DF503A6E3B6AD1
:10147A003B50000AD8B444EF0AF033EF0AF03A506E
:10148A00000AD8B41FEF08F0010AD8B478EF08F0C0
:10149A00030AD8B4D1EF08F0010AD8B42AEF09F048
:1014AA00070AD8B483EF09F0010AD8B4DBEF09F0D0
:1014BA0033EF0AF03CC002F03DC003F03EC004F036
:1014CA003FC005F086EC0FF00250AF6E3CC002F050
:1014DA003DC003F03EC004F03FC005F086EC0FF0BB
:1014EA0003C002F004C003F005C004F0056A02500C
:1014FA00B06E12002C50800B356E2C502C24376E97
:10150A002BAE8AEF0AF08CEF0AF08DEF0AF03780E3
:10151A003750D8B493EF0AF095EF0AF0AAEF0AF021
:10152A003728D8A49BEF0AF09DEF0AF0A5EF0AF03E
:10153A00000E296E000E2A6E000E2B6E000E2C6E07
:10154A002B8E000E2C6EB2EF0AF0000E296E000EE2
:10155A002A6E000E2B6E000E2C6E3050800B366EEB
:10156A0035503618D8B4BCEF0AF0BEEF0AF0BFEF18
:10157A000AF0358C30503024366E2FAEC7EF0AF0A1
:10158A00C9EF0AF0CAEF0AF036803650D8B4D0EF65
:10159A000AF0D2EF0AF0E7EF0AF03628D8A4D8EF1B
:1015AA000AF0DAEF0AF0E2EF0AF0000E2D6E000EF2
:1015BA002E6E000E2F6E000E306E2F8E000E306EC5
:1015CA00EFEF0AF0000E2D6E000E2E6E000E2F6E3B
:1015DA00000E306E3750365CD8B0F6EF0AF0F8EFEE
:1015EA000AF01FEF0BF035ACFDEF0AF0FFEF0AF03F
:1015FA0001EF0BF0800E351A37C038F036C037F0DD
:10160A0038C036F029C038F02DC029F038C02DF086
:10161A002AC038F02EC02AF038C02EF02BC038F07D
:10162A002FC02BF038C02FF02CC038F030C02CF06F
:10163A0038C030F0000E386E375036C031F0326A9A
:10164A00315E000E325A32BE34EF0BF0325009E1ED
:10165A001A0E315CD8A034EF0BF036EF0BF06DEFB9
:10166A000BF029502A102B102C10D8A43FEF0BF0A6
:10167A0042EF0BF0010E43EF0BF0000E386E000E36
:10168A00296E000E2A6E000E2B6E000E2C6E36C0CE
:10169A0037F076EF0BF038A055EF0BF057EF0BF061
:1016AA005DEF0BF0D89038300109386E5FEF0BF020
:1016BA00D890383229A064EF0BF066EF0BF067EF91
:1016CA000BF0388E2C342C322B322A322932372A1C
:1016DA003650375CD8A074EF0BF076EF0BF050EF72
:1016EA000BF035BC7BEF0BF07DEF0BF0BDEF0BF091
:1016FA003750D8A483EF0BF085EF0BF08FEF0BF088
:10170A00000E296E000E2A6E000E2B6E000E2C6E35
:10171A00DEEF0CF02D5029262E502A222F502B2294
:10172A0030502C222CA09CEF0BF09EEF0BF04AEFCE
:10173A000CF038A0A3EF0BF0A5EF0BF0ABEF0BF01A
:10174A00D89038300109386EADEF0BF0D8903832A6
:10175A0029A0B2EF0BF0B4EF0BF0B5EF0BF0388E17
:10176A002C342C322B322A322932372A4AEF0CF007
:10177A002D50295C2E502A582F502B582C50800A55
:10178A00316E3050800A3158D8B0CEEF0BF0D0EF1E
:10179A000BF0FBEF0BF029502D5C316E2A502E58BE
:1017AA00326E2B502F58336E2C503058346EFF0E39
:1017BA003124296EFF0E32202A6EFF0E33202B6E43
:1017CA00FF0E34202C6E800E351A386C3850D8A48F
:1017DA00F1EF0BF0F3EF0BF003EF0CF0010E2926FB
:1017EA00000E2A222B222C2203EF0CF02D50295E08
:1017FA002E502A5A2F502B5A30502C5A29502A1020
:10180A002B102C10D8A40CEF0CF00EEF0CF043EFB9
:10181A000CF03850D8A414EF0CF016EF0CF043EF8C
:10182A000CF0000E296E000E2A6E000E2B6E000EB2
:10183A002C6EDEEF0CF0D89029362A362B362C3651
:10184A0038AE2AEF0CF02CEF0CF02DEF0CF02980BB
:10185A0038A032EF0CF034EF0CF038EF0CF0D880EF
:10186A0038363AEF0CF0D89038363750D8B440EFC3
:10187A000CF042EF0CF043EF0CF037062BAE48EFBA
:10188A000CF04AEF0CF020EF0CF0000E366E38AE7A
:10189A0051EF0CF053EF0CF06BEF0CF038C031F055
:1018AA007F0E3116D8B45CEF0CF05EEF0CF062EFED
:1018BA000CF0010E366E6BEF0CF029A067EF0CF0FE
:1018CA0069EF0CF06BEF0CF05EEF0CF03650D8B409
:1018DA0071EF0CF073EF0CF09EEF0CF0010E29265D
:1018EA00000E2A222B222C222CA07EEF0CF080EF55
:1018FA000CF09EEF0CF029C031F02AC032F02BC058
:10190A0033F02CC034F034343432333232323132A0
:10191A0031C029F032C02AF033C02BF034C02CF089
:10192A003728D8B49BEF0CF09DEF0CF09EEF0CF02B
:10193A00372A3728D8B4A4EF0CF0A6EF0CF0AEEF94
:10194A000CF03750D8A4ACEF0CF0AEEF0CF0C0EFAF
:10195A000CF0000E296E000E2A6E000E2B6E000E81
:10196A002C6E3750D8A4BCEF0CF0BEEF0CF0C0EFD1
:10197A000CF0000E356E37A0C5EF0CF0C7EF0CF077
:10198A00CAEF0CF02B8ECBEF0CF02B9ED890373091
:10199A002C6E35AED3EF0CF0D5EF0CF0D6EF0CF081
:1019AA002C8E29C029F02AC02AF02BC02BF02CC07B
:1019BA002CF012001350800B206E13501324276E44
:1019CA0012AEEAEF0CF0ECEF0CF0EDEF0CF0278022
:1019DA002750D8B4F3EF0CF0F5EF0CF00AEF0DF046
:1019EA002728D8A4FBEF0CF0FDEF0CF005EF0DF063
:1019FA00000E106E000E116E000E126E000E136EA7
:101A0A00128E000E136E12EF0DF0000E106E000E05
:101A1A00116E000E126E000E136E1750800B201AF4
:101A2A0017501724286E16AE1DEF0DF01FEF0DF09C
:101A3A0020EF0DF028802850D8B426EF0DF028EFBB
:101A4A000DF03DEF0DF02828D8A42EEF0DF030EF61
:101A5A000DF038EF0DF0000E146E000E156E000E2C
:101A6A00166E000E176E168E000E176E45EF0DF0ED
:101A7A00000E146E000E156E000E166E000E176E16
:101A8A001450151016101710D8A44EEF0DF050EF81
:101A9A000DF068EF0DF0000E106E000E116E000EC4
:101AAA00126E000E136E800E12127F0E1312205049
:101ABA00131210C010F011C011F012C012F013C0AE
:101ACA0013F0ABEF0EF02750D8A46EEF0DF070EFC5
:101ADA000DF07AEF0DF0000E106E000E116E000E72
:101AEA00126E000E136EABEF0EF0285027C018F0DE
:101AFA00196A185E000E195A7F0E1824216E000EFC
:101B0A001920226E10C01CF011C01DF012C01EF068
:101B1A0013C01FF0000E106E000E116E000E126E32
:101B2A00000E136E000E236E000E246E000E256E3C
:101B3A00000E266E000E286EDBEF0DF02850D8B48A
:101B4A00A9EF0DF0ABEF0DF0C2EF0DF0D8901C36F7
:101B5A001D361E361F36D8901036113612361336F9
:101B6A0026AEBAEF0DF0BCEF0DF0BDEF0DF0108010
:101B7A00D890233624362536263614501C5C155048
:101B8A001D5816501E5817501F58D8A0CFEF0DF0E9
:101B9A00D1EF0DF0DAEF0DF0268C14501C5E1550C3
:101BAA001D5A16501E5A17501F5A282A190E2864F1
:101BBA00E1EF0DF0E3EF0DF0A3EF0DF01C501D1057
:101BCA001E101F10D8B4ECEF0DF0EEEF0DF006EF7B
:101BDA000EF0238006EF0EF0D8901036113612362A
:101BEA00133626AEFBEF0DF0FDEF0DF0FEEF0DF014
:101BFA001080D89023362436253626362106D8A0DA
:101C0A00220612AE0BEF0EF00DEF0EF0F1EF0DF013
:101C1A00000E286E26AE14EF0EF016EF0EF03AEF15
:101C2A000EF0FF0E2314186EFF0E2414196EFF0E09
:101C3A0025141A6E7F0E26141B6E185019101A10CE
:101C4A001B10D8B42BEF0EF02DEF0EF031EF0EF083
:101C5A00010E286E3AEF0EF010A036EF0EF038EFB4
:101C6A000EF03AEF0EF02DEF0EF02850D8B440EFF8
:101C7A000EF042EF0EF066EF0EF0010E1026000E87
:101C8A0011221222132213A04DEF0EF04FEF0EF085
:101C9A0066EF0EF010C018F011C019F012C01AF059
:101CAA0013C01BF01B341B321A321932183218C0F7
:101CBA0010F019C011F01AC012F01BC013F0214A1B
:101CCA00222A22BE71EF0EF0225008E12128D8A064
:101CDA0071EF0EF073EF0EF07EEF0EF0000E226E33
:101CEA002168000E106E000E116E000E126E000EAC
:101CFA00136E22BE8BEF0EF0225006E12104D8B0FB
:101D0A0089EF0EF08BEF0EF099EF0EF0000E226EB7
:101D1A00000E216E000E106E000E116E000E126E75
:101D2A00000E136E000E206E21C027F027A0A0EF30
:101D3A000EF0A2EF0EF0A5EF0EF0128EA6EF0EF047
:101D4A00129ED8902730136E5CEF0DF012000A6EC7
:101D5A000A50D8B4B3EF0EF0B5EF0EF0D7EF0EF08D
:101D6A0005BEBCEF0EF0BAEF0EF0D7EF0EF002C0D0
:101D7A0006F003C007F004C008F005C009F0061E0B
:101D8A00071E081E091E062A000E0722082209221B
:101D9A0006C00CF007C00DF008C00EF009C00FF025
:101DAA00DFEF0EF002C00CF003C00DF004C00EF01D
:101DBA0005C00FF00250031004100510D8A4E8EF74
:101DCA000EF0EAEF0EF0F4EF0EF0000E026E000EC7
:101DDA00036E000E046E000E056E85EF0FF0960E70
:101DEA000B6EFEEF0EF00B2AD8900F320E320D3228
:101DFA000C32000E0C14066E000E0D14076E000E47
:101E0A000E14086EFE0E0F14096E06500710081005
:101E1A000910D8A413EF0FF015EF0FF0F8EF0EF03A
:101E2A0023EF0FF00B2A010E0C26000E0D220E22B4
:101E3A000F22D8900F320E320D320C32000E0C14D3
:101E4A00066E000E0D14076E000E0E14086EFF0EBD
:101E5A000F14096E0650071008100910D8A438EF9D
:101E6A000FF03AEF0FF017EF0FF042EF0FF00B06FB
:101E7A00D8900C360D360E360F360EBE47EF0FF0E1
:101E8A0049EF0FF051EF0FF0020E0B604FEF0FF01A
:101E9A0051EF0FF03CEF0FF00BB056EF0FF058EF89
:101EAA000FF059EF0FF00E9ED8900B320BC006F0D0
:101EBA00076A086A096A06C009F0086A076A066AB0
:101ECA0006500C1207500D1208500E1209500F122C
:101EDA000A50D8B473EF0FF075EF0FF07DEF0FF0E3
:101EEA0005BE7CEF0FF07AEF0FF07DEF0FF00F8E4B
:101EFA000CC002F00DC003F00EC004F00FC005F0D4
:101F0A001200043405340B6E0B50D8A48FEF0FF077
:101F1A0091EF0FF09BEF0FF0000E026E000E036EB2
:101F2A00000E046E000E056E08EF10F002C006F0F7
:101F3A0003C007F004C008F005C009F0200EABEF9B
:101F4A000FF0D8900932083207320632E82EA6EF8F
:101F5A000FF006500A6E048EFF0E0216FF0E0316CD
:101F6A00FF0E0416000E0516960E0B5E0BBEC2EF90
:101F7A000FF0C0EF0FF0D8EF0FF00B50800A970F59
:101F8A00D8B0CAEF0FF0CCEF0FF0CEEF0FF091EF11
:101F9A000FF0D89005320432033202320B3ECEEFF4
:101FAA000FF0F0EF0FF01F0E0B64DEEF0FF0E0EF13
:101FBA000FF0E8EF0FF091EF0FF0D89002360336EA
:101FCA00043605360B060B50D8A4EEEF0FF0F0EFEF
:101FDA000FF0E2EF0FF00A50D8B4F6EF0FF0F8EF77
:101FEA000FF000EF10F0051E041E031E026C000E17
:101FFA0003220422052202C002F003C003F004C037
:10200A0004F005C005F012000250D8A40FEF10F03A
:10201A0011EF10F013EF10F075EF10F00250D96EB7
:10202A00DA6A080ED926DFA01DEF10F01FEF10F0B4
:10203A004CEF10F0AB880250D96EDA6A080ED92636
:10204A00DFA22AEF10F02CEF10F059EF10F09D8A62
:10205A00F28EF28C0250D96EDA6A0E0ED926DECFD3
:10206A0079F0DDCF7AF00250D96EDA6A100ED926ED
:10207A00DECF77F0DDCF78F00250D96EDA6A120E31
:10208A00D926DECF75F0DDCF76F059EF10F0025089
:10209A00D96EDA6A080ED926DFB256EF10F058EF79
:1020AA0010F059EF10F09D9A0250D96EDA6A080EB4
:1020BA00D926DFA463EF10F065EF10F068EF10F097
:1020CA00AB8C75EF10F00250D96EDA6A080ED92679
:1020DA00DFB472EF10F074EF10F075EF10F0AB9CF4
:1020EA0012000250D8A47CEF10F07EEF10F080EFBF
:1020FA0010F0D0EF10F00250D96EDA6A050ED92628
:10210A00DFA08AEF10F08CEF10F0A7EF10F0AC8A86
:10211A000250D96EDA6A050ED926DFA297EF10F0BF
:10212A0099EF10F0B4EF10F09D88F28EF28C025005
:10213A00D96EDA6A0C0ED926DECF7BF0DDCF7CF0C1
:10214A00B4EF10F00250D96EDA6A050ED926DFB262
:10215A00B1EF10F0B3EF10F0B4EF10F09D98025009
:10216A00D96EDA6A050ED926DFA4BEEF10F0C0EFE9
:10217A0010F0C3EF10F0AC80D0EF10F00250D96E1F
:10218A00DA6A050ED926DFB4CDEF10F0CFEF10F0E2
:10219A00D0EF10F0AC9012008AEC11F0BD0E446E34
:1021AA002AEC11F05D6EBD0E026E610E036E4AECF2
:1021BA0011F05D6E0B0E476E260E466E5E0EE82E11
:1021CA00FED7462EFCD7472EFAD7BD0E026E620EF8
:1021DA00036E4AEC11F05D6E0B0E476E260E466ECC
:1021EA005E0EE82EFED7462EFCD7472EFAD7D8EF3A
:1021FA0010F0C7EF00F0C80EF66E220EF76E000E52
:10220A00F86E00EE9FF010EE32F00900F5CFEEFF07
:10221A00E550E150FAE13C0EF66E230EF76E000E21
:10222A00F86E0900F5CF5DF000EE60F03F0EEE6A41
:10223A00E806FDE100EE48F0150EEE6AE806FDE15B
:10224A005E905E920001D1EF10F04450D8A430EFB6
:10225A0011F032EF11F036EF11F0000E456E48EF33
:10226A0011F0AB9E948E948C44C039F00DEC08F0BA
:10227A0044C002F076EC10F044C002F009EC10F011
:10228A00AB8E010E456E455012000250D8A450EF95
:10229A0011F052EF11F056EF11F0000E046E62EFDA
:1022AA0011F0ACA25BEF11F05DEF11F056EF11F0F7
:1022BA0003C0ADFF9D88010E046E04501200800F0A
:1022CA00810F820F830F840F890F8A0F8B0F8C0F58
:1022DA008D0F920F930F940F950F960F8025000084
:1022EA0000010000010000000000000000000000E2
:1022FA00016EF2900104D8A485EF11F087EF11F076
:10230A0089EF11F089EF11F012009DEC11F0120023
:10231A00A19212009E9212009E901200F294120054
:10232A00F2921200A19012009E9412009E9C12003A
:03233A001200018D
:020000040030CA
:0E000000FF02191FFF8181FF0FC00FE00F40AC
:00000001FF
