:04000000E7EF01F035
:100008005D82F2A80AEF00F00CEF00F015EF00F0A7
:10001800F2A211EF00F013EF00F015EF00F013EC6F
:1000280017F0F0A81AEF00F01CEF00F025EF00F031
:10003800F0A221EF00F023EF00F025EF00F00FEC25
:1000480017F0F0A62AEF00F02CEF00F035EF00F0E3
:10005800F0A031EF00F033EF00F035EF00F011ECD5
:1000680017F0F2A63AEF00F03CEF00F056EF00F080
:10007800F2A041EF00F043EF00F056EF00F07DA84A
:1000880048EF00F04AEF00F056EF00F081A84FEF7C
:1000980000F051EF00F056EF00F0010EE0EC16F022
:1000A80075EF00F0F2A65BEF00F05DEF00F075EF82
:1000B80000F0F2A062EF00F064EF00F075EF00F0DE
:1000C8007DA869EF00F06BEF00F075EF00F081B8E4
:1000D80070EF00F072EF00F075EF00F0000EE0EC4A
:1000E80016F0F2A67AEF00F07CEF00F096EF00F041
:1000F800F2A081EF00F083EF00F096EF00F07DAA08
:1001080088EF00F08AEF00F096EF00F081AA8FEFF9
:1001180000F091EF00F096EF00F0010ED3EC16F02E
:10012800B5EF00F0F2A69BEF00F09DEF00F0B5EF01
:1001380000F0F2A0A2EF00F0A4EF00F0B5EF00F09D
:100148007DAAA9EF00F0ABEF00F0B5EF00F081BA9F
:10015800B0EF00F0B2EF00F0B5EF00F0000ED3EC16
:1001680016F0F2A6BAEF00F0BCEF00F0D6EF00F000
:10017800F2A0C1EF00F0C3EF00F0D6EF00F07DACC5
:10018800C8EF00F0CAEF00F0D6EF00F081ACCFEF77
:1001980000F0D1EF00F0D6EF00F0010EC6EC16F03B
:1001A800F5EF00F0F2A6DBEF00F0DDEF00F0F5EF81
:1001B80000F0F2A0E2EF00F0E4EF00F0F5EF00F05D
:1001C8007DACE9EF00F0EBEF00F0F5EF00F081BC5B
:1001D800F0EF00F0F2EF00F0F5EF00F0000EC6ECE3
:1001E80016F0F2A6FAEF00F0FCEF00F016EF01F0BF
:1001F800F2A001EF01F003EF01F016EF01F07DAE80
:1002080008EF01F00AEF01F016EF01F081AE0FEFF1
:1002180001F011EF01F016EF01F0010EB9EC16F044
:1002280035EF01F0F2A61BEF01F01DEF01F035EFFD
:1002380001F0F2A022EF01F024EF01F035EF01F018
:100248007DAE29EF01F02BEF01F035EF01F081BE13
:1002580030EF01F032EF01F035EF01F0000EB9ECAC
:1002680016F09DAC3AEF01F03CEF01F045EF01F0DC
:100278009EAC41EF01F043EF01F045EF01F01BECBC
:1002880017F0F2AA4AEF01F04CEF01F055EF01F038
:10029800F2A451EF01F053EF01F055EF01F009EC32
:1002A80017F09DA05AEF01F05CEF01F065EF01F047
:1002B8009EA061EF01F063EF01F065EF01F007EC3C
:1002C80017F09DA26AEF01F06CEF01F075EF01F0F5
:1002D8009EA271EF01F073EF01F075EF01F005ECEC
:1002E80017F0A0A27AEF01F07CEF01F085EF01F0A2
:1002F800A1A281EF01F083EF01F085EF01F003EC9B
:1003080017F09DA48AEF01F08CEF01F095EF01F052
:100318009EA491EF01F093EF01F095EF01F019EC35
:1003280017F0A0A09AEF01F09CEF01F0A5EF01F003
:10033800A1A0A1EF01F0A3EF01F0A5EF01F017ECE8
:1003480017F09DA8AAEF01F0ACEF01F0B5EF01F0AE
:100358009EA8B1EF01F0B3EF01F0B5EF01F015EC95
:1003680017F09DAABAEF01F0BCEF01F0C5EF01F05C
:100378009EAAC1EF01F0C3EF01F0C5EF01F01EEC3A
:1003880017F09DA6CAEF01F0CCEF01F0D5EF01F010
:100398009EA6D1EF01F0D3EF01F0D5EF01F00BEC01
:1003A80017F0A0A6DAEF01F0DCEF01F0E5EF01F0BD
:1003B800A1A6E1EF01F0E3EF01F0E5EF01F00DECAC
:0A03C80017F05D9211001AEF14F017
:10100000003738393435363132332A302353797347
:1010100074656D20537461727465640D004461746D
:101020006520262074696D65203A2000256C7500C6
:1010300025750000000E476E000E486E000E496ECA
:10104000000E4A6E43504410D8A429EF08F02BEF4D
:1010500008F049EF0AF093EF0AF0AC98AC94B89618
:1010600043C0D9FF44C0DAFFDECF02F0DECF03F089
:10107000DECF04F0DECF05F0000EC1EC0EF002C0B2
:1010800014F003C015F004C016F005C017F0000EF0
:10109000106E240E116E740E126E4B0E136EF4EC65
:1010A0000CF010C04BF011C04CF012C04DF013C04A
:1010B0004EF0000E146E000E156E800E166E420E6F
:1010C000176E4BC010F04CC011F04DC012F04EC066
:1010D00013F0F4EC0CF010C029F011C02AF012C08B
:1010E0002BF013C02CF0000E2D6E000E2E6E800E15
:1010F0002F6EBF0E306E94EC0AF029C047F02AC064
:1011000048F02BC049F02CC04AF074EF0AF0AC98BC
:10111000AC84B89643C0D9FF44C0DAFFDECF02F0FA
:10112000DECF03F0DECF04F0DECF05F0000EC1EC21
:101130000EF002C014F003C015F004C016F005C094
:1011400017F0000E106E240E116E740E126E4B0E00
:10115000136EF4EC0CF010C04BF011C04CF012C048
:101160004DF013C04EF0000E146E000E156E800E82
:10117000166E410E176E4BC010F04CC011F04DC0F2
:1011800012F04EC013F0F4EC0CF010C029F011C0B6
:101190002AF012C02BF013C02CF0000E2D6E000EA2
:1011A0002E6E800E2F6EBF0E306E94EC0AF029C0AA
:1011B00047F02AC048F02BC049F02CC04AF085EF18
:1011C00008F0AC98AC94B88643C0D9FF44C0DAFFAD
:1011D000DECF02F0DECF03F0DECF04F0DECF05F08D
:1011E000000EC1EC0EF002C014F003C015F004C0F4
:1011F00016F005C017F0000E106E240E116E740E5E
:10120000126E4B0E136EF4EC0CF010C04BF011C0CC
:101210004CF012C04DF013C04EF0000E146E000ED4
:10122000156E800E166E410E176E4BC010F04CC03E
:1012300011F04DC012F04EC013F0F4EC0CF010C0E1
:1012400029F011C02AF012C02BF013C02CF0000EB0
:101250002D6E000E2E6E800E2F6EBF0E306E94EC33
:101260000AF029C047F02AC048F02BC049F02CC032
:101270004AF085EF08F0AC98AC84B88643C0D9FF3B
:1012800044C0DAFFDECF02F0DECF03F0DECF04F0A1
:10129000DECF05F0000EC1EC0EF002C014F003C06A
:1012A00015F004C016F005C017F0000E106E240EE5
:1012B000116E740E126E4B0E136EF4EC0CF010C027
:1012C0004BF011C04CF012C04DF013C04EF0000EA8
:1012D000146E000E156E800E166E400E176E4BC00B
:1012E00010F04CC011F04DC012F04EC013F0F4ECF1
:1012F0000CF010C029F011C02AF012C02BF013C05E
:101300002CF0000E2D6E000E2E6E800E2F6EBF0E76
:10131000306E94EC0AF029C047F02AC048F02BC088
:1013200049F02CC04AF085EF08F0AC88B89643C06D
:10133000D9FF44C0DAFFDECF02F0DECF03F0DECF0C
:1013400004F0DECF05F0000EC1EC0EF002C014F088
:1013500003C015F004C016F005C017F0000E106EA3
:10136000240E116E740E126E4B0E136EF4EC0CF014
:1013700010C04BF011C04CF012C04DF013C04EF035
:10138000000E146E000E156E800E166E400E176E57
:101390004BC010F04CC011F04DC012F04EC013F015
:1013A000F4EC0CF010C029F011C02AF012C02BF0A0
:1013B00013C02CF0000E2D6E000E2E6E800E2F6EC0
:1013C000BF0E306E94EC0AF029C047F02AC048F0F6
:1013D0002BC049F02CC04AF085EF08F0AC88B886E5
:1013E00043C0D9FF44C0DAFFDECF02F0DECF03F006
:1013F000DECF04F0DECF05F0000EC1EC0EF002C02F
:1014000014F003C015F004C016F005C017F0000E6C
:10141000106E240E116E740E126E4B0E136EF4ECE1
:101420000CF010C04BF011C04CF012C04DF013C0C6
:101430004EF0000E146E000E156E800E166E400EED
:10144000176E4BC010F04CC011F04DC012F04EC0E2
:1014500013F0F4EC0CF010C029F011C02AF012C007
:101460002BF013C02CF0000E2D6E000E2E6E800E91
:101470002F6EBF0E306E94EC0AF029C047F02AC0E0
:1014800048F02BC049F02CC04AF085EF08F074EF0B
:101490000AF020EE04F04350D9264450DA22DF50FF
:1014A000456E466A4650000AD8B459EF0AF047EF35
:1014B0000AF04550000AD8B42DEF08F0010AD8B45C
:1014C00087EF08F0030AD8B4E1EF08F0010AD8B4B6
:1014D0003BEF09F0070AD8B495EF09F0010AD8B438
:1014E000EEEF09F047EF0AF047C039F048C03AF094
:1014F00049C03BF04AC03CF041EC11F03950AF6EAE
:1015000047C039F048C03AF049C03BF04AC03CF00F
:1015100041EC11F03AC039F03BC03AF03CC03BF02E
:101520003C6A3950B06E12002C50800B356E2C5036
:101530002C24376E2BAE9FEF0AF0A1EF0AF0A2EF3A
:101540000AF037803750D8B4A8EF0AF0AAEF0AF0B3
:10155000BFEF0AF03728D8A4B0EF0AF0B2EF0AF0D4
:10156000BAEF0AF0000E296E000E2A6E000E2B6EE6
:10157000000E2C6E2B8E000E2C6EC7EF0AF0000EA4
:10158000296E000E2A6E000E2B6E000E2C6E30504F
:10159000800B366E35503618D8B4D1EF0AF0D3EF41
:1015A0000AF0D4EF0AF0358C30503024366E2FAE6E
:1015B000DCEF0AF0DEEF0AF0DFEF0AF0368036509B
:1015C000D8B4E5EF0AF0E7EF0AF0FCEF0AF03628AE
:1015D000D8A4EDEF0AF0EFEF0AF0F7EF0AF0000EF3
:1015E0002D6E000E2E6E000E2F6E000E306E2F8EA2
:1015F000000E306E04EF0BF0000E2D6E000E2E6EFE
:10160000000E2F6E000E306E3750365CD8B00BEFE8
:101610000BF00DEF0BF034EF0BF035AC12EF0BF0DD
:1016200014EF0BF016EF0BF0800E351A37C038F0C0
:1016300036C037F038C036F029C038F02DC029F058
:1016400038C02DF02AC038F02EC02AF038C02EF055
:101650002BC038F02FC02BF038C02FF02CC038F042
:1016600030C02CF038C030F0000E386E375036C025
:1016700031F0326A315E000E325A32BE49EF0BF061
:10168000325009E11A0E315CD8A049EF0BF04BEF54
:101690000BF082EF0BF029502A102B102C10D8A43D
:1016A00054EF0BF057EF0BF0010E58EF0BF0000E5C
:1016B000386E000E296E000E2A6E000E2B6E000E84
:1016C0002C6E36C037F08BEF0BF038A06AEF0BF0C2
:1016D0006CEF0BF072EF0BF0D89038300109386ED8
:1016E00074EF0BF0D890383229A079EF0BF07BEF34
:1016F0000BF07CEF0BF0388E2C342C322B322A324C
:101700002932372A3650375CD8A089EF0BF08BEF9F
:101710000BF065EF0BF035BC90EF0BF092EF0BF098
:10172000D2EF0BF03750D8A498EF0BF09AEF0BF0F4
:10173000A4EF0BF0000E296E000E2A6E000E2B6E29
:10174000000E2C6EF3EF0CF02D5029262E502A227D
:101750002F502B2230502C222CA0B1EF0BF0B3EFE6
:101760000BF05FEF0CF038A0B8EF0BF0BAEF0BF016
:10177000C0EF0BF0D89038300109386EC2EF0BF093
:10178000D890383229A0C7EF0BF0C9EF0BF0CAEFA1
:101790000BF0388E2C342C322B322A322932372A55
:1017A0005FEF0CF02D50295C2E502A582F502B58EB
:1017B0002C50800A316E3050800A3158D8B0E3EF97
:1017C0000BF0E5EF0BF010EF0CF029502D5C316EB3
:1017D0002A502E58326E2B502F58336E2C503058C2
:1017E000346EFF0E3124296EFF0E32202A6EFF0E5A
:1017F00033202B6EFF0E34202C6E800E351A386C81
:101800003850D8A406EF0CF008EF0CF018EF0CF0ED
:10181000010E2926000E2A222B222C2218EF0CF072
:101820002D50295E2E502A5A2F502B5A30502C5AA8
:1018300029502A102B102C10D8A421EF0CF023EFE4
:101840000CF058EF0CF03850D8A429EF0CF02BEF27
:101850000CF058EF0CF0000E296E000E2A6E000EF0
:101860002B6E000E2C6EF3EF0CF0D89029362A3632
:101870002B362C3638AE3FEF0CF041EF0CF042EF38
:101880000CF0298038A047EF0CF049EF0CF04DEF39
:101890000CF0D88038364FEF0CF0D89038363750EF
:1018A000D8B455EF0CF057EF0CF058EF0CF03706AA
:1018B0002BAE5DEF0CF05FEF0CF035EF0CF0000E8F
:1018C000366E38AE66EF0CF068EF0CF080EF0CF07F
:1018D00038C031F07F0E3116D8B471EF0CF073EFD1
:1018E0000CF077EF0CF0010E366E80EF0CF029A0B3
:1018F0007CEF0CF07EEF0CF080EF0CF073EF0CF04F
:101900003650D8B486EF0CF088EF0CF0B3EF0CF043
:10191000010E2926000E2A222B222C222CA093EF26
:101920000CF095EF0CF0B3EF0CF029C031F02AC0A9
:1019300032F02BC033F02CC034F034343432333234
:101940003232313231C029F032C02AF033C02BF0AC
:1019500034C02CF03728D8B4B0EF0CF0B2EF0CF054
:10196000B3EF0CF0372A3728D8B4B9EF0CF0BBEF3F
:101970000CF0C3EF0CF03750D8A4C1EF0CF0C3EF5C
:101980000CF0D5EF0CF0000E296E000E2A6E000E42
:101990002B6E000E2C6E3750D8A4D1EF0CF0D3EF85
:1019A0000CF0D5EF0CF0000E356E37A0DAEF0CF02E
:1019B000DCEF0CF0DFEF0CF02B8EE0EF0CF02B9E49
:1019C000D89037302C6E35AEE8EF0CF0EAEF0CF023
:1019D000EBEF0CF02C8E29C029F02AC02AF02BC086
:1019E0002BF02CC02CF012001350800B206E1350E3
:1019F0001324276E12AEFFEF0CF001EF0DF002EF93
:101A00000DF027802750D8B408EF0DF00AEF0DF045
:101A10001FEF0DF02728D8A410EF0DF012EF0DF0F6
:101A20001AEF0DF0000E106E000E116E000E126E09
:101A3000000E136E128E000E136E27EF0DF0000EC7
:101A4000106E000E116E000E126E000E136E175007
:101A5000800B201A17501724286E16AE32EF0DF0A7
:101A600034EF0DF035EF0DF028802850D8B43BEF5F
:101A70000DF03DEF0DF052EF0DF02828D8A443EF04
:101A80000DF045EF0DF04DEF0DF0000E146E000E51
:101A9000156E000E166E000E176E168E000E176E67
:101AA0005AEF0DF0000E146E000E156E000E166E3D
:101AB000000E176E1450151016101710D8A463EFEF
:101AC0000DF065EF0DF07DEF0DF0000E106E000EC5
:101AD000116E000E126E000E136E800E12127F0E2B
:101AE00013122050131210C010F011C011F012C0C8
:101AF00012F013C013F0C0EF0EF02750D8A483EFFC
:101B00000DF085EF0DF08FEF0DF0000E106E000E52
:101B1000116E000E126E000E136EC0EF0EF0285004
:101B200027C018F0196A185E000E195A7F0E182483
:101B3000216E000E1920226E10C01CF011C01DF085
:101B400012C01EF013C01FF0000E106E000E116EBA
:101B5000000E126E000E136E000E236E000E246E29
:101B6000000E256E000E266E000E286EF0EF0DF0B2
:101B70002850D8B4BEEF0DF0C0EF0DF0D7EF0DF048
:101B8000D8901C361D361E361F36D89010361136AA
:101B90001236133626AECFEF0DF0D1EF0DF0D2EFA7
:101BA0000DF01080D8902336243625362636145072
:101BB0001C5C15501D5816501E5817501F58D8A0A1
:101BC000E4EF0DF0E6EF0DF0EFEF0DF0268C145082
:101BD0001C5E15501D5A16501E5A17501F5A282A9F
:101BE000190E2864F6EF0DF0F8EF0DF0B8EF0DF0D8
:101BF0001C501D101E101F10D8B401EF0EF003EF83
:101C00000EF01BEF0EF023801BEF0EF0D890103675
:101C100011361236133626AE10EF0EF012EF0EF01C
:101C200013EF0EF01080D890233624362536263652
:101C30002106D8A0220612AE20EF0EF022EF0EF001
:101C400006EF0EF0000E286E26AE29EF0EF02BEFF9
:101C50000EF04FEF0EF0FF0E2314186EFF0E24143B
:101C6000196EFF0E25141A6E7F0E26141B6E185067
:101C700019101A101B10D8B440EF0EF042EF0EF0FE
:101C800046EF0EF0010E286E4FEF0EF010A04BEF56
:101C90000EF04DEF0EF04FEF0EF042EF0EF0285029
:101CA000D8B455EF0EF057EF0EF07BEF0EF0010EAB
:101CB0001026000E11221222132213A062EF0EF042
:101CC00064EF0EF07BEF0EF010C018F011C019F0A9
:101CD00012C01AF013C01BF01B341B321A32193217
:101CE000183218C010F019C011F01AC012F01BC041
:101CF00013F0214A222A22BE86EF0EF0225008E17C
:101D00002128D8A086EF0EF088EF0EF093EF0EF0AA
:101D1000000E226E2168000E106E000E116E000E75
:101D2000126E000E136E22BEA0EF0EF0225006E1DE
:101D30002104D8B09EEF0EF0A0EF0EF0AEEF0EF043
:101D4000000E226E000E216E000E106E000E116E3F
:101D5000000E126E000E136E000E206E21C027F0D2
:101D600027A0B5EF0EF0B7EF0EF0BAEF0EF0128E1F
:101D7000BBEF0EF0129ED8902730136E71EF0DF06E
:101D800012000A6E0A50D8B4C8EF0EF0CAEF0EF077
:101D9000ECEF0EF005BED1EF0EF0CFEF0EF0ECEF52
:101DA0000EF002C006F003C007F004C008F005C042
:101DB00009F0061E071E081E091E062A000E07222D
:101DC0000822092206C00CF007C00DF008C00EF072
:101DD00009C00FF0F4EF0EF002C00CF003C00DF0DC
:101DE00004C00EF005C00FF00250031004100510DF
:101DF000D8A4FDEF0EF0FFEF0EF009EF0FF0000E8C
:101E0000026E000E036E000E046E000E056E9AEF59
:101E10000FF0960E0B6E13EF0FF00B2AD8900F32C7
:101E20000E320D320C32000E0C14066E000E0D1424
:101E3000076E000E0E14086EFE0E0F14096E06508B
:101E4000071008100910D8A428EF0FF02AEF0FF0A0
:101E50000DEF0FF038EF0FF00B2A010E0C26000EDD
:101E60000D220E220F22D8900F320E320D320C327C
:101E7000000E0C14066E000E0D14076E000E0E14EC
:101E8000086EFF0E0F14096E065007100810091097
:101E9000D8A44DEF0FF04FEF0FF02CEF0FF057EFEE
:101EA0000FF00B06D8900C360D360E360F360EBEE0
:101EB0005CEF0FF05EEF0FF066EF0FF0020E0B60BD
:101EC00064EF0FF066EF0FF051EF0FF00BB06BEF18
:101ED0000FF06DEF0FF06EEF0FF00E9ED8900B32FB
:101EE0000BC006F0076A086A096A06C009F0086AAA
:101EF000076A066A06500C1207500D1208500E129F
:101F000009500F120A50D8B488EF0FF08AEF0FF083
:101F100092EF0FF005BE91EF0FF08FEF0FF092EF01
:101F20000FF00F8E0CC002F00DC003F00EC004F0D5
:101F30000FC005F012004550D8A4A1EF0FF0A3EF99
:101F40000FF0A5EF0FF02FEF10F0C69A4550D96EA5
:101F5000DA6A040ED926DE04D8A4B1EF0FF0B3EF8D
:101F60000FF0B9EF0FF045C043F046EC13F0F0EF7F
:101F70000FF04550D96EDA6A040ED926DF50D8A486
:101F8000C4EF0FF0C6EF0FF0F0EF0FF04550D96E31
:101F9000DA6A060ED926DFA4D0EF0FF0D2EF0FF0E9
:101FA000D5EF0FF0C58EE2EF0FF04550D96EDA6A2B
:101FB000060ED926DFB4DFEF0FF0E1EF0FF0E2EF0E
:101FC0000FF0C59EC69EC69CC6884550D96EDA6A7B
:101FD000070ED926DF50C86E45C002F0ACEC16F0F3
:101FE00000EC17F04550D96EDA6A060ED926DFB03C
:101FF000FCEF0FF0FEEF0FF001EF10F0C79E0EEFB9
:1020000010F04550D96EDA6A060ED926DFA00BEF24
:1020100010F00DEF10F00EEF10F0C78E4550D96E96
:10202000DA6A060ED926DFA218EF10F01AEF10F0C8
:102030001DEF10F0C78C2AEF10F04550D96EDA6A08
:10204000060ED926DFB227EF10F029EF10F02AEFA5
:1020500010F0C79C45C002F097EC15F0C68A12003C
:10206000010E086E0250D8B438EF10F03AEF10F0BD
:102070004AEF10F00250D96EDA6ADF30E832E83207
:10208000070B036E070E036448EF10F04AEF10F0E1
:10209000A1EF10F0000E086EB7EF10F00250D96EED
:1020A000DA6ADF30E832E832070B036E010E046EA5
:1020B000032A5DEF10F0D8900436032E5BEF10F08A
:1020C0000450FF0A056E0250D96EDA6ADF50070B22
:1020D000020DF350D90FD96EDA6ADECF06F0DDCFEC
:1020E00007F006C0D9FF07C0DAFF0550DF16B7EFCB
:1020F00010F00250D96EDA6ADF30E832E832070BAE
:10210000036E010E046E032A88EF10F0D890043697
:10211000032E86EF10F00250D96EDA6ADF50070BFB
:10212000020DF350D90FD96EDA6ADECF05F0DDCF9C
:1021300006F005C0D9FF06C0DAFF0450DF12B7EF82
:1021400010F00250D96EDA6ADFBCA9EF10F0ACEFE4
:1021500010F0010EADEF10F0000E000AD8B44EEFF3
:1021600010F0010AD8B479EF10F04AEF10F00850DF
:102170001200010E096E0250D8B4C1EF10F0C3EF87
:1021800010F0D3EF10F00250D96EDA6ADF30E83287
:10219000E832070B046E070E0464D1EF10F0D3EFA2
:1021A00010F02AEF11F0000E096E3FEF11F002500F
:1021B000D96EDA6ADF30E832E832070B046E010EBE
:1021C000056E042AE6EF10F0D8900536042EE4EFF1
:1021D00010F00550FF0A066E0250D96EDA6ADF5021
:1021E000070B020DF350CF0FD96EDA6ADECF07F07E
:1021F000DDCF08F007C0D9FF08C0DAFF0650DF16B0
:102200003FEF11F00250D96EDA6ADF30E832E8327F
:10221000070B046E010E056E042A11EF11F0D89021
:102220000536042E0FEF11F00250D96EDA6ADF5036
:10223000070B020DF350CF0FD96EDA6ADECF06F02E
:10224000DDCF07F006C0D9FF07C0DAFF0550DF1267
:102250003FEF11F00350046E056A0550000AD8B430
:1022600034EF11F0D3EF10F00450000AD8B4D7EFD8
:1022700010F0010AD8B402EF11F0D3EF10F00950BA
:1022800012003B343C34426E4250D8A44AEF11F065
:102290004CEF11F056EF11F0000E396E000E3A6E51
:1022A000000E3B6E000E3C6EC3EF11F039C03DF0E6
:1022B0003AC03EF03BC03FF03CC040F0200E66EF1D
:1022C00011F0D89040323F323E323D32E82E61EF7D
:1022D00011F03D50416E3B8EFF0E3916FF0E3A163F
:1022E000FF0E3B16000E3C16960E425E42BE7DEF80
:1022F00011F07BEF11F093EF11F04250800A970F2D
:10230000D8B085EF11F087EF11F089EF11F04CEFA5
:1023100011F0D8903C323B323A323932423E89EFAA
:1023200011F0ABEF11F01F0E426499EF11F09BEF2B
:1023300011F0A3EF11F04CEF11F0D89039363A3686
:102340003B363C3642064250D8A4A9EF11F0ABEF21
:1023500011F09DEF11F04150D8B4B1EF11F0B3EF8F
:1023600011F0BBEF11F03C1E3B1E3A1E396C000E03
:102370003A223B223C2239C039F03AC03AF03BC005
:102380003BF03CC03CF0120002500310D8A4CBEF4D
:1023900011F0CDEF11F0CFEF11F039EF12F020EE88
:1023A00008F00250D9260350DA22DFA0DAEF11F04C
:1023B000DCEF11F00DEF12F0AB8820EE08F00250C8
:1023C000D9260350DA22DFA2E8EF11F0EAEF11F08C
:1023D0001BEF12F09D8AF28EF28C20EE0EF002506E
:1023E000D9260350DA22DECFA4F0DDCFA5F020EE0F
:1023F00010F00250D9260350DA22DECFA2F0DDCF52
:10240000A3F020EE12F00250D9260350DA22DECFDC
:10241000A0F0DDCFA1F01BEF12F020EE08F002508B
:10242000D9260350DA22DFB218EF12F01AEF12F0B9
:102430001BEF12F09D9A20EE08F00250D9260350AF
:10244000DA22DFA426EF12F028EF12F02BEF12F0C1
:10245000AB8C39EF12F020EE08F00250D926035071
:10246000DA22DFB436EF12F038EF12F039EF12F063
:10247000AB9C120002500310D8A441EF12F043EFBE
:1024800012F045EF12F09BEF12F020EE05F0025033
:10249000D9260350DA22DFA050EF12F052EF12F0EB
:1024A0006FEF12F0AC8A20EE05F00250D9260350EF
:1024B000DA22DFA25EEF12F060EF12F07DEF12F091
:1024C0009D88F28EF28C20EE0CF00250D92603503B
:1024D000DA22DECFA6F0DDCFA7F07DEF12F020EEFE
:1024E00005F00250D9260350DA22DFB27AEF12F05B
:1024F0007CEF12F07DEF12F09D9820EE05F0025077
:10250000D9260350DA22DFA488EF12F08AEF12F006
:102510008DEF12F0AC809BEF12F020EE05F0025030
:10252000D9260350DA22DFB498EF12F09AEF12F0B6
:102530009BEF12F0AC901200E40E026E4CEC16F021
:10254000E40E026ED00E036E5A0E046E9CEC14F074
:10255000E40E026E000E036E5A0E046E9CEC14F034
:10256000E40E026E7CEC16F0E40E026ED10E036EE9
:102570005A0E046E9CEC14F0000E126EE40E026E05
:10258000060E1260C6EF12F0C9EF12F0010ECAEF8C
:1025900012F0000E036E12500B0F046ED6EC13F007
:1025A000122A060E1264D7EF12F0D9EF12F0BEEF26
:1025B00012F0E40E026E32EC16F00BC066F00CC0A6
:1025C00067F00DC068F00FC069F010C06AF011C06C
:1025D0006BF020EE66F000EE05F0050EDBCFEBFFB2
:1025E000E806FCE21200000169390F0B300FB36FEF
:1025F00069510F0B300FB46F2D0EB56F6A390F0B89
:10260000300FB66F6A510F0B300FB76F2D0EB86FCA
:102610006B390F0B300FB96F6B510F0B300FBA6F57
:10262000200EBB6F68390F0B300FBC6F68510F0B5A
:10263000300FBD6F2D0EBE6F67390F0B300FBF6FA0
:1026400067510F0B300FC06F2D0EC16F66390F0B26
:10265000300FC26F66510F0B300FC36F0D0EC46F7A
:102660001D0E0E6E0E50D8A4100E0F6E000E116EC1
:102670000F0E106E90EC16F0B30E0E6E0F6A000E79
:10268000116E120E106E90EC16F012004350D96EBF
:10269000DA6A050ED926DF50446EC6504418F00B96
:1026A0004418C66E000E2D6E000E2E6E800E2F6E1C
:1026B000BF0E306E4350D96EDA6ADECF02F0DECF45
:1026C00003F0DECF04F0DECF05F0000EC1EC0EF01B
:1026D00002C014F003C015F004C016F005C017F0D6
:1026E000000E106E240E116E740E126E4A0E136ED2
:1026F000F4EC0CF010C029F011C02AF012C02BF03D
:1027000013C02CF094EC0AF029C039F02AC03AF03A
:102710002BC03BF02CC03CF041EC11F03950C86E9E
:1027200012009FEC16F00D0E0E6E0E50D8A4100E77
:102730000F6E000E116E100E106E90EC16F09CECE9
:1027400012F020EE60F0050EEBCFDBFFE806FCE2B6
:10275000F3EC12F09E0ED1EC14F0516E5B50511858
:10276000D8B4B5EF13F0B7EF13F0C5EF13F0000EC8
:10277000056E51C006F0A20EDBEC15F051C005F05D
:10278000700E18EC16F051C05BF0150E0001FC6FD6
:102790004B0EFB6FBE0EE82EFED7FB2FFCD7FC2F97
:1027A000FAD700009FEF13F0E7EF01F00250D8B422
:1027B000DCEF13F0DEEF13F0E6EF13F00450D8A4D3
:1027C000E4EF13F0E6EF13F0E8EF13F019EF14F075
:1027D000C586C7A0EEEF13F0F0EF13F0E9EF13F0AA
:1027E0000450D96EDA6AC9CFDFFF0350D8A4FBEFDB
:1027F00013F0FDEF13F008EF14F0C59AC588C5B8C3
:1028000004EF14F006EF14F0FFEF13F019EF14F0DB
:102810000304D8A40EEF14F010EF14F019EF14F025
:10282000C58AC588C5B817EF14F019EF14F012EF78
:1028300014F01200DA0EF66E2D0EF76E000EF86E22
:1028400001EE00F010EE14F00900F5CFEEFFE550B8
:10285000E150FAE1FA0EF66E2B0EF76E000EF86EEE
:1028600000EEC5F010EE36F00900F5CFEEFFE550B2
:10287000E150FAE13A0EF66E2E0EF76E000EF86E8B
:102880000900F5CF5BF00900F5CF5CF001EE14F024
:102890000B0EEE6AE806FDE100EE60F0650EEE6AF2
:1028A000E806FDE100EE51F00A0EEE6AE806FDE1F1
:1028B0005D905D92000191EF13F0000E0D6E0550DA
:1028C0000610D8A466EF14F068EF14F06AEF14F065
:1028D0009BEF14F0000E0D6E8DEF14F005C002F0AA
:1028E00006C003F00D5007240B6E000E08200C6E7E
:1028F0000BC0F6FF0CC0F7FF000EF86E0F0EF7646A
:1029000003D00800F55005D0F6CFE9FFF7CFEAFF76
:10291000EF50046E66EC16F00D2A0D500B6E0C6A2B
:1029200009500B5C0A500C58D8A099EF14F09BEF9B
:1029300014F06EEF14F012000250D8B4A2EF14F0AD
:10294000A4EF14F0ACEF14F00450D8A4AAEF14F0E4
:10295000ACEF14F0AEEF14F0D0EF14F003C0C9FFE9
:10296000C7B0B5EF14F0B7EF14F0B0EF14F0C7B480
:10297000BCEF14F0BEEF14F0B0EF14F0C5BCC3EF21
:1029800014F0C5EF14F0CBEF14F00450D96EDA6AEE
:10299000DF6AD0EF14F00450D96EDA6A010EDF6EF0
:1029A0001200066E000E076E06500109056EE40E59
:1029B000026E4CEC16F0E40E026E06C003F05A0EE6
:1029C000046E9CEC14F0E40E026E000E036E5A0EC0
:1029D000046E9CEC14F0E40E026E7CEC16F0E40E37
:1029E000026E05C003F05A0E046E9CEC14F0E40E67
:1029F000026E010E036E070E046ED6EC13F0E40EA9
:102A0000026E32EC16F0075012000D50D8A40BEFF6
:102A100015F00DEF15F00FEF15F037EF15F059C069
:102A20000FF00D50D96EDA6ADF500F0B0E6E0F509B
:102A30000E18F80B0E180F6E0D50D96EDA6ADF38CB
:102A4000070B0E6E0E460E460E460F500E18C70BA5
:102A50000E180F6E0F9C0D50D96EDA6ADFAE02D0E1
:102A60000F8E01D00F9E0F0E0A6E68EC15F012004B
:102A7000000E0E6E000E0F6E0D50D8A442EF15F032
:102A800044EF15F046EF15F067EF15F0000E0E6EEF
:102A90000D500E240A6E68EC15F00E2A030E0E641B
:102AA00054EF15F056EF15F048EF15F0000E0F6ECD
:102AB0000D500F24040F0A6E68EC15F00F2A020E59
:102AC0000F6465EF15F067EF15F058EF15F0120081
:102AD000010E0C6E0A50D8B470EF15F072EF15F0BD
:102AE00082EF15F00A50D96EDA6ADF30E832E83248
:102AF000070B0B6E070E0B6480EF15F082EF15F0DD
:102B000086EF15F0000E0C6E95EF15F00AC002F07E
:102B100030EC10F00AC002F00A50D96EDA6A000EEA
:102B2000DFBE010E036EB9EC10F00C5012009D8652
:102B30009E96A086A196F28EF28C0250D96EDA6A29
:102B40000C0ED926DECF9CF0DDCF9DF00250D96E61
:102B5000DA6A0A0ED926DECF9EF0DDCF9FF0025052
:102B6000D96EDA6A0E0ED926DECF9AF0DDCF9BF051
:102B700012004F505010D8A4C0EF15F0C2EF15F05E
:102B8000C4EF15F0DAEF15F0AB9E948E948C4FC025
:102B900043F050C044F01AEC08F04FC002F050C0AF
:102BA00003F03AEC12F04FC002F050C003F0C4EC56
:102BB00011F0AB8E1200076EE40E026E4CEC16F0B4
:102BC000E40E026E07C003F05A0E046E9CEC14F083
:102BD000E40E026E05C003F05A0E046E9CEC14F075
:102BE000E40E026E06C003F05A0E046E9CEC14F064
:102BF000E40E026E32EC16F01200800F810F820F8D
:102C0000830F840F890F8A0F8B0F8C0F8D0F920FFC
:102C1000930F940F950F960F01A0860100010801F4
:102C2000000000000000000000030B131B636B7327
:102C3000066EE40E026E4CEC16F0E40E026E06C058
:102C400003F05A0E046E9CEC14F0E40E026E05C004
:102C500003F05A0E046E9CEC14F0E40E026E32EC9B
:102C600016F012000250D8A438EF16F03AEF16F022
:102C70003CEF16F04BEF16F0C584C5B442EF16F0EA
:102C800044EF16F03DEF16F0C7A849EF16F04BEFF2
:102C900016F03AEF16F012000250D8A452EF16F0D8
:102CA00054EF16F056EF16F065EF16F0C580C5B07C
:102CB0005CEF16F05EEF16F057EF16F0C7A663EF65
:102CC00016F065EF16F054EF16F0120002500310E4
:102CD000D8A46DEF16F06FEF16F071EF16F07BEFE2
:102CE00016F0ACA276EF16F078EF16F071EF16F052
:102CF00004C0ADFF9D8812000250D8A482EF16F0E8
:102D000084EF16F086EF16F08FEF16F0C582C5B28D
:102D10008CEF16F08EEF16F087EF16F09E961200ED
:102D2000000E056E010E066E0EC007F00FC008F013
:102D300010C009F011C00AF05DEC14F01200F7ECBD
:102D400016F0000E4F6E010E506EB9EC15F0E40E49
:102D5000456E9BEC0FF012000250D96EDA6A050E38
:102D6000D926DF50036EC6500318F00B0318C66E49
:102D70001200016EF2900104D8A4C1EF16F0C3EF67
:102D800016F0C5EF16F0C5EF16F01200016EF290C6
:102D90000104D8A4CEEF16F0D0EF16F0D2EF16F063
:102DA000D2EF16F01200016EF2900104D8A4DBEF0E
:102DB00016F0DDEF16F0DFEF16F0DFEF16F0120081
:102DC000016EF2900104D8A4E8EF16F0EAEF16F0D5
:102DD000ECEF16F0ECEF16F0120080250000000377
:102DE00000000000000000000000000000005C0E79
:102DF0000D6E05EC15F0F40E0D6E38EC15F01200AA
:102E0000948694881200A19212009E9212009E90C5
:102E10001200F29412009E961200A1961200F092F7
:102E20001200F0901200F29212009D981200A190F0
:0E2E300012009E9412009E9C1200FF031200DE
:020000040030CA
:0E000000FF02191FFF8181FF0FC00FE00F40AC
:00000001FF
