:040000008FEF00F08E
:100008005C82FACF01F0FBCF02F0F2AA0EEF00F00B
:1000180010EF00F019EF00F0F2A415EF00F017EF61
:1000280000F019EF00F083EC13F09DA01EEF00F034
:1000380020EF00F029EF00F09EA025EF00F027EF59
:1000480000F029EF00F081EC13F09DA22EEF00F0F4
:1000580030EF00F039EF00F09EA235EF00F037EFF7
:1000680000F039EF00F07FEC13F0A0A23EEF00F0B3
:1000780040EF00F049EF00F0A1A245EF00F047EF94
:1000880000F049EF00F07DEC13F09DA84EEF00F072
:1000980050EF00F059EF00F09EA855EF00F057EF31
:1000A80000F059EF00F087EC13F09DAA5EEF00F026
:1000B80060EF00F069EF00F09EAA65EF00F067EFCF
:1000C80000F069EF00F089EC13F09DA66EEF00F0E8
:1000D80070EF00F079EF00F09EA675EF00F077EF73
:1000E80000F079EF00F016EC13F0A0A67EEF00F018
:1000F80080EF00F089EF00F0A1A685EF00F087EF10
:1001080000F089EF00F085EC13F002C0FBFF01C09E
:0A011800FAFF5C921100B7EF11F03E
:10100000003738393435363132332A3023414C45B4
:101010005254212020202020202020005379737456
:10102000656D204E6F726D616C2100256C75002519
:0310300075000048
:101034002D50800B366E2D502D24386E2CAE25EF9E
:1010440008F027EF08F028EF08F038803850D8B4BB
:101054002EEF08F030EF08F045EF08F03828D8A458
:1010640036EF08F038EF08F040EF08F0000E2A6E73
:10107400000E2B6E000E2C6E000E2D6E2C8E000EAC
:101084002D6E4DEF08F0000E2A6E000E2B6E000E32
:101094002C6E000E2D6E3150800B376E3650371883
:1010A400D8B457EF08F059EF08F05AEF08F0368C2F
:1010B40031503124376E30AE62EF08F064EF08F03F
:1010C40065EF08F037803750D8B46BEF08F06DEF58
:1010D40008F082EF08F03728D8A473EF08F075EF12
:1010E40008F07DEF08F0000E2E6E000E2F6E000E3D
:1010F400306E000E316E308E000E316E8AEF08F0C5
:10110400000E2E6E000E2F6E000E306E000E316E2D
:101114003850375CD8B091EF08F093EF08F0BAEF8D
:1011240008F036AC98EF08F09AEF08F09CEF08F05E
:10113400800E361A38C039F037C038F039C037F06D
:101144002AC039F02EC02AF039C02EF02BC039F055
:101154002FC02BF039C02FF02CC039F030C02CF048
:1011640039C030F02DC039F031C02DF039C031F024
:10117400000E396E385037C032F0336A325E000EDA
:10118400335A33BECFEF08F0335009E11A0E325C04
:10119400D8A0CFEF08F0D1EF08F008EF09F02A50FB
:1011A4002B102C102D10D8A4DAEF08F0DDEF08F086
:1011B400010EDEEF08F0000E396E000E2A6E000EEE
:1011C4002B6E000E2C6E000E2D6E37C038F011EF12
:1011D40009F039A0F0EF08F0F2EF08F0F8EF08F0AA
:1011E400D89039300109396EFAEF08F0D8903932C5
:1011F4002AA0FFEF08F001EF09F002EF09F0398EA1
:101204002D342D322C322B322A32382A3750385C86
:10121400D8A00FEF09F011EF09F0EBEF08F036BC9E
:1012240016EF09F018EF09F058EF09F03850D8A478
:101234001EEF09F020EF09F02AEF09F0000E2A6EE4
:10124400000E2B6E000E2C6E000E2D6E79EF0AF040
:101254002E502A262F502B2230502C2231502D2252
:101264002DA037EF09F039EF09F0E5EF09F039A0C7
:101274003EEF09F040EF09F046EF09F0D89039301D
:101284000109396E48EF09F0D89039322AA04DEFA0
:1012940009F04FEF09F050EF09F0398E2D342D325B
:1012A4002C322B322A32382AE5EF09F02E502A5CF0
:1012B4002F502B5830502C582D50800A326E3150FC
:1012C400800A3258D8B069EF09F06BEF09F096EF55
:1012D40009F02A502E5C326E2B502F58336E2C504E
:1012E4003058346E2D503158356EFF0E32242A6E2C
:1012F400FF0E33202B6EFF0E34202C6EFF0E352094
:101304002D6E800E361A396C3950D8A48CEF09F042
:101314008EEF09F09EEF09F0010E2A26000E2B2213
:101324002C222D229EEF09F02E502A5E2F502B5A8C
:1013340030502C5A31502D5A2A502B102C102D106D
:10134400D8A4A7EF09F0A9EF09F0DEEF09F03950AE
:10135400D8A4AFEF09F0B1EF09F0DEEF09F0000E09
:101364002A6E000E2B6E000E2C6E000E2D6E79EF81
:101374000AF0D8902A362B362C362D3639AEC5EFE6
:1013840009F0C7EF09F0C8EF09F02A8039A0CDEFC2
:1013940009F0CFEF09F0D3EF09F0D8803936D5EF53
:1013A40009F0D89039363850D8B4DBEF09F0DDEFC6
:1013B40009F0DEEF09F038062CAEE3EF09F0E5EFB3
:1013C40009F0BBEF09F0000E376E39AEECEF09F00F
:1013D400EEEF09F006EF0AF039C032F07F0E321654
:1013E400D8B4F7EF09F0F9EF09F0FDEF09F0010EB9
:1013F400376E06EF0AF02AA002EF0AF004EF0AF0B3
:1014040006EF0AF0F9EF09F03750D8B40CEF0AF000
:101414000EEF0AF039EF0AF0010E2A26000E2B22F5
:101424002C222D222DA019EF0AF01BEF0AF039EF20
:101434000AF02AC032F02BC033F02CC034F02DC097
:1014440035F03534353234323332323232C02AF068
:1014540033C02BF034C02CF035C02DF03828D8B46C
:1014640036EF0AF038EF0AF039EF0AF0382A382854
:10147400D8B43FEF0AF041EF0AF049EF0AF03850D0
:10148400D8A447EF0AF049EF0AF05BEF0AF0000E28
:101494002A6E000E2B6E000E2C6E000E2D6E385030
:1014A400D8A457EF0AF059EF0AF05BEF0AF0000EE8
:1014B400366E38A060EF0AF062EF0AF065EF0AF0CA
:1014C4002C8E66EF0AF02C9ED89038302D6E36AEF6
:1014D4006EEF0AF070EF0AF071EF0AF02D8E2AC059
:1014E4002AF02BC02BF02CC02CF02DC02DF01200B4
:1014F4001450800B216E14501424286E13AE85EF03
:101504000AF087EF0AF088EF0AF028802850D8B450
:101514008EEF0AF090EF0AF0A5EF0AF02828D8A47D
:1015240096EF0AF098EF0AF0A0EF0AF0000E116EA1
:10153400000E126E000E136E000E146E138E000E4B
:10154400146EADEF0AF0000E116E000E126E000E56
:10155400136E000E146E1850800B211A18501824A4
:10156400296E17AEB8EF0AF0BAEF0AF0BBEF0AF033
:1015740029802950D8B4C1EF0AF0C3EF0AF0D8EF9C
:101584000AF02928D8A4C9EF0AF0CBEF0AF0D3EF68
:101594000AF0000E156E000E166E000E176E000E89
:1015A400186E178E000E186EE0EF0AF0000E156E1E
:1015B400000E166E000E176E000E186E15501610E3
:1015C40017101810D8A4E9EF0AF0EBEF0AF003EFB4
:1015D4000BF0000E116E000E126E000E136E000E54
:1015E400146E800E13127F0E14122150141211C0A7
:1015F40011F012C012F013C013F014C014F046EF2F
:101604000CF02850D8A409EF0BF00BEF0BF015EFFA
:101614000BF0000E116E000E126E000E136E000E13
:10162400146E46EF0CF0295028C019F01A6A195E9E
:10163400000E1A5A7F0E1924226E000E1A20236EF1
:1016440011C01DF012C01EF013C01FF014C020F012
:10165400000E116E000E126E000E136E000E146E4C
:10166400000E246E000E256E000E266E000E276EF0
:10167400000E296E76EF0BF02950D8B444EF0BF02E
:1016840046EF0BF05DEF0BF0D8901D361E361F367B
:101694002036D890113612361336143627AE55EF4D
:1016A4000BF057EF0BF058EF0BF01180D890243665
:1016B40025362636273615501D5C16501E581750F1
:1016C4001F5818502058D8A06AEF0BF06CEF0BF09D
:1016D40075EF0BF0278C15501D5E16501E5A1750CF
:1016E4001F5A1850205A292A190E29647CEF0BF02E
:1016F4007EEF0BF03EEF0BF01D501E101F1020105C
:10170400D8B487EF0BF089EF0BF0A1EF0BF0248036
:10171400A1EF0BF0D890113612361336143627AEDB
:1017240096EF0BF098EF0BF099EF0BF01180D89037
:1017340024362536263627362206D8A0230613AEAD
:10174400A6EF0BF0A8EF0BF08CEF0BF0000E296E58
:1017540027AEAFEF0BF0B1EF0BF0D5EF0BF0FF0EB0
:101764002414196EFF0E25141A6EFF0E26141B6E18
:101774007F0E27141C6E19501A101B101C10D8B49D
:10178400C6EF0BF0C8EF0BF0CCEF0BF0010E296E97
:10179400D5EF0BF011A0D1EF0BF0D3EF0BF0D5EF99
:1017A4000BF0C8EF0BF02950D8B4DBEF0BF0DDEFF2
:1017B4000BF001EF0CF0010E1126000E1222132281
:1017C400142214A0E8EF0BF0EAEF0BF001EF0CF099
:1017D40011C019F012C01AF013C01BF014C01CF091
:1017E4001C341C321B321A32193219C011F01AC0BF
:1017F40012F01BC013F01CC014F0224A232A23BE8B
:101804000CEF0CF0235008E12228D8A00CEF0CF0C8
:101814000EEF0CF019EF0CF0000E236E2268000E90
:10182400116E000E126E000E136E000E146E23BEA7
:1018340026EF0CF0235006E12204D8B024EF0CF07C
:1018440026EF0CF034EF0CF0000E236E000E226E27
:10185400000E116E000E126E000E136E000E146E4A
:10186400000E216E22C028F028A03BEF0CF03DEFC3
:101874000CF040EF0CF0138E41EF0CF0139ED89057
:101884002830146EF7EF0AF012000B6E0B50D8B428
:101894004EEF0CF050EF0CF072EF0CF006BE57EF69
:1018A4000CF055EF0CF072EF0CF003C007F004C01D
:1018B40008F005C009F006C00AF0071E081E091E3C
:1018C4000A1E072A000E082209220A2207C00DF068
:1018D40008C00EF009C00FF00AC010F07AEF0CF047
:1018E40003C00DF004C00EF005C00FF006C010F0E8
:1018F4000350041005100610D8A483EF0CF085EFF4
:101904000CF08FEF0CF0000E036E000E046E000E50
:10191400056E000E066E20EF0DF0960E0C6E99EF1C
:101924000CF00C2AD89010320F320E320D32000E09
:101934000D14076E000E0E14086E000E0F14096EBF
:10194400FE0E10140A6E0750081009100A10D8A4CD
:10195400AEEF0CF0B0EF0CF093EF0CF0BEEF0CF028
:101964000C2A010E0D26000E0E220F221022D890F2
:1019740010320F320E320D32000E0D14076E000EAF
:101984000E14086E000E0F14096EFF0E10140A6E6A
:101994000750081009100A10D8A4D3EF0CF0D5EFA3
:1019A4000CF0B2EF0CF0DDEF0CF00C06D8900D3615
:1019B4000E360F3610360FBEE2EF0CF0E4EF0CF0EB
:1019C400ECEF0CF0020E0C60EAEF0CF0ECEF0CF014
:1019D400D7EF0CF00CB0F1EF0CF0F3EF0CF0F4EFE8
:1019E4000CF00F9ED8900C320CC007F0086A096AFC
:1019F4000A6A07C00AF0096A086A076A07500D12E2
:101A040008500E1209500F120A5010120B50D8B47D
:101A14000EEF0DF010EF0DF018EF0DF006BE17EFFE
:101A24000DF015EF0DF018EF0DF0108E0DC003F052
:101A34000EC004F00FC005F010C006F012004650AE
:101A4400D8A427EF0DF029EF0DF02BEF0DF0B5EF33
:101A54000DF0C69A4650D96EDA6A040ED926DE0411
:101A6400D8A437EF0DF039EF0DF03FEF0DF046C07D
:101A740044F02DEC10F076EF0DF04650D96EDA6A92
:101A8400040ED926DF50D8A44AEF0DF04CEF0DF028
:101A940076EF0DF04650D96EDA6A060ED926DFA429
:101AA40056EF0DF058EF0DF05BEF0DF0C58E68EFBB
:101AB4000DF04650D96EDA6A060ED926DFB465EF0A
:101AC4000DF067EF0DF068EF0DF0C59EC69EC69C45
:101AD400C6884650D96EDA6A070ED926DF50C86E1A
:101AE40046C003F063EC13F07AEC13F04650D96E61
:101AF400DA6A060ED926DFB082EF0DF084EF0DF01E
:101B040087EF0DF0C79E94EF0DF04650D96EDA6A58
:101B1400060ED926DFA091EF0DF093EF0DF094EFB0
:101B24000DF0C78E4650D96EDA6A060ED926DFA2AA
:101B34009EEF0DF0A0EF0DF0A3EF0DF0C78CB0EF0A
:101B44000DF04650D96EDA6A060ED926DFB2ADEF33
:101B54000DF0AFEF0DF0B0EF0DF0C79C46C003F0F1
:101B640075EC12F0C68A1200010E096E0350D8B447
:101B7400BEEF0DF0C0EF0DF0D0EF0DF00350D96EB5
:101B8400DA6ADF30E832E832070B046E070E0464C9
:101B9400CEEF0DF0D0EF0DF027EF0EF0000E096E32
:101BA4003DEF0EF00350D96EDA6ADF30E832E832E6
:101BB400070B046E010E056E042AE3EF0DF0D890B6
:101BC4000536042EE1EF0DF00550FF0A066E0350B2
:101BD400D96EDA6ADF50070B020DF350C10FD96ECC
:101BE400DA6ADECF07F0DDCF08F007C0D9FF08C0FE
:101BF400DAFF0650DF163DEF0EF00350D96EDA6AB5
:101C0400DF30E832E832070B046E010E056E042A59
:101C14000EEF0EF0D8900536042E0CEF0EF00350A4
:101C2400D96EDA6ADF50070B020DF350C10FD96E7B
:101C3400DA6ADECF06F0DDCF07F006C0D9FF07C0B1
:101C4400DAFF0550DF123DEF0EF00350D96EDA6A69
:101C5400DFBC2FEF0EF032EF0EF0010E33EF0EF07B
:101C6400000E000AD8B4D4EF0DF0010AD8B4FFEF87
:101C74000DF0D0EF0DF009501200010E0A6E035062
:101C8400D8B447EF0EF049EF0EF059EF0EF00350C1
:101C9400D96EDA6ADF30E832E832070B056E070ED8
:101CA400056457EF0EF059EF0EF0B0EF0EF0000E92
:101CB4000A6EC5EF0EF00350D96EDA6ADF30E832EF
:101CC400E832070B056E010E066E052A6CEF0EF066
:101CD400D8900636052E6AEF0EF00650FF0A076EFE
:101CE4000350D96EDA6ADF50070B020DF350B70FB9
:101CF400D96EDA6ADECF08F0DDCF09F008C0D9FF6B
:101D040009C0DAFF0750DF16C5EF0EF00350D96E95
:101D1400DA6ADF30E832E832070B056E010E066E30
:101D2400052A97EF0EF0D8900636052E95EF0EF0A3
:101D34000350D96EDA6ADF50070B020DF350B70F68
:101D4400D96EDA6ADECF07F0DDCF08F007C0D9FF1D
:101D540008C0DAFF0650DF12C5EF0EF00450056E1E
:101D6400066A0650000AD8B4BAEF0EF059EF0EF026
:101D74000550000AD8B45DEF0EF0010AD8B488EF1C
:101D84000EF059EF0EF00A5012003C343D34436E0D
:101D94004350D8A4D0EF0EF0D2EF0EF0DCEF0EF0EB
:101DA400000E3A6E000E3B6E000E3C6E000E3D6E51
:101DB40049EF0FF03AC03EF03BC03FF03CC040F06A
:101DC4003DC041F0200EECEF0EF0D890413240328D
:101DD4003F323E32E82EE7EF0EF03E50426E3C8E2C
:101DE400FF0E3A16FF0E3B16FF0E3C16000E3D1674
:101DF400960E435E43BE03EF0FF001EF0FF019EFB1
:101E04000FF04350800A970FD8B00BEF0FF00DEF8F
:101E14000FF00FEF0FF0D2EF0EF0D8903D323C32BE
:101E24003B323A32433E0FEF0FF031EF0FF01F0E0B
:101E340043641FEF0FF021EF0FF029EF0FF0D2EF03
:101E44000EF0D8903A363B363C363D364306435086
:101E5400D8A42FEF0FF031EF0FF023EF0FF0425023
:101E6400D8B437EF0FF039EF0FF041EF0FF03D1E0C
:101E74003C1E3B1E3A6C000E3B223C223D223AC0E3
:101E84003AF03BC03BF03CC03CF03DC03DF012009A
:101E9400000E156E1150D8A452EF0FF054EF0FF04E
:101EA40056EF0FF0C4EF0FF011C00BF018EC12F066
:101EB400146E11280B6E18EC12F0146E000E156ED1
:101EC40011501524020F0B6E18EC12F0152A030E94
:101ED40015646FEF0FF071EF0FF062EF0FF0680E03
:101EE400126EE40EE82EFED7122EFCD700F000F09E
:101EF40011C00EF0380E0F6EE8EC11F01A0E126ECF
:101F0400F80EE82EFED7122EFCD700F000F011C018
:101F14000EF0380E0F6EE8EC11F0040E136E0C0E7A
:101F2400126E340EE82EFED7122EFCD7132EFAD7DB
:101F340011C00EF0380E0F6EE8EC11F011C00EF067
:101F4400010E0F6EE8EC11F011C00EF0020E0F6ED0
:101F5400E8EC11F011C00EF0060E0F6EE8EC11F073
:101F640011C00EF00C0E0F6EE8EC11F011C00EF063
:101F7400280E0F6EE8EC11F011C00EF0800E0F6EFB
:101F8400E8EC11F0120070EC13F02C0E4D64CDEF60
:101F94000FF0CFEF0FF0E7EF0FF0590E0B6ED1EC0F
:101FA40012F0570E0B6ED1EC12F05B0E0B6EE8ECD8
:101FB40010F0DB0E156E010E166E010E176E0D0E6F
:101FC400186E78EC10F01DEF10F0230E4D64EDEF59
:101FD4000FF0EFEF0FF007EF10F0590E0B6EE8EC77
:101FE40012F0570E0B6EE8EC12F05B0E0B6E1DEC4C
:101FF40011F0DB0E156E010E166E010E176E1C0E1F
:10200400186E78EC10F01DEF10F0590E0B6EFFEC0B
:1020140012F0570E0B6EFFEC12F05B0E0B6E1DEC04
:1020240011F0DB0E156E010E166E010E176E1C0EEE
:10203400186E78EC10F0030E0001E26F080EE16FE9
:10204400770EE82EFED7E12FFCD7E22FFAD7C7EFA1
:102054000FF08FEF00F04450D96EDA6A050ED926DE
:10206400DF50456EC6504518F00B4518C66E000E7D
:102074002E6E000E2F6E800E306EBF0E316E4450E9
:10208400D96EDA6ADECF03F0DECF04F0DECF05F0DE
:10209400DECF06F0000E47EC0CF003C015F004C0D0
:1020A40016F005C017F006C018F0000E116E240ECD
:1020B400126E740E136E4A0E146E7AEC0AF011C08E
:1020C4002AF012C02BF013C02CF014C02DF01AEC1F
:1020D40008F02AC03AF02BC03BF02CC03CF02DC0D5
:1020E4003DF0C7EC0EF03A50C86E12001550D8B44B
:1020F4007EEF10F080EF10F088EF10F01850D8A4A5
:1021040086EF10F088EF10F08AEF10F0B0EF10F0C7
:1021140015C011F016C012F017C013F085EC11F0C1
:10212400A1EF10F015C00EF018C0F6FF100EF76EF8
:10213400F86A0800F5CF0FF047EC12F0182A18C01F
:10214400F6FF100EF76EF86A0800F5500009D8A4DF
:10215400AEEF10F0B0EF10F094EF10F012000B504F
:10216400D8A4B7EF10F0B9EF10F0BDEF10F0000EE7
:102174000D6EE6EF10F00B50020F036E0C50010BC6
:10218400046E3FEC0EF00D6E0B50030F036ED890EF
:102194000C30010B046E3FEC0EF00D6E0B50040F6F
:1021A400036E0C40E8423F0B010B046E3FEC0EF053
:1021B4000D6E0B50050F036E0C38E8461F0B010B18
:1021C400046E3FEC0EF00D6E0D5012000B50D8A4AF
:1021D400EEEF10F0F0EF10F0F2EF10F01CEF11F052
:1021E40050C00DF00B50D96EDA6ADF500F0B0C6E35
:1021F4000D500C18F80B0C180D6E0B50D96EDA6AD2
:10220400DF38070B0C6E0C460C460C460D500C18B0
:10221400C70B0C180D6E0D9C0B50D96EDA6ADFAE2D
:1022240002D00D8E01D00D9E0D0E036E010E046EB4
:102234003FEC0EF012000B50D8A423EF11F025EF61
:1022440011F027EF11F051EF11F04FC00DF00B50CA
:10225400D96EDA6ADF500F0B0C6E0D500C18F80BA8
:102264000C180D6E0B50D96EDA6ADF38070B0C6E42
:102274000C460C460C460D500C18C70B0C180D6E72
:102284000D9C0B50D96EDA6ADFAE02D00D8E01D0F0
:102294000D9E0D0E036E000E046E3FEC0EF0120048
:1022A4000E50D8A458EF11F05AEF11F05CEF11F072
:1022B40084EF11F051C010F00E50D96EDA6ADF507D
:1022C4000F0B0F6E10500F18F80B0F18106E0E50E6
:1022D400D96EDA6ADF38070B0F6E0F460F460F46CA
:1022E40010500F18C70B0F18106E109C0E50D96E9B
:1022F400DA6ADFAE02D0108E01D0109E100E0B6E83
:1023040018EC12F01200000E146E1150D8A48DEFC8
:1023140011F08FEF11F093EF11F0000E146EB5EF82
:1023240011F01306AAEF11F011C00EF01350800F34
:102334000F6EE8EC11F0146EB5EF11F011C00EF051
:102344001350C00F0F6EE8EC11F0146EB5EF11F0DE
:102354001250010AD8B496EF11F0030AD8B4A0EFD2
:1023640011F0B5EF11F0145012006E0EF66E250E3A
:10237400F76E000EF86E00EEADF010EE34F00900CA
:10238400F5CFEEFFE550E150FAE1EE0EF66E260EC3
:10239400F76E000EF86E00EE56F010EE06F009002F
:1023A400F5CFEEFFE550E150FAE100EE60F04D0E9E
:1023B400EE6AE806FDE100EE48F00E0EEE6AE8066D
:1023C400FDE15C905C920001C5EF0FF00E50D8A4C3
:1023D400EEEF11F0F0EF11F0F4EF11F0000E106ECB
:1023E40016EF12F00EC003F0000E046E3FEC0EF078
:1023F400106E0EC00BF00F380F0B0C6EB1EC10F01A
:10240400106E0EC00BF097EC12F0106E0EC00BF0B5
:102414000FC00CF0B1EC10F0106E0EC00BF097EC86
:1024240012F0106E010E106E10501200010E0D6E9F
:102434000B50D8B420EF12F022EF12F032EF12F06A
:102444000B50D96EDA6ADF30E832E832070B0C6ED3
:10245400070E0C6430EF12F032EF12F036EF12F088
:10246400000E0D6E45EF12F00BC003F0B6EC0DF04C
:102474000BC003F00B50D96EDA6A000EDFBE010EFA
:10248400046E3FEC0EF00D5012000E50D8A44DEF28
:1024940012F04FEF12F053EF12F0000E106E73EFC4
:1024A40012F00EC003F0010E046E3FEC0EF0106E3D
:1024B4000EC00BF00F380F0B0C6EB1EC10F0106E59
:1024C4000EC00BF097EC12F0106E0EC00BF00FC0A4
:1024D4000CF0B1EC10F0106E0EC00BF097EC12F093
:1024E400106E105012009D869E96A086A196F28EC4
:1024F400F28C0350D96EDA6A0C0ED926DECF48F07E
:10250400DDCF49F00350D96EDA6A0A0ED926DECF40
:102514009BF0DDCF9CF00350D96EDA6A0E0ED926FB
:10252400DECF99F0DDCF9AF012000B50D8A49DEFC6
:1025340012F09FEF12F0A3EF12F0000E0C6EB5EF45
:1025440012F00B28036E010E046E3FEC0EF0060E23
:10255400E82EFED700F000F00B28036E000E046E88
:102564003FEC0EF00C6E0C501200800F810F820FA6
:10257400830F840F890F8A0F8B0F8C0F8D0F920F8F
:10258400930F940F950F960FA0860100000E007014
:1025940000000000802600000B131B232B330B507C
:1025A400D8A4D7EF12F0D9EF12F0DBEF12F0E7EF77
:1025B40012F00BC003F0000E046E3FEC0EF00B287B
:1025C400036E000E046E3FEC0EF012000B50D8A404
:1025D400EEEF12F0F0EF12F0F2EF12F0FEEF12F065
:1025E4000BC003F0010E046E3FEC0EF00B28036EDB
:1025F400000E046E3FEC0EF012000B50D8A405EF51
:1026040013F007EF13F009EF13F015EF13F00BC0FD
:1026140003F0000E046E3FEC0EF00B28036E010E67
:10262400046E3FEC0EF012009E9648504910D8B448
:102634001EEF13F020EF13F02CEF13F002D82CEF61
:1026440013F00500FA6E4850FD6E4950FE6EFF6AA5
:10265400FA50120012000E50D8A433EF13F035EFE5
:1026640013F037EF13F03FEF13F00EC00BF018EC3C
:1026740012F00E280B6E18EC12F01200C7B445EFDE
:1026840013F047EF13F051EF13F0C7A04CEF13F022
:102694004EEF13F051EF13F0C9CF4DF0C68812007E
:1026A4005B0E0E6E52EC11F0590E0E6E2DEC13F003
:1026B400570E0E6E2DEC13F0DB0E116E4AEC0FF07C
:1026C40012000350D96EDA6A050ED926DF50046E63
:1026D400C6500418F00B0418C66E120052EC13F026
:1026E400CB0E466E21EC0DF0120001122A020A03F1
:1026F400948694881200A19212009E9212009E90D9
:102704001200F2941200A19612009D981200120079
:020000040030CA
:0E000000FF02191FFF8181FF0FC00FE00F40AC
:00000001FF
