:04000000C7EF00F056
:100008005E82F2A80AEF00F00CEF00F015EF00F0A6
:10001800F2A211EF00F013EF00F015EF00F0ECEC96
:1000280013F0F2A61AEF00F01CEF00F036EF00F024
:10003800F2A021EF00F023EF00F036EF00F07DA8EA
:1000480028EF00F02AEF00F036EF00F081A82FEF3C
:1000580000F031EF00F036EF00F0010ECFEC13F0B6
:1000680055EF00F0F2A63BEF00F03DEF00F055EF42
:1000780000F0F2A042EF00F044EF00F055EF00F07E
:100088007DA849EF00F04BEF00F055EF00F081B884
:1000980050EF00F052EF00F055EF00F0000ECFECFB
:1000A80013F09DAC5AEF00F05CEF00F065EF00F044
:1000B8009EAC61EF00F063EF00F065EF00F0F2EC4A
:1000C80013F0F2AA6AEF00F06CEF00F075EF00F0A1
:1000D800F2A471EF00F073EF00F075EF00F0EAECB6
:1000E80013F09DA07AEF00F07CEF00F085EF00F0B0
:1000F8009EA081EF00F083EF00F085EF00F0E8ECC0
:1001080013F09DA28AEF00F08CEF00F095EF00F05D
:100118009EA291EF00F093EF00F095EF00F0E6EC6F
:1001280013F0A0A29AEF00F09CEF00F0A5EF00F00A
:10013800A1A2A1EF00F0A3EF00F0A5EF00F0E4EC1E
:1001480013F09DA4AAEF00F0ACEF00F0B5EF00F0BB
:100158009EA4B1EF00F0B3EF00F0B5EF00F0F0ECC3
:1001680013F0A0A0BAEF00F0BCEF00F0C5EF00F06C
:10017800A1A0C1EF00F0C3EF00F0C5EF00F0EEEC76
:0A01880013F05E92110036EF13F041
:10100000003738392F3435362A3132332D23303DED
:101010002B4C6564204F46460D004C6564204F4EB6
:101020000D00256C750025750000000E3C6E000E4D
:101030003D6E000E3E6E000E3F6E3950D8A423EF79
:1010400008F025EF08F03DEF0AF086EF0AF0AC98C3
:10105000AC94B8963950D96EDA6ADECF02F0DECFA2
:1010600003F0DECF04F0DECF05F0000EB4EC0EF09E
:1010700002C014F003C015F004C016F005C017F04C
:10108000000E106E240E116EF40E126E4A0E136EC8
:10109000E7EC0CF010C040F011C041F012C042F07B
:1010A00013C043F0000E146E000E156E800E166E07
:1010B000420E176E40C010F041C011F042C012F055
:1010C00043C013F0E7EC0CF010C029F011C02AF077
:1010D00012C02BF013C02CF0000E2D6E000E2E6EE1
:1010E000800E2F6EBF0E306E87EC0AF029C03CF0E8
:1010F0002AC03DF02BC03EF02CC03FF067EF0AF055
:10110000AC98AC84B8963950D96EDA6ADECF02F06A
:10111000DECF03F0DECF04F0DECF05F0000EB4EC3E
:101120000EF002C014F003C015F004C016F005C0A4
:1011300017F0000E106E240E116EF40E126E4A0E91
:10114000136EE7EC0CF010C040F011C041F012C07B
:1011500042F013C043F0000E146E000E156E800EA8
:10116000166E410E176E40C010F041C011F042C023
:1011700012F043C013F0E7EC0CF010C029F011C0DE
:101180002AF012C02BF013C02CF0000E2D6E000EB2
:101190002E6E800E2F6EBF0E306E87EC0AF029C0C7
:1011A0003CF02AC03DF02BC03EF02CC03FF07EEF5B
:1011B00008F0AC98AC94B8863950D96EDA6ADECFB4
:1011C00002F0DECF03F0DECF04F0DECF05F0000E3C
:1011D000B4EC0EF002C014F003C015F004C016F019
:1011E00005C017F0000E106E240E116EF40E126E74
:1011F0004A0E136EE7EC0CF010C040F011C041F045
:1012000012C042F013C043F0000E146E000E156EB3
:10121000800E166E410E176E40C010F041C011F0E6
:1012200042C012F043C013F0E7EC0CF010C029F0FC
:1012300011C02AF012C02BF013C02CF0000E2D6E3E
:10124000000E2E6E800E2F6EBF0E306E87EC0AF0F1
:1012500029C03CF02AC03DF02BC03EF02CC03FF02E
:101260007EEF08F0AC98AC84B8863950D96EDA6A53
:10127000DECF02F0DECF03F0DECF04F0DECF05F0EC
:10128000000EB4EC0EF002C014F003C015F004C060
:1012900016F005C017F0000E106E240E116EF40E3D
:1012A000126E4A0E136EE7EC0CF010C040F011C045
:1012B00041F012C042F013C043F0000E146E000E55
:1012C000156E800E166E400E176E40C010F041C0B5
:1012D00011F042C012F043C013F0E7EC0CF010C064
:1012E00029F011C02AF012C02BF013C02CF0000E10
:1012F0002D6E000E2E6E800E2F6EBF0E306E87ECA0
:101300000AF029C03CF02AC03DF02BC03EF02CC0B2
:101310003FF07EEF08F0AC88B8963950D96EDA6AA3
:10132000DECF02F0DECF03F0DECF04F0DECF05F03B
:10133000000EB4EC0EF002C014F003C015F004C0AF
:1013400016F005C017F0000E106E240E116EF40E8C
:10135000126E4A0E136EE7EC0CF010C040F011C094
:1013600041F012C042F013C043F0000E146E000EA4
:10137000156E800E166E400E176E40C010F041C004
:1013800011F042C012F043C013F0E7EC0CF010C0B3
:1013900029F011C02AF012C02BF013C02CF0000E5F
:1013A0002D6E000E2E6E800E2F6EBF0E306E87ECEF
:1013B0000AF029C03CF02AC03DF02BC03EF02CC002
:1013C0003FF07EEF08F0AC88B8863950D96EDA6A03
:1013D000DECF02F0DECF03F0DECF04F0DECF05F08B
:1013E000000EB4EC0EF002C014F003C015F004C0FF
:1013F00016F005C017F0000E106E240E116EF40EDC
:10140000126E4A0E136EE7EC0CF010C040F011C0E3
:1014100041F012C042F013C043F0000E146E000EF3
:10142000156E800E166E400E176E40C010F041C053
:1014300011F042C012F043C013F0E7EC0CF010C002
:1014400029F011C02AF012C02BF013C02CF0000EAE
:101450002D6E000E2E6E800E2F6EBF0E306E87EC3E
:101460000AF029C03CF02AC03DF02BC03EF02CC051
:101470003FF07EEF08F067EF0AF03950D96EDA6A74
:10148000040ED926DF503A6E3B6A3B50000AD8B4AE
:101490004CEF0AF03BEF0AF03A50000AD8B427EFBD
:1014A00008F0010AD8B480EF08F0030AD8B4D9EFE5
:1014B00008F0010AD8B432EF09F0070AD8B48BEF6C
:1014C00009F0010AD8B4E3EF09F03BEF0AF03CC0A1
:1014D00002F03DC003F03EC004F03FC005F09FECB9
:1014E00010F00250AF6E3CC002F03DC003F03EC0B1
:1014F00004F03FC005F09FEC10F003C002F004C000
:1015000003F005C004F0056A0250B06E12002C50C2
:10151000800B356E2C502C24376E2BAE92EF0AF0D8
:1015200094EF0AF095EF0AF037803750D8B49BEF6C
:101530000AF09DEF0AF0B2EF0AF03728D8A4A3EF23
:101540000AF0A5EF0AF0ADEF0AF0000E296E000ECA
:101550002A6E000E2B6E000E2C6E2B8E000E2C6E43
:10156000BAEF0AF0000E296E000E2A6E000E2B6EE6
:10157000000E2C6E3050800B366E35503618D8B4B5
:10158000C4EF0AF0C6EF0AF0C7EF0AF0358C30500E
:101590003024366E2FAECFEF0AF0D1EF0AF0D2EF43
:1015A0000AF036803650D8B4D8EF0AF0DAEF0AF0F5
:1015B000EFEF0AF03628D8A4E0EF0AF0E2EF0AF0E5
:1015C000EAEF0AF0000E2D6E000E2E6E000E2F6E4A
:1015D000000E306E2F8E000E306EF7EF0AF0000E08
:1015E0002D6E000E2E6E000E2F6E000E306E3750D8
:1015F000365CD8B0FEEF0AF000EF0BF027EF0BF0EF
:1016000035AC05EF0BF007EF0BF009EF0BF0800E98
:10161000351A37C038F036C037F038C036F029C038
:1016200038F02DC029F038C02DF02AC038F02EC077
:101630002AF038C02EF02BC038F02FC02BF038C065
:101640002FF02CC038F030C02CF038C030F0000E35
:10165000386E375036C031F0326A315E000E325A81
:1016600032BE3CEF0BF0325009E11A0E315CD8A0CB
:101670003CEF0BF03EEF0BF075EF0BF029502A100A
:101680002B102C10D8A447EF0BF04AEF0BF0010EF3
:101690004BEF0BF0000E386E000E296E000E2A6E16
:1016A000000E2B6E000E2C6E36C037F07EEF0BF066
:1016B00038A05DEF0BF05FEF0BF065EF0BF0D8900B
:1016C00038300109386E67EF0BF0D890383229A016
:1016D0006CEF0BF06EEF0BF06FEF0BF0388E2C34DD
:1016E0002C322B322A322932372A3650375CD8A096
:1016F0007CEF0BF07EEF0BF058EF0BF035BC83EF77
:101700000BF085EF0BF0C5EF0BF03750D8A48BEF43
:101710000BF08DEF0BF097EF0BF0000E296E000E23
:101720002A6E000E2B6E000E2C6EE6EF0CF02D5084
:1017300029262E502A222F502B2230502C222CA02A
:10174000A4EF0BF0A6EF0BF052EF0CF038A0ABEFCC
:101750000BF0ADEF0BF0B3EF0BF0D8903830010980
:10176000386EB5EF0BF0D890383229A0BAEF0BF0F5
:10177000BCEF0BF0BDEF0BF0388E2C342C322B323B
:101780002A322932372A52EF0CF02D50295C2E5084
:101790002A582F502B582C50800A316E3050800A16
:1017A0003158D8B0D6EF0BF0D8EF0BF003EF0CF0B8
:1017B00029502D5C316E2A502E58326E2B502F58E6
:1017C000336E2C503058346EFF0E3124296EFF0ECC
:1017D00032202A6EFF0E33202B6EFF0E34202C6E2B
:1017E000800E351A386C3850D8A4F9EF0BF0FBEFA7
:1017F0000BF00BEF0CF0010E2926000E2A222B22F3
:101800002C220BEF0CF02D50295E2E502A5A2F500F
:101810002B5A30502C5A29502A102B102C10D8A497
:1018200014EF0CF016EF0CF04BEF0CF03850D8A47E
:101830001CEF0CF01EEF0CF04BEF0CF0000E296EBD
:10184000000E2A6E000E2B6E000E2C6EE6EF0CF0D2
:10185000D89029362A362B362C3638AE32EF0CF09B
:1018600034EF0CF035EF0CF0298038A03AEF0CF093
:101870003CEF0CF040EF0CF0D880383642EF0CF023
:10188000D89038363750D8B448EF0CF04AEF0CF007
:101890004BEF0CF037062BAE50EF0CF052EF0CF084
:1018A00028EF0CF0000E366E38AE59EF0CF05BEFFF
:1018B0000CF073EF0CF038C031F07F0E3116D8B455
:1018C00064EF0CF066EF0CF06AEF0CF0010E366E70
:1018D00073EF0CF029A06FEF0CF071EF0CF073EFC9
:1018E0000CF066EF0CF03650D8B479EF0CF07BEFCB
:1018F0000CF0A6EF0CF0010E2926000E2A222B2256
:101900002C222CA086EF0CF088EF0CF0A6EF0CF048
:1019100029C031F02AC032F02BC033F02CC034F093
:101920003434343233323232313231C029F032C0C1
:101930002AF033C02BF034C02CF03728D8B4A3EFF2
:101940000CF0A5EF0CF0A6EF0CF0372A3728D8B42E
:10195000ACEF0CF0AEEF0CF0B6EF0CF03750D8A4B3
:10196000B4EF0CF0B6EF0CF0C8EF0CF0000E296EDF
:10197000000E2A6E000E2B6E000E2C6E3750D8A46F
:10198000C4EF0CF0C6EF0CF0C8EF0CF0000E356E93
:1019900037A0CDEF0CF0CFEF0CF0D2EF0CF02B8E88
:1019A000D3EF0CF02B9ED89037302C6E35AEDBEF9A
:1019B0000CF0DDEF0CF0DEEF0CF02C8E29C029F0DE
:1019C0002AC02AF02BC02BF02CC02CF01200135090
:1019D000800B206E13501324276E12AEF2EF0CF022
:1019E000F4EF0CF0F5EF0CF027802750D8B4FBEFA4
:1019F0000CF0FDEF0CF012EF0DF02728D8A403EF48
:101A00000DF005EF0DF00DEF0DF0000E106E000E55
:101A1000116E000E126E000E136E128E000E136EFB
:101A20001AEF0DF0000E106E000E116E000E126E09
:101A3000000E136E1750800B201A17501724286EB3
:101A400016AE25EF0DF027EF0DF028EF0DF02880F2
:101A50002850D8B42EEF0DF030EF0DF045EF0DF01B
:101A60002828D8A436EF0DF038EF0DF040EF0DF038
:101A7000000E146E000E156E000E166E000E176E20
:101A8000168E000E176E4DEF0DF0000E146E000E48
:101A9000156E000E166E000E176E145015101610EF
:101AA0001710D8A456EF0DF058EF0DF070EF0DF0B1
:101AB000000E106E000E116E000E126E000E136EF0
:101AC000800E12127F0E13122050131210C010F04D
:101AD00011C011F012C012F013C013F0B3EF0EF0EA
:101AE0002750D8A476EF0DF078EF0DF082EF0DF0CF
:101AF000000E106E000E116E000E126E000E136EB0
:101B0000B3EF0EF0285027C018F0196A185E000EC7
:101B1000195A7F0E1824216E000E1920226E10C053
:101B20001CF011C01DF012C01EF013C01FF0000EFB
:101B3000106E000E116E000E126E000E136E000E6F
:101B4000236E000E246E000E256E000E266E000E13
:101B5000286EE3EF0DF02850D8B4B1EF0DF0B3EFDD
:101B60000DF0CAEF0DF0D8901C361D361E361F360C
:101B7000D890103611361236133626AEC2EF0DF05D
:101B8000C4EF0DF0C5EF0DF01080D8902336243649
:101B90002536263614501C5C15501D5816501E58FC
:101BA00017501F58D8A0D7EF0DF0D9EF0DF0E2EF86
:101BB0000DF0268C14501C5E15501D5A16501E5ADE
:101BC00017501F5A282A190E2864E9EF0DF0EBEF81
:101BD0000DF0ABEF0DF01C501D101E101F10D8B4EF
:101BE000F4EF0DF0F6EF0DF00EEF0EF023800EEF98
:101BF0000EF0D890103611361236133626AE03EF9B
:101C00000EF005EF0EF006EF0EF01080D8902336A0
:101C10002436253626362106D8A0220612AE13EF2A
:101C20000EF015EF0EF0F9EF0DF0000E286E26AE57
:101C30001CEF0EF01EEF0EF042EF0EF0FF0E23141D
:101C4000186EFF0E2414196EFF0E25141A6E7F0EE7
:101C500026141B6E185019101A101B10D8B433EF2D
:101C60000EF035EF0EF039EF0EF0010E286E42EF58
:101C70000EF010A03EEF0EF040EF0EF042EF0EF02F
:101C800035EF0EF02850D8B448EF0EF04AEF0EF0C2
:101C90006EEF0EF0010E1026000E112212221322FA
:101CA00013A055EF0EF057EF0EF06EEF0EF010C0D0
:101CB00018F011C019F012C01AF013C01BF01B3439
:101CC0001B321A321932183218C010F019C011F034
:101CD0001AC012F01BC013F0214A222A22BE79EF4B
:101CE0000EF0225008E12128D8A079EF0EF07BEF0A
:101CF0000EF086EF0EF0000E226E2168000E106EC0
:101D0000000E116E000E126E000E136E22BE93EFC7
:101D10000EF0225006E12104D8B091EF0EF093EFBF
:101D20000EF0A1EF0EF0000E226E000E216E000EDE
:101D3000106E000E116E000E126E000E136E000E6D
:101D4000206E21C027F027A0A8EF0EF0AAEF0EF01A
:101D5000ADEF0EF0128EAEEF0EF0129ED89027303F
:101D6000136E64EF0DF012000A6E0A50D8B4BBEF88
:101D70000EF0BDEF0EF0DFEF0EF005BEC4EF0EF07B
:101D8000C2EF0EF0DFEF0EF002C006F003C007F066
:101D900004C008F005C009F0061E071E081E091E33
:101DA000062A000E07220822092206C00CF007C0EE
:101DB0000DF008C00EF009C00FF0E7EF0EF002C002
:101DC0000CF003C00DF004C00EF005C00FF002507F
:101DD000031004100510D8A4F0EF0EF0F2EF0EF08F
:101DE000FCEF0EF0000E026E000E036E000E046E8D
:101DF000000E056E8DEF0FF0960E0B6E06EF0FF0D6
:101E00000B2AD8900F320E320D320C32000E0C1409
:101E1000066E000E0D14076E000E0E14086EFE0EF8
:101E20000F14096E0650071008100910D8A41BEFF4
:101E30000FF01DEF0FF000EF0FF02BEF0FF00B2A5C
:101E4000010E0C26000E0D220E220F22D8900F320A
:101E50000E320D320C32000E0C14066E000E0D14F4
:101E6000076E000E0E14086EFF0E0F14096E06505A
:101E7000071008100910D8A440EF0FF042EF0FF040
:101E80001FEF0FF04AEF0FF00B06D8900C360D360F
:101E90000E360F360EBE4FEF0FF051EF0FF059EF29
:101EA0000FF0020E0B6057EF0FF059EF0FF044EFF9
:101EB0000FF00BB05EEF0FF060EF0FF061EF0FF07F
:101EC0000E9ED8900B320BC006F0076A086A096AAA
:101ED00006C009F0086A076A066A06500C12075025
:101EE0000D1208500E1209500F120A50D8B47BEF91
:101EF0000FF07DEF0FF085EF0FF005BE84EF0FF0D0
:101F000082EF0FF085EF0FF00F8E0CC002F00DC0C6
:101F100003F00EC004F00FC005F01200010E086EB1
:101F20000250D8B496EF0FF098EF0FF0A8EF0FF033
:101F30000250D96EDA6ADF30E832E832070B036EFE
:101F4000070E0364A6EF0FF0A8EF0FF0FFEF0FF0FE
:101F5000000E086E15EF10F00250D96EDA6ADF300D
:101F6000E832E832070B036E010E046E032ABBEF62
:101F70000FF0D8900436032EB9EF0FF00450FF0A8B
:101F8000056E0250D96EDA6ADF50070B020DF3506E
:101F9000B10FD96EDA6ADECF06F0DDCF07F006C0EA
:101FA000D9FF07C0DAFF0550DF1615EF10F0025019
:101FB000D96EDA6ADF30E832E832070B036E010EC1
:101FC000046E032AE6EF0FF0D8900436032EE4EFF8
:101FD0000FF00250D96EDA6ADF50070B020DF35092
:101FE000B10FD96EDA6ADECF05F0DDCF06F005C09D
:101FF000D9FF06C0DAFF0450DF1215EF10F00250CF
:10200000D96EDA6ADFBC07EF10F00AEF10F0010EAC
:102010000BEF10F0000E000AD8B4ACEF0FF0010A7D
:10202000D8B4D7EF0FF0A8EF0FF008501200010E50
:10203000096E0250D8B41FEF10F021EF10F031EF0D
:1020400010F00250D96EDA6ADF30E832E832070B5E
:10205000046E070E04642FEF10F031EF10F088EFDC
:1020600010F0000E096E9DEF10F00250D96EDA6A82
:10207000DF30E832E832070B046E010E056E042AE9
:1020800044EF10F0D8900536042E42EF10F00550C2
:10209000FF0A066E0250D96EDA6ADF50070B020D96
:1020A000F350A70FD96EDA6ADECF07F0DDCF08F064
:1020B00007C0D9FF08C0DAFF0650DF169DEF10F009
:1020C0000250D96EDA6ADF30E832E832070B046E6C
:1020D000010E056E042A6FEF10F0D8900536042E1D
:1020E0006DEF10F00250D96EDA6ADF50070B020D67
:1020F000F350A70FD96EDA6ADECF06F0DDCF07F016
:1021000006C0D9FF07C0DAFF0550DF129DEF10F0BF
:102110000350046E056A0550000AD8B492EF10F01F
:1021200031EF10F00450000AD8B435EF10F0010A76
:10213000D8B460EF10F031EF10F009501200043401
:1021400005340B6E0B50D8A4A8EF10F0AAEF10F0D6
:10215000B4EF10F0000E026E000E036E000E046E5F
:10216000000E056E21EF11F002C006F003C007F06B
:1021700004C008F005C009F0200EC4EF10F0D8909C
:102180000932083207320632E82EBFEF10F006504F
:102190000A6E048EFF0E0216FF0E0316FF0E0416C3
:1021A000000E0516960E0B5E0BBEDBEF10F0D9EF9E
:1021B00010F0F1EF10F00B50800A970FD8B0E3EF5A
:1021C00010F0E5EF10F0E7EF10F0AAEF10F0D89064
:1021D00005320432033202320B3EE7EF10F009EF12
:1021E00011F01F0E0B64F7EF10F0F9EF10F001EF94
:1021F00011F0AAEF10F0D8900236033604360536F7
:102200000B060B50D8A407EF11F009EF11F0FBEF0C
:1022100010F00A50D8B40FEF11F011EF11F019EFD0
:1022200011F0051E041E031E026C000E0322042280
:10223000052202C002F003C003F004C004F005C090
:1022400005F012000250D8A428EF11F02AEF11F087
:102250002CEF11F08EEF11F00250D96EDA6A080EF1
:10226000D926DFA036EF11F038EF11F065EF11F04D
:10227000AB880250D96EDA6A080ED926DFA243EF86
:1022800011F045EF11F072EF11F09D8AF28EF28C91
:102290000250D96EDA6A0E0ED926DECF79F0DDCF84
:1022A0007AF00250D96EDA6A100ED926DECF77F0B6
:1022B000DDCF78F00250D96EDA6A120ED926DECF61
:1022C00075F0DDCF76F072EF11F00250D96EDA6A58
:1022D000080ED926DFB26FEF11F071EF11F072EF37
:1022E00011F09D9A0250D96EDA6A080ED926DFA441
:1022F0007CEF11F07EEF11F081EF11F0AB8C8EEFDF
:1023000011F00250D96EDA6A080ED926DFB48BEFCD
:1023100011F08DEF11F08EEF11F0AB9C1200025016
:10232000D8A495EF11F097EF11F099EF11F0E9EFC4
:1023300011F00250D96EDA6A050ED926DFA0A3EF9C
:1023400011F0A5EF11F0C0EF11F0AC8A0250D96E78
:10235000DA6A050ED926DFA2B0EF11F0B2EF11F064
:10236000CDEF11F09D88F28EF28C0250D96EDA6AB0
:102370000C0ED926DECF7BF0DDCF7CF0CDEF11F057
:102380000250D96EDA6A050ED926DFB2CAEF11F013
:10239000CCEF11F0CDEF11F09D980250D96EDA6AB2
:1023A000050ED926DFA4D7EF11F0D9EF11F0DCEF3D
:1023B00011F0AC80E9EF11F00250D96EDA6A050E27
:1023C000D926DFB4E6EF11F0E8EF11F0E9EF11F0F4
:1023D000AC901200E1EC13F0BB0E446E63EC13F012
:1023E0005C6EBB0E026E5B0E036E85EC13F05C6ED2
:1023F0005C04D8A4FEEF11F000EF12F0F1EF11F041
:10240000610E5B18D8A407EF12F009EF12F01AEF73
:1024100012F05D0E0A6E38EC12F0BB0E046E1A0E4E
:10242000056E000E076E070E066ED5EC12F05C6EA0
:10243000F1EF11F0620E5B18D8A421EF12F023EF38
:1024400012F034EF12F05D0E0A6E6DEC12F0BB0E5E
:10245000046E110E056E000E076E080E066ED5ECAA
:1024600012F05C6EF1EF11F0F1EF11F0C7EF00F038
:102470000A50D8A43EEF12F040EF12F042EF12F0F3
:102480006CEF12F059C00CF00A50D96EDA6ADF50C6
:102490000F0B0B6E0C500B18F80B0B180C6E0A5030
:1024A000D96EDA6ADF38070B0B6E0B460B460B460C
:1024B0000C500B18C70B0B180C6E0C9C0A50D96EE5
:1024C000DA6ADFAE02D00C8E01D00C9E0C0E026ECA
:1024D000010E036E17EC10F012000A50D8A473EF2F
:1024E00012F075EF12F077EF12F0A1EF12F058C072
:1024F0000CF00A50D96EDA6ADF500F0B0B6E0C50DD
:102500000B18F80B0B180C6E0A50D96EDA6ADF380C
:10251000070B0B6E0B460B460B460C500B18C70BEC
:102520000B180C6E0C9C0A50D96EDA6ADFAE02D022
:102530000C8E01D00C9E0C0E026E000E036E17EC7A
:1025400010F012000D50D8A4A8EF12F0AAEF12F06C
:10255000ACEF12F0D4EF12F05AC00FF00D50D96E5C
:10256000DA6ADF500F0B0E6E0F500E18F80B0E18B4
:102570000F6E0D50D96EDA6ADF38070B0E6E0E46FD
:102580000E460E460F500E18C70B0E180F6E0F9CFE
:102590000D50D96EDA6ADFAE02D00F8E01D00F9ED9
:1025A0000F0E0A6E07EC13F01200010E0A6E0450B3
:1025B000D8A4DDEF12F0DFEF12F0E3EF12F0000E1F
:1025C0000A6E05EF13F0000E0B6EF7EF12F004C069
:1025D00002F005500B24086E08C0F6FF100EF76ECF
:1025E000F86A0800F5CF03F0BAEC13F00B2A0B5091
:1025F000086E096A0650085C07500958D8A003EF16
:1026000013F005EF13F0E7EF12F00A501200010E7D
:102610000C6E0A50D8B40FEF13F011EF13F021EF46
:1026200013F00A50D96EDA6ADF30E832E832070B6D
:102630000B6E070E0B641FEF13F021EF13F025EF65
:1026400013F0000E0C6E34EF13F00AC002F08EECA3
:102650000FF00AC002F00A50D96EDA6A000EDFBE2F
:10266000010E036E17EC10F00C501200420EF66EC5
:10267000270EF76E000EF86E00EE9DF010EE32F0B1
:102680000900F5CFEEFFE550E150FAE1E80EF66EF5
:10269000270EF76E000EF86E0900F5CF5CF009000A
:1026A000F5CF5DF000EE60F03D0EEE6AE806FDE16C
:1026B00000EE45F0170EEE6AE806FDE15E905E92D0
:1026C0000001EAEF11F04450D8A469EF13F06BEF6A
:1026D00013F070EF13F0000E0001CF6F83EF13F0D3
:1026E000AB9E948E948C44C039F015EC08F044C035
:1026F00002F08FEC11F044C002F022EC11F0AB8E2E
:10270000010E0001CF6FCF5112000250D8A48BEF01
:1027100013F08DEF13F091EF13F0000E046E9FEFA6
:1027200013F09EAA96EF13F098EF13F08DEF13F0CD
:102730000350D96EDA6AAECFDFFF010E046E04508B
:102740001200800F810F820F830F840F890F8A0F71
:102750008B0F8C0F8D0F920F930F940F950F960F79
:1027600080250000000100000100000000000000C2
:10277000000000000250D8A4C0EF13F0C2EF13F025
:10278000C4EF13F0CEEF13F0ACA2C9EF13F0CBEF10
:1027900013F0C4EF13F003C0ADFF9D881200016E6B
:1027A000F2900104D8A4D7EF13F0D9EF13F0DBEFC8
:1027B00013F0DBEF13F012005D0E0D6EA2EC12F0C1
:1027C0001200DCEC13F01200A19212009E92120093
:1027D0009E901200F2941200F2921200A190120048
:0A27E0009E9412009E9C120001025C
:020000040030CA
:0E000000FF02191FFF8181FF0FC00FE00F40AC
:00000001FF
