:0400000007EF01F015
:100008005E82F2A80AEF00F00CEF00F015EF00F0A6
:10001800F2A211EF00F013EF00F015EF00F033EC4F
:1000280011F0F2A61AEF00F01CEF00F036EF00F026
:10003800F2A021EF00F023EF00F036EF00F07DA8EA
:1000480028EF00F02AEF00F036EF00F081A82FEF3C
:1000580000F031EF00F036EF00F0010E0FEC11F078
:1000680055EF00F0F2A63BEF00F03DEF00F055EF42
:1000780000F0F2A042EF00F044EF00F055EF00F07E
:100088007DA849EF00F04BEF00F055EF00F081B884
:1000980050EF00F052EF00F055EF00F0000E0FECBB
:1000A80011F09DAC5AEF00F05CEF00F065EF00F046
:1000B8009EAC61EF00F063EF00F065EF00F03BEC01
:1000C80011F0F2AA6AEF00F06CEF00F075EF00F0A3
:1000D800F2A471EF00F073EF00F075EF00F031EC6F
:1000E80011F09DA07AEF00F07CEF00F085EF00F0B2
:1000F8009EA081EF00F083EF00F085EF00F02FEC79
:1001080011F09DA28AEF00F08CEF00F095EF00F05F
:100118009EA291EF00F093EF00F095EF00F02DEC28
:1001280011F0A0A29AEF00F09CEF00F0A5EF00F00C
:10013800A1A2A1EF00F0A3EF00F0A5EF00F02BECD7
:1001480011F09DA4AAEF00F0ACEF00F0B5EF00F0BD
:100158009EA4B1EF00F0B3EF00F0B5EF00F039EC7A
:1001680011F0A0A0BAEF00F0BCEF00F0C5EF00F06E
:10017800A1A0C1EF00F0C3EF00F0C5EF00F037EC2D
:1001880011F09DA8CAEF00F0CCEF00F0D5EF00F019
:100198009EA8D1EF00F0D3EF00F0D5EF00F035ECDA
:1001A80011F09DAADAEF00F0DCEF00F0E5EF00F0C7
:1001B8009EAAE1EF00F0E3EF00F0E5EF00F041EC7C
:1001C80011F09DA6EAEF00F0ECEF00F0F5EF00F07B
:1001D8009EA6F1EF00F0F3EF00F0F5EF00F03FEC32
:1001E80011F0A0A6FAEF00F0FCEF00F005EF01F027
:1001F800A1A601EF01F003EF01F005EF01F040ECDB
:0A02080011F05E92110064EF10F097
:10100000003738392F3435362A3132332D23303DED
:091010002B256C7500257500000C
:10101A002C50800B356E2C502C24376E2BAE18EFCB
:10102A0008F01AEF08F01BEF08F037803750D8B4F1
:10103A0021EF08F023EF08F038EF08F03728D8A49A
:10104A0029EF08F02BEF08F033EF08F0000E296EB5
:10105A00000E2A6E000E2B6E000E2C6E2B8E000ECA
:10106A002C6E40EF08F0000E296E000E2A6E000E5C
:10107A002B6E000E2C6E3050800B366E35503618A3
:10108A00D8B44AEF08F04CEF08F04DEF08F0358C71
:10109A0030503024366E2FAE55EF08F057EF08F077
:1010AA0058EF08F036803650D8B45EEF08F060EF9B
:1010BA0008F075EF08F03628D8A466EF08F068EF54
:1010CA0008F070EF08F0000E2D6E000E2E6E000E66
:1010DA002F6E000E306E2F8E000E306E7DEF08F0F0
:1010EA00000E2D6E000E2E6E000E2F6E000E306E4C
:1010FA003750365CD8B084EF08F086EF08F0ADEFD1
:10110A0008F035AC8BEF08F08DEF08F08FEF08F0A0
:10111A00800E351A37C038F036C037F038C036F08E
:10112A0029C038F02DC029F038C02DF02AC038F077
:10113A002EC02AF038C02EF02BC038F02FC02BF06A
:10114A0038C02FF02CC038F030C02CF038C030F046
:10115A00000E386E375036C031F0326A315E000EFA
:10116A00325A32BEC2EF08F0325009E11A0E315C2F
:10117A00D8A0C2EF08F0C4EF08F0FBEF08F029503E
:10118A002A102B102C10D8A4CDEF08F0D0EF08F0BD
:10119A00010ED1EF08F0000E386E000E296E000E17
:1011AA002A6E000E2B6E000E2C6E36C037F004EF3E
:1011BA0009F038A0E3EF08F0E5EF08F0EBEF08F0EC
:1011CA00D89038300109386EEDEF08F0D8903832EF
:1011DA0029A0F2EF08F0F4EF08F0F5EF08F0388EE6
:1011EA002C342C322B322A322932372A3650375CA9
:1011FA00D8A002EF09F004EF09F0DEEF08F035BCE1
:10120A0009EF09F00BEF09F04BEF09F03750D8A4BA
:10121A0011EF09F013EF09F01DEF09F0000E296E26
:10122A00000E2A6E000E2B6E000E2C6E6CEF0AF06A
:10123A002D5029262E502A222F502B2230502C2274
:10124A002CA02AEF09F02CEF09F0D8EF09F038A00A
:10125A0031EF09F033EF09F039EF09F0D89038305F
:10126A000109386E3BEF09F0D890383229A040EFD7
:10127A0009F042EF09F043EF09F0388E2C342C3292
:10128A002B322A322932372AD8EF09F02D50295C1D
:10129A002E502A582F502B582C50800A316E30501D
:1012AA00800A3158D8B05CEF09F05EEF09F089EF97
:1012BA0009F029502D5C316E2A502E58326E2B506F
:1012CA002F58336E2C503058346EFF0E3124296E4D
:1012DA00FF0E32202A6EFF0E33202B6EFF0E3420B3
:1012EA002C6E800E351A386C3850D8A47FEF09F06E
:1012FA0081EF09F091EF09F0010E2926000E2A224A
:10130A002B222C2291EF09F02D50295E2E502A5AB9
:10131A002F502B5A30502C5A29502A102B102C108F
:10132A00D8A49AEF09F09CEF09F0D1EF09F03850F0
:10133A00D8A4A2EF09F0A4EF09F0D1EF09F0000E4A
:10134A00296E000E2A6E000E2B6E000E2C6E6CEFAC
:10135A000AF0D89029362A362B362C3638AEB8EF12
:10136A0009F0BAEF09F0BBEF09F0298038A0C0EF05
:10137A0009F0C2EF09F0C6EF09F0D8803836C8EF95
:10138A0009F0D89038363750D8B4CEEF09F0D0EFFC
:10139A0009F0D1EF09F037062BAED6EF09F0D8EFF6
:1013AA0009F0AEEF09F0000E366E38AEDFEF09F045
:1013BA00E1EF09F0F9EF09F038C031F07F0E31168C
:1013CA00D8B4EAEF09F0ECEF09F0F0EF09F0010EFA
:1013DA00366EF9EF09F029A0F5EF09F0F7EF09F0F9
:1013EA00F9EF09F0ECEF09F03650D8B4FFEF09F045
:1013FA0001EF0AF02CEF0AF0010E2926000E2A222C
:10140A002B222C222CA00CEF0AF00EEF0AF02CEF64
:10141A000AF029C031F02AC032F02BC033F02CC0B8
:10142A0034F03434343233323232313231C029F08A
:10143A0032C02AF033C02BF034C02CF03728D8B48D
:10144A0029EF0AF02BEF0AF02CEF0AF0372A372897
:10145A00D8B432EF0AF034EF0AF03CEF0AF0375012
:10146A00D8A43AEF0AF03CEF0AF04EEF0AF0000E69
:10147A00296E000E2A6E000E2B6E000E2C6E37504F
:10148A00D8A44AEF0AF04CEF0AF04EEF0AF0000E29
:10149A00356E37A053EF0AF055EF0AF058EF0AF00D
:1014AA002B8E59EF0AF02B9ED89037302C6E35AE22
:1014BA0061EF0AF063EF0AF064EF0AF02C8E29C09C
:1014CA0029F02AC02AF02BC02BF02CC02CF01200D5
:1014DA001350800B206E13501324276E12AE78EF30
:1014EA000AF07AEF0AF07BEF0AF027802750D8B487
:1014FA0081EF0AF083EF0AF098EF0AF02728D8A4C0
:10150A0089EF0AF08BEF0AF093EF0AF0000E106EE3
:10151A00000E116E000E126E000E136E128E000E69
:10152A00136EA0EF0AF0000E106E000E116E000E80
:10153A00126E000E136E1750800B201A17501724C4
:10154A00286E16AEABEF0AF0ADEF0AF0AEEF0AF076
:10155A0028802850D8B4B4EF0AF0B6EF0AF0CBEFDF
:10156A000AF02828D8A4BCEF0AF0BEEF0AF0C6EFAA
:10157A000AF0000E146E000E156E000E166E000EA6
:10158A00176E168E000E176ED3EF0AF0000E146E49
:10159A00000E156E000E166E000E176E1450151002
:1015AA0016101710D8A4DCEF0AF0DEEF0AF0F6EFF7
:1015BA000AF0000E106E000E116E000E126E000E72
:1015CA00136E800E12127F0E13122050131210C0C7
:1015DA0010F011C011F012C012F013C013F039EF5D
:1015EA000CF02750D8A4FCEF0AF0FEEF0AF008EF3F
:1015FA000BF0000E106E000E116E000E126E000E31
:10160A00136E39EF0CF0285027C018F0196A185ECB
:10161A00000E195A7F0E1824216E000E1920226E10
:10162A0010C01CF011C01DF012C01EF013C01FF034
:10163A00000E106E000E116E000E126E000E136E6A
:10164A00000E236E000E246E000E256E000E266E0E
:10165A00000E286E69EF0BF02850D8B437EF0BF064
:10166A0039EF0BF050EF0BF0D8901C361D361E36B2
:10167A001F36D890103611361236133626AE48EF7A
:10168A000BF04AEF0BF04BEF0BF01080D89023369B
:10169A0024362536263614501C5C15501D58165013
:1016AA001E5817501F58D8A05DEF0BF05FEF0BF0D4
:1016BA0068EF0BF0268C14501C5E15501D5A1650FC
:1016CA001E5A17501F5A282A190E28646FEF0BF05A
:1016DA0071EF0BF031EF0BF01C501D101E101F1094
:1016EA00D8B47AEF0BF07CEF0BF094EF0BF0238079
:1016FA0094EF0BF0D890103611361236133626AE08
:10170A0089EF0BF08BEF0BF08CEF0BF01080D89079
:10171A0023362436253626362106D8A0220612AECE
:10172A0099EF0BF09BEF0BF07FEF0BF0000E286E9A
:10173A0026AEA2EF0BF0A4EF0BF0C8EF0BF0FF0EF2
:10174A002314186EFF0E2414196EFF0E25141A6E38
:10175A007F0E26141B6E185019101A101B10D8B4BD
:10176A00B9EF0BF0BBEF0BF0BFEF0BF0010E286ED9
:10177A00C8EF0BF010A0C4EF0BF0C6EF0BF0C8EFE8
:10178A000BF0BBEF0BF02850D8B4CEEF0BF0D0EF34
:10179A000BF0F4EF0BF0010E1026000E11221222AC
:1017AA00132213A0DBEF0BF0DDEF0BF0F4EF0BF0DD
:1017BA0010C018F011C019F012C01AF013C01BF0B3
:1017CA001B341B321A321932183218C010F019C0E1
:1017DA0011F01AC012F01BC013F0214A222A22BEAD
:1017EA00FFEF0BF0225008E12128D8A0FFEF0BF001
:1017FA0001EF0CF00CEF0CF0000E226E2168000EC7
:10180A00106E000E116E000E126E000E136E22BEC6
:10181A0019EF0CF0225006E12104D8B017EF0CF0B2
:10182A0019EF0CF027EF0CF0000E226E000E216E5D
:10183A00000E106E000E116E000E126E000E136E68
:10184A00000E206E21C027F027A02EEF0CF030EFFB
:10185A000CF033EF0CF0128E34EF0CF0129ED8908D
:10186A002730136EEAEF0AF012000A6E0A50D8B453
:10187A0041EF0CF043EF0CF065EF0CF005BE4AEFB8
:10188A000CF048EF0CF065EF0CF002C006F003C054
:10189A0007F004C008F005C009F0061E071E081E5E
:1018AA00091E062A000E07220822092206C00CF089
:1018BA0007C00DF008C00EF009C00FF06DEF0CF074
:1018CA0002C00CF003C00DF004C00EF005C00FF00A
:1018DA000250031004100510D8A476EF0CF078EF2C
:1018EA000CF082EF0CF0000E026E000E036E000E7A
:1018FA00046E000E056E13EF0DF0960E0B6E8CEF54
:10190A000CF00B2AD8900F320E320D320C32000E28
:10191A000C14066E000E0D14076E000E0E14086EDF
:10192A00FE0E0F14096E0650071008100910D8A4ED
:10193A00A1EF0CF0A3EF0CF086EF0CF0B1EF0CF076
:10194A000B2A010E0C26000E0D220E220F22D89011
:10195A000F320E320D320C32000E0C14066E000ECF
:10196A000D14076E000E0E14086EFF0E0F14096E8A
:10197A000650071008100910D8A4C6EF0CF0C8EFDB
:10198A000CF0A5EF0CF0D0EF0CF00B06D8900C364B
:10199A000D360E360F360EBED5EF0CF0D7EF0CF023
:1019AA00DFEF0CF0020E0B60DDEF0CF0DFEF0CF056
:1019BA00CAEF0CF00BB0E4EF0CF0E6EF0CF0E7EF37
:1019CA000CF00E9ED8900B320BC006F0076A086A1C
:1019DA00096A06C009F0086A076A066A06500C1204
:1019EA0007500D1208500E1209500F120A50D8B49F
:1019FA0001EF0DF003EF0DF00BEF0DF005BE0AEF4E
:101A0A000DF008EF0DF00BEF0DF00F8E0CC002F089
:101A1A000DC003F00EC004F00FC005F012004550CF
:101A2A00D8A41AEF0DF01CEF0DF01EEF0DF0A8EF81
:101A3A000DF0C69A4550D96EDA6A040ED926DE042C
:101A4A00D8A42AEF0DF02CEF0DF032EF0DF045C0BF
:101A5A0043F03DEC0FF05BEF0DF04550D96EDA6ABA
:101A6A00040ED926DF50D8A43DEF0DF03FEF0DF05C
:101A7A005BEF0DF04550D96EDA6A060ED926DFA45F
:101A8A0049EF0DF04BEF0DF04EEF0DF0C58E5BEF09
:101A9A000DF04550D96EDA6A060ED926DFB458EF32
:101AAA000DF05AEF0DF05BEF0DF0C59EC69EC69C79
:101ABA00C6884550D96EDA6A070ED926DF50C86E35
:101ACA0045C002F002EC11F028EC11F04550D96E35
:101ADA00DA6A060ED926DFB075EF0DF077EF0DF052
:101AEA007AEF0DF0C79E87EF0DF04550D96EDA6A8E
:101AFA00060ED926DFA084EF0DF086EF0DF087EFF2
:101B0A000DF0C78E4550D96EDA6A060ED926DFA2C5
:101B1A0091EF0DF093EF0DF096EF0DF0C78CA3EF58
:101B2A000DF04550D96EDA6A060ED926DFB2A0EF5B
:101B3A000DF0A2EF0DF0A3EF0DF0C79C45C002F027
:101B4A003EEC11F0C68A1200010E086E0250D8B49B
:101B5A00B1EF0DF0B3EF0DF0C3EF0DF00250D96EF7
:101B6A00DA6ADF30E832E832070B036E070E0364E5
:101B7A00C1EF0DF0C3EF0DF01AEF0EF0000E086E74
:101B8A0030EF0EF00250D96EDA6ADF30E832E8320E
:101B9A00070B036E010E046E032AD6EF0DF0D890E0
:101BAA000436032ED4EF0DF00450FF0A056E0250DE
:101BBA00D96EDA6ADF50070B020DF350B50FD96EF2
:101BCA00DA6ADECF06F0DDCF07F006C0D9FF07C01C
:101BDA00DAFF0550DF1630EF0EF00250D96EDA6ADE
:101BEA00DF30E832E832070B036E010E046E032A77
:101BFA0001EF0EF0D8900436032EFFEF0DF00250DD
:101C0A00D96EDA6ADF50070B020DF350B50FD96EA1
:101C1A00DA6ADECF05F0DDCF06F005C0D9FF06C0CF
:101C2A00DAFF0450DF1230EF0EF00250D96EDA6A92
:101C3A00DFBC22EF0EF025EF0EF0010E26EF0EF0BC
:101C4A00000E000AD8B4C7EF0DF0010AD8B4F2EFBB
:101C5A000DF0C3EF0DF008501200010E096E02508C
:101C6A00D8B43AEF0EF03CEF0EF04CEF0EF0025003
:101C7A00D96EDA6ADF30E832E832070B046E070EF3
:101C8A0004644AEF0EF04CEF0EF0A3EF0EF0000ED4
:101C9A00096EB8EF0EF00250D96EDA6ADF30E83218
:101CAA00E832070B046E010E056E042A5FEF0EF090
:101CBA00D8900536042E5DEF0EF00550FF0A066E29
:101CCA000250D96EDA6ADF50070B020DF350AB0FE0
:101CDA00D96EDA6ADECF07F0DDCF08F007C0D9FF88
:101CEA0008C0DAFF0650DF16B8EF0EF00250D96EC0
:101CFA00DA6ADF30E832E832070B046E010E056E4D
:101D0A00042A8AEF0EF0D8900536042E88EF0EF0DA
:101D1A000250D96EDA6ADF50070B020DF350AB0F8F
:101D2A00D96EDA6ADECF06F0DDCF07F006C0D9FF3A
:101D3A0007C0DAFF0550DF12B8EF0EF00350046E49
:101D4A00056A0550000AD8B4ADEF0EF04CEF0EF05C
:101D5A000450000AD8B450EF0EF0010AD8B47BEF51
:101D6A000EF04CEF0EF0095012003B343C34426E38
:101D7A004250D8A4C3EF0EF0C5EF0EF0CFEF0EF02D
:101D8A00000E396E000E3A6E000E3B6E000E3C6E6F
:101D9A003CEF0FF039C03DF03AC03EF03BC03FF097
:101DAA003CC040F0200EDFEF0EF0D89040323F32B8
:101DBA003E323D32E82EDAEF0EF03D50416E3B8E58
:101DCA00FF0E3916FF0E3A16FF0E3B16000E3C1692
:101DDA00960E425E42BEF6EF0EF0F4EF0EF00CEFF6
:101DEA000FF04250800A970FD8B0FEEF0EF000EFC6
:101DFA000FF002EF0FF0C5EF0EF0D8903C323B32F5
:101E0A003A323932423E02EF0FF024EF0FF01F0E42
:101E1A00426412EF0FF014EF0FF01CEF0FF0C5EF52
:101E2A000EF0D89039363A363B363C3642064250A6
:101E3A00D8A422EF0FF024EF0FF016EF0FF0415065
:101E4A00D8B42AEF0FF02CEF0FF034EF0FF03C1E4E
:101E5A003B1E3A1E396C000E3A223B223C2239C004
:101E6A0039F03AC03AF03BC03BF03CC03CF01200BB
:101E7A004350D96EDA6A050ED926DF50446EC65031
:101E8A004418F00B4418C66E000E2D6E000E2E6E0E
:101E9A00800E2F6EBF0E306E4350D96EDA6ADECFD7
:101EAA0002F0DECF03F0DECF04F0DECF05F0000E45
:101EBA003AEC0CF002C014F003C015F004C016F09E
:101ECA0005C017F0000E106E240E116EF40E126E7D
:101EDA00490E136E6DEC0AF010C029F011C02AF0F9
:101EEA0012C02BF013C02CF00DEC08F029C039F009
:101EFA002AC03AF02BC03BF02CC03CF0BAEC0EF0F2
:101F0A003950C86E12001CEC11F0610E066E600E9C
:101F1A00D1EC10F00B0E486E260E476E5E0EE82EC0
:101F2A00FED7472EFCD7482EFAD7620E066E620EEF
:101F3A00D1EC10F00B0E486E260E476E5E0EE82EA0
:101F4A00FED7472EFCD7482EFAD7630E066E600ED0
:101F5A00D1EC10F00B0E486E260E476E5E0EE82E80
:101F6A00FED7472EFCD7482EFAD7640E066E620EAD
:101F7A00D1EC10F00B0E486E260E476E5E0EE82E60
:101F8A00FED7472EFCD7482EFAD78AEF0FF007EF75
:101F9A0001F00250D8B4D4EF0FF0D6EF0FF0DEEF15
:101FAA000FF00450D8A4DCEF0FF0DEEF0FF0E2EFF1
:101FBA000FF0000E056E00EF10F003C0C9FF9EA6D9
:101FCA00E9EF0FF0EBEF0FF0E4EF0FF09E96C5BCD0
:101FDA00F1EF0FF0F3EF0FF0F9EF0FF00450D96EB5
:101FEA00DA6ADF6AFEEF0FF00450D96EDA6A010E80
:101FFA00DF6E010E056E055012000D50D8A408EFD1
:10200A0010F00AEF10F00CEF10F034EF10F05AC095
:10201A000FF00D50D96EDA6ADF500F0B0E6E0F50AB
:10202A000E18F80B0E180F6E0D50D96EDA6ADF38DB
:10203A00070B0E6E0E460E460E460F500E18C70BB5
:10204A000E180F6E0F9C0D50D96EDA6ADFAE02D0F1
:10205A000F8E01D00F9E0F0E0A6E35EC10F0120093
:10206A00010E0C6E0A50D8B43DEF10F03FEF10F09D
:10207A004FEF10F00A50D96EDA6ADF30E832E832F0
:10208A00070B0B6E070E0B644DEF10F04FEF10F0BD
:10209A0053EF10F0000E0C6E62EF10F00AC002F05F
:1020AA00A9EC0DF00AC002F00A50D96EDA6A000EE5
:1020BA00DFBE010E036E32EC0EF00C501200DE0E83
:1020CA00F66E210EF76E000EF86E00EEA1F010EE1D
:1020DA0026F00900F5CFEEFFE550E150FAE17A0E5D
:1020EA00F66E220EF76E000EF86E0900F5CF5CF060
:1020FA000900F5CF5DF000EE60F0410EEE6AE806E9
:10210A00FDE100EE49F0130EEE6AE806FDE15E908D
:10211A005E92000188EF0FF00250D8A497EF10F0FA
:10212A0099EF10F09DEF10F0000E036EAFEF10F074
:10213A00C584C5B4A3EF10F0A5EF10F09EEF10F020
:10214A009E96C7A8ABEF10F0ADEF10F099EF10F024
:10215A00010E036E035012000250D8A4B7EF10F01C
:10216A00B9EF10F0BDEF10F0000E036ECFEF10F0D4
:10217A00C580C5B0C3EF10F0C5EF10F0BEEF10F088
:10218A009E96C7A6CBEF10F0CDEF10F0B9EF10F086
:10219A00010E036E03501200076EBF0E026EB1EC01
:1021AA0010F05C6EBF0E026E07C003F05B0E046E89
:1021BA00CEEC0FF05C6EBF0E026E06C003F05B0E33
:1021CA00046ECEEC0FF05C6EBF0E026E91EC10F056
:1021DA005C6E1200800F810F820F830F840F890FAC
:1021EA008A0F8B0F8C0F8D0F920F930F940F950FF1
:1021FA00960FA0860100010801000250D96EDA6A22
:10220A00050ED926DF50036EC6500318F00B0318CB
:10221A00C66E1200016EF2900104D8A417EF11F0F5
:10222A0019EF11F01BEF11F01BEF11F0120023EC64
:10223A0011F0BF0E456E14EC0DF012005D0E0D6E1E
:10224A0002EC10F01200948694881200A1921200F7
:10225A009E9212009E901200F2941200F2921200C4
:10226A009D981200A19012009E9412009E9C12004A
:0A227A00010212001200120012000F
:020000040030CA
:0E000000FF02191FFF8181FF0FC00FE00F40AC
:00000001FF
