:04000000FFEF00F01E
:100008004E82FACF0CF0FBCF0DF0D9CF0EF0DACF3D
:100018000FF0F3CF10F0F4CF11F0F2A816EF00F0C4
:1000280018EF00F021EF00F0F2A21DEF00F01FEF33
:1000380000F021EF00F06EEC14F0F2A626EF00F0CD
:1000480028EF00F042EF00F0F2A02DEF00F02FEFC4
:1000580000F042EF00F07DA834EF00F036EF00F03A
:1000680042EF00F081A83BEF00F03DEF00F042EFD7
:1000780000F0010E51EC14F061EF00F0F2A647EF2A
:1000880000F049EF00F061EF00F0F2A04EEF00F051
:1000980050EF00F061EF00F07DA855EF00F057EF4A
:1000A80000F061EF00F081B85CEF00F05EEF00F067
:1000B80061EF00F0000E51EC14F09DAC66EF00F01B
:1000C80068EF00F071EF00F09EAC6DEF00F06FEF9D
:1000D80000F071EF00F076EC14F0F2AA76EF00F081
:1000E80078EF00F081EF00F0F2A47DEF00F07FEFF1
:1000F80000F081EF00F06CEC14F09DA086EF00F0AA
:1001080088EF00F091EF00F09EA08DEF00F08FEFE8
:1001180000F091EF00F06AEC14F09DA296EF00F069
:1001280098EF00F0A1EF00F09EA29DEF00F09FEF86
:1001380000F0A1EF00F068EC14F0A0A2A6EF00F028
:10014800A8EF00F0B1EF00F0A1A2ADEF00F0AFEF23
:1001580000F0B1EF00F066EC14F09DA4B6EF00F0EB
:10016800B8EF00F0C1EF00F09EA4BDEF00F0BFEFC4
:1001780000F0C1EF00F074EC14F0A0A0C6EF00F09E
:10018800C8EF00F0D1EF00F0A1A0CDEF00F0CFEF65
:1001980000F0D1EF00F072EC14F09DA8D6EF00F05B
:1001A800D8EF00F0E1EF00F09EA8DDEF00F0DFEF00
:1001B80000F0E1EF00F070EC14F09DAAE6EF00F01B
:1001C800E8EF00F0F1EF00F09EAAEDEF00F0EFEF9E
:1001D80000F0F1EF00F026EC14F011C0F4FF10C0AD
:1001E800F3FF0FC0DAFF0EC0D9FF0DC0FBFF0CC034
:0A01F800FAFF4E9211006EEF13F0B3
:10100000003738392F3435362A3132332D23303DED
:091010002B256C7500257500000C
:10101A00000E0001E66F000EE76F000EE86F000E8B
:10102A00E96FE351D8A41CEF08F01EEF08F03CEF7B
:10103A000AF085EF0AF0AC98AC94B896E351D96EF1
:10104A00DA6ADECF12F0DECF13F0DECF14F0DECF95
:10105A0015F0000EB4EC0EF012C024F013C025F007
:10106A0014C026F015C027F0000E206E240E216E43
:10107A00F40E226E4A0E236EE7EC0CF020C0EAF062
:10108A0021C0EBF022C0ECF023C0EDF0000E246E7C
:10109A00000E256E800E266E420E276EEAC020F0E4
:1010AA00EBC021F0ECC022F0EDC023F0E7EC0CF02D
:1010BA0020C0D7F021C0D8F022C0D9F023C0DAF07E
:1010CA00000E0001DB6F000EDC6F800EDD6FBF0EBD
:1010DA00DE6F86EC0AF0D7C0E6F0D8C0E7F0D9C0D8
:1010EA00E8F0DAC0E9F066EF0AF0AC98AC84B8969A
:1010FA00E351D96EDA6ADECF12F0DECF13F0DECF1B
:10110A0014F0DECF15F0000EB4EC0EF012C024F08D
:10111A0013C025F014C026F015C027F0000E206E6B
:10112A00240E216EF40E226E4A0E236EE7EC0CF0AA
:10113A0020C0EAF021C0EBF022C0ECF023C0EDF0B1
:10114A00000E246E000E256E800E266E410E276E4E
:10115A00EAC020F0EBC021F0ECC022F0EDC023F091
:10116A00E7EC0CF020C0D7F021C0D8F022C0D9F0AB
:10117A0023C0DAF0000E0001DB6F000EDC6F800E78
:10118A00DD6FBF0EDE6F86EC0AF0D7C0E6F0D8C07E
:10119A00E7F0D9C0E8F0DAC0E9F078EF08F0AC98E7
:1011AA00AC94B886E351D96EDA6ADECF12F0DECF9C
:1011BA0013F0DECF14F0DECF15F0000EB4EC0EF013
:1011CA0012C024F013C025F014C026F015C027F071
:1011DA00000E206E240E216EF40E226E4A0E236E2D
:1011EA00E7EC0CF020C0EAF021C0EBF022C0ECF0F2
:1011FA0023C0EDF0000E246E000E256E800E266EC2
:10120A00410E276EEAC020F0EBC021F0ECC022F0BC
:10121A00EDC023F0E7EC0CF020C0D7F021C0D8F0E5
:10122A0022C0D9F023C0DAF0000E0001DB6F000EF5
:10123A00DC6F800EDD6FBF0EDE6F86EC0AF0D7C062
:10124A00E6F0D8C0E7F0D9C0E8F0DAC0E9F078EF04
:10125A0008F0AC98AC84B886E351D96EDA6ADECF6E
:10126A0012F0DECF13F0DECF14F0DECF15F0000E51
:10127A00B4EC0EF012C024F013C025F014C026F00E
:10128A0015C027F0000E206E240E216EF40E226E79
:10129A004A0E236EE7EC0CF020C0EAF021C0EBF016
:1012AA0022C0ECF023C0EDF0000E246E000E256E75
:1012BA00800E266E400E276EEAC020F0EBC021F0A9
:1012CA00ECC022F0EDC023F0E7EC0CF020C0D7F020
:1012DA0021C0D8F022C0D9F023C0DAF0000E0001F4
:1012EA00DB6F000EDC6F800EDD6FBF0EDE6F86ECEB
:1012FA000AF0D7C0E6F0D8C0E7F0D9C0E8F0DAC003
:10130A00E9F078EF08F0AC88B896E351D96EDA6A5A
:10131A00DECF12F0DECF13F0DECF14F0DECF15F001
:10132A00000EB4EC0EF012C024F013C025F014C065
:10133A0026F015C027F0000E206E240E216EF40E42
:10134A00226E4A0E236EE7EC0CF020C0EAF021C0B0
:10135A00EBF022C0ECF023C0EDF0000E246E000E7C
:10136A00256E800E266E400E276EEAC020F0EBC076
:10137A0021F0ECC022F0EDC023F0E7EC0CF020C025
:10138A00D7F021C0D8F022C0D9F023C0DAF0000E7D
:10139A000001DB6F000EDC6F800EDD6FBF0EDE6FAB
:1013AA0086EC0AF0D7C0E6F0D8C0E7F0D9C0E8F07A
:1013BA00DAC0E9F078EF08F0AC88B886E351D96E64
:1013CA00DA6ADECF12F0DECF13F0DECF14F0DECF12
:1013DA0015F0000EB4EC0EF012C024F013C025F084
:1013EA0014C026F015C027F0000E206E240E216EC0
:1013FA00F40E226E4A0E236EE7EC0CF020C0EAF0DF
:10140A0021C0EBF022C0ECF023C0EDF0000E246EF8
:10141A00000E256E800E266E400E276EEAC020F062
:10142A00EBC021F0ECC022F0EDC023F0E7EC0CF0A9
:10143A0020C0D7F021C0D8F022C0D9F023C0DAF0FA
:10144A00000E0001DB6F000EDC6F800EDD6FBF0E39
:10145A00DE6F86EC0AF0D7C0E6F0D8C0E7F0D9C054
:10146A00E8F0DAC0E9F078EF08F066EF0AF0E35145
:10147A00D96EDA6A040ED926DF50E46FE56BE551BE
:10148A00000AD8B44BEF0AF03AEF0AF0E451000A26
:10149A00D8B420EF08F0010AD8B47AEF08F0030AAA
:1014AA00D8B4D4EF08F0010AD8B42EEF09F0070A2D
:1014BA00D8B488EF09F0010AD8B4E1EF09F03AEF9D
:1014CA000AF0E6C012F0E7C013F0E8C014F0E9C071
:1014DA0015F027EC11F01250AF6EE6C012F0E7C01B
:1014EA0013F0E8C014F0E9C015F027EC11F013C0AE
:1014FA0012F014C013F015C014F0156A1250B06E31
:10150A0012000001DA51800BDF6FDA51DA25E16F40
:10151A00D9AF92EF0AF094EF0AF095EF0AF0E18161
:10152A00E151D8B49BEF0AF09DEF0AF0B2EF0AF04E
:10153A00E129D8A4A3EF0AF0A5EF0AF0ADEF0AF06B
:10154A00000ED76F000ED86F000ED96F000EDA6F3B
:10155A00D98F000EDA6FBAEF0AF0000ED76F000EBD
:10156A00D86F000ED96F000EDA6FDE51800BE06F74
:10157A00DF51E019D8B4C4EF0AF0C6EF0AF0C7EF9A
:10158A000AF0DF8DDE51DE25E06FDDAFCFEF0AF026
:10159A00D1EF0AF0D2EF0AF0E081E051D8B4D8EFE7
:1015AA000AF0DAEF0AF0EFEF0AF0E029D8A4E0EF48
:1015BA000AF0E2EF0AF0EAEF0AF0000EDB6F000E23
:1015CA00DC6F000EDD6F000EDE6FDD8F000EDE6F4A
:1015DA00F7EF0AF0000EDB6F000EDC6F000EDD6F16
:1015EA00000EDE6FE151E05DD8B0FEEF0AF000EFC9
:1015FA000BF027EF0BF0DFAD05EF0BF007EF0BF069
:10160A0009EF0BF0800EDF1BE1C0E2F0E0C0E1F071
:10161A00E2C0E0F0D7C0E2F0DBC0D7F0E2C0DBF016
:10162A00D8C0E2F0DCC0D8F0E2C0DCF0D9C0E2F009
:10163A00DDC0D9F0E2C0DDF0DAC0E2F0DEC0DAF0F7
:10164A00E2C0DEF0000EE26FE151E0C039F03A6A22
:10165A00395E000E3A5A3ABE3CEF0BF03A5009E1B5
:10166A001A0E395CD8A03CEF0BF03EEF0BF075EF89
:10167A000BF0D751D811D911DA11D8A447EF0BF0D2
:10168A004AEF0BF0010E4BEF0BF0000EE26F000E6B
:10169A00D76F000ED86F000ED96F000EDA6FE0C058
:1016AA00E1F07EEF0BF0E2A15DEF0BF05FEF0BF0E4
:1016BA0065EF0BF0D890E2310109E26F67EF0BF0AA
:1016CA00D890E233D7A16CEF0BF06EEF0BF06FEF0F
:1016DA000BF0E28FDA35DA33D933D833D733E12B4B
:1016EA00E051E15DD8A07CEF0BF07EEF0BF058EFF4
:1016FA000BF0DFBD83EF0BF085EF0BF0C5EF0BF0BE
:10170A00E151D8A48BEF0BF08DEF0BF097EF0BF0B4
:10171A00000ED76F000ED86F000ED96F000EDA6F69
:10172A00E6EF0CF0DB51D727DC51D823DD51D92362
:10173A00DE51DA23DAA1A4EF0BF0A6EF0BF052EF99
:10174A000CF0E2A1ABEF0BF0ADEF0BF0B3EF0BF047
:10175A00D890E2310109E26FB5EF0BF0D890E2338D
:10176A00D7A1BAEF0BF0BCEF0BF0BDEF0BF0E28F95
:10177A00DA35DA33D933D833D733E12B52EF0CF0D9
:10178A00DB51D75DDC51D859DD51D959DA51800A7C
:10179A00396EDE51800A3958D8B0D6EF0BF0D8EF3F
:1017AA000BF003EF0CF0D751DB5D396ED851DC59E1
:1017BA003A6ED951DD593B6EDA51DE593C6EFF0E55
:1017CA003924D76FFF0E3A20D86FFF0E3B20D96F0E
:1017DA00FF0E3C20DA6F800EDF1BE26DE251D8A4C7
:1017EA00F9EF0BF0FBEF0BF00BEF0CF0010ED72724
:1017FA00000ED823D923DA230BEF0CF0DB51D75F85
:10180A00DC51D85BDD51D95BDE51DA5BD751D81197
:10181A00D911DA11D8A414EF0CF016EF0CF04BEF33
:10182A000CF0E251D8A41CEF0CF01EEF0CF04BEFB9
:10183A000CF0000ED76F000ED86F000ED96F000E95
:10184A00DA6FE6EF0CF0D890D737D837D937DA37CE
:10185A00E2AF32EF0CF034EF0CF035EF0CF0D78139
:10186A00E2A13AEF0CF03CEF0CF040EF0CF0D8801C
:10187A00E23742EF0CF0D890E237E151D8B448EFA2
:10188A000CF04AEF0CF04BEF0CF0E107D9AF50EF38
:10189A000CF052EF0CF028EF0CF0000EE06FE2AF04
:1018AA0059EF0CF05BEF0CF073EF0CF0E2C039F07B
:1018BA007F0E3916D8B464EF0CF066EF0CF06AEFBD
:1018CA000CF0010EE06F73EF0CF0D7A16FEF0CF084
:1018DA0071EF0CF073EF0CF066EF0CF0E051D8B436
:1018EA0079EF0CF07BEF0CF0A6EF0CF0010ED72786
:1018FA00000ED823D923DA23DAA186EF0CF088EF79
:10190A000CF0A6EF0CF0D7C039F0D8C03AF0D9C025
:10191A003BF0DAC03CF03C343C323B323A323932AA
:10192A0039C0D7F03AC0D8F03BC0D9F03CC0DAF0A1
:10193A00E129D8B4A3EF0CF0A5EF0CF0A6EF0CF058
:10194A00E12BE129D8B4ACEF0CF0AEEF0CF0B6EF16
:10195A000CF0E151D8A4B4EF0CF0B6EF0CF0C8EFDC
:10196A000CF0000ED76F000ED86F000ED96F000E64
:10197A00DA6FE151D8A4C4EF0CF0C6EF0CF0C8EF4F
:10198A000CF0000EDF6FE1A1CDEF0CF0CFEF0CF001
:10199A00D2EF0CF0D98FD3EF0CF0D99FD890E13168
:1019AA00DA6FDFAFDBEF0CF0DDEF0CF0DEEF0CF0FF
:1019BA00DA8FD7C0D7F0D8C0D8F0D9C0D9F0DAC0FA
:1019CA00DAF012002350800B306E23502324376E36
:1019DA0022AEF2EF0CF0F4EF0CF0F5EF0CF03780DA
:1019EA003750D8B4FBEF0CF0FDEF0CF012EF0DF00E
:1019FA003728D8A403EF0DF005EF0DF00DEF0DF029
:101A0A00000E206E000E216E000E226E000E236E56
:101A1A00228E000E236E1AEF0DF0000E206E000EBD
:101A2A00216E000E226E000E236E2750800B301A94
:101A3A0027502724386E26AE25EF0DF027EF0DF03C
:101A4A0028EF0DF038803850D8B42EEF0DF030EF73
:101A5A000DF045EF0DF03828D8A436EF0DF038EF29
:101A6A000DF040EF0DF0000E246E000E256E000EF4
:101A7A00266E000E276E268E000E276E4DEF0DF095
:101A8A00000E246E000E256E000E266E000E276EC6
:101A9A002450251026102710D8A456EF0DF058EF21
:101AAA000DF070EF0DF0000E206E000E216E000E8C
:101ABA00226E000E236E800E22127F0E23123050E9
:101ACA00231220C020F021C021F022C022F023C01E
:101ADA0023F0B3EF0EF03750D8A476EF0DF078EF7D
:101AEA000DF082EF0DF0000E206E000E216E000E3A
:101AFA00226E000E236EB3EF0EF0385037C028F076
:101B0A00296A285E000E295A7F0E2824316E000E9B
:101B1A002920326E20C02CF021C02DF022C02EF0D8
:101B2A0023C02FF0000E206E000E216E000E226ED2
:101B3A00000E236E000E336E000E346E000E356EEC
:101B4A00000E366E000E386EE3EF0DF03850D8B442
:101B5A00B1EF0DF0B3EF0DF0CAEF0DF0D8902C36BF
:101B6A002D362E362F36D890203621362236233679
:101B7A0036AEC2EF0DF0C4EF0DF0C5EF0DF02080C8
:101B8A00D890333634363536363624502C5C2550C8
:101B9A002D5826502E5827502F58D8A0D7EF0DF081
:101BAA00D9EF0DF0E2EF0DF0368C24502C5E255063
:101BBA002D5A26502E5A27502F5A382A190E386471
:101BCA00E9EF0DF0EBEF0DF0ABEF0DF02C502D100F
:101BDA002E102F10D8B4F4EF0DF0F6EF0DF00EEF33
:101BEA000EF033800EEF0EF0D890203621362236D2
:101BFA00233636AE03EF0EF005EF0EF006EF0EF0C9
:101C0A002080D89033363436353636363106D8A069
:101C1A00320622AE13EF0EF015EF0EF0F9EF0DF0CB
:101C2A00000E386E36AE1CEF0EF01EEF0EF042EFCD
:101C3A000EF0FF0E3314286EFF0E3414296EFF0EB9
:101C4A0035142A6E7F0E36142B6E285029102A104E
:101C5A002B10D8B433EF0EF035EF0EF039EF0EF04B
:101C6A00010E386E42EF0EF020A03EEF0EF040EF6C
:101C7A000EF042EF0EF035EF0EF03850D8B448EFC0
:101C8A000EF04AEF0EF06EEF0EF0010E2026000E57
:101C9A0021222222232223A055EF0EF057EF0EF025
:101CAA006EEF0EF020C028F021C029F022C02AF0E1
:101CBA0023C02BF02B342B322A322932283228C067
:101CCA0020F029C021F02AC022F02BC023F0314A8B
:101CDA00322A32BE79EF0EF0325008E13128D8A00C
:101CEA0079EF0EF07BEF0EF086EF0EF0000E326EFB
:101CFA003168000E206E000E216E000E226E000E5C
:101D0A00236E32BE93EF0EF0325006E13104D8B0A2
:101D1A0091EF0EF093EF0EF0A1EF0EF0000E326E7F
:101D2A00000E316E000E206E000E216E000E226E25
:101D3A00000E236E000E306E31C037F037A0A8EFC8
:101D4A000EF0AAEF0EF0ADEF0EF0228EAEEF0EF00F
:101D5A00229ED8903730236E64EF0DF012001A6E6F
:101D6A001A50D8B4BBEF0EF0BDEF0EF0DFEF0EF055
:101D7A0015BEC4EF0EF0C2EF0EF0DFEF0EF012C088
:101D8A0016F013C017F014C018F015C019F0161E7B
:101D9A00171E181E191E162A000E1722182219229B
:101DAA0016C01CF017C01DF018C01EF019C01FF095
:101DBA00E7EF0EF012C01CF013C01DF014C01EF0A5
:101DCA0015C01FF01250131014101510D8A4F0EFFC
:101DDA000EF0F2EF0EF0FCEF0EF0000E126E000E97
:101DEA00136E000E146E000E156E8DEF0FF0960E28
:101DFA001B6E06EF0FF01B2AD8901F321E321D32BF
:101E0A001C32000E1C14166E000E1D14176E000EE6
:101E1A001E14186EFE0E1F14196E16501710181085
:101E2A001910D8A41BEF0FF01DEF0FF000EF0FF001
:101E3A002BEF0FF01B2A010E1C26000E1D221E225C
:101E4A001F22D8901F321E321D321C32000E1C1463
:101E5A00166E000E1D14176E000E1E14186EFF0E5D
:101E6A001F14196E1650171018101910D8A440EF25
:101E7A000FF042EF0FF01FEF0FF04AEF0FF01B06C3
:101E8A00D8901C361D361E361F361EBE4FEF0FF079
:101E9A0051EF0FF059EF0FF0020E1B6057EF0FF0E2
:101EAA0059EF0FF044EF0FF01BB05EEF0FF060EF49
:101EBA000FF061EF0FF01E9ED8901B321BC016F078
:101ECA00176A186A196A16C019F0186A176A166A20
:101EDA0016501C1217501D1218501E1219501F129C
:101EEA001A50D8B47BEF0FF07DEF0FF085EF0FF0AB
:101EFA0015BE84EF0FF082EF0FF085EF0FF01F8E03
:101F0A001CC012F01DC013F01EC014F01FC015F043
:101F1A001200010E186E1250D8B496EF0FF098EF17
:101F2A000FF0A8EF0FF01250D96EDA6ADF30E832FC
:101F3A00E832070B136E070E1364A6EF0FF0A8EF33
:101F4A000FF0FFEF0FF0000E186E15EF10F01250A1
:101F5A00D96EDA6ADF30E832E832070B136E010E07
:101F6A00146E132ABBEF0FF0D8901436132EB9EF64
:101F7A000FF01450FF0A156E1250D96EDA6ADF504C
:101F8A00070B020DF350B90FD96EDA6ADECF16F0DD
:101F9A00DDCF17F016C0D9FF17C0DAFF1550DF16CC
:101FAA0015EF10F01250D96EDA6ADF30E832E832F3
:101FBA00070B136E010E146E132AE6EF0FF0D8907A
:101FCA001436132EE4EF0FF01250D96EDA6ADF508E
:101FDA00070B020DF350B90FD96EDA6ADECF15F08E
:101FEA00DDCF16F015C0D9FF16C0DAFF1450DF1284
:101FFA0015EF10F01250D96EDA6ADFBC07EF10F055
:10200A000AEF10F0010E0BEF10F0000E000AD8B420
:10201A00ACEF0FF0010AD8B4D7EF0FF0A8EF0FF02A
:10202A0018501200010E196E1250D8B41FEF10F09A
:10203A0021EF10F031EF10F01250D96EDA6ADF306A
:10204A00E832E832070B146E070E14642FEF10F013
:10205A0031EF10F088EF10F0000E196E9DEF10F0BE
:10206A001250D96EDA6ADF30E832E832070B146EA2
:10207A00010E156E142A44EF10F0D8901536142E5E
:10208A0042EF10F01550FF0A166E1250D96EDA6A36
:10209A00DF50070B020DF350AF0FD96EDA6ADECFAD
:1020AA0017F0DDCF18F017C0D9FF18C0DAFF1650A5
:1020BA00DF169DEF10F01250D96EDA6ADF30E8327F
:1020CA00E832070B146E010E156E142A6FEF10F02A
:1020DA00D8901536142E6DEF10F01250D96EDA6AB8
:1020EA00DF50070B020DF350AF0FD96EDA6ADECF5D
:1020FA0016F0DDCF17F016C0D9FF17C0DAFF15505A
:10210A00DF129DEF10F01350146E156A1550000A75
:10211A00D8B492EF10F031EF10F01450000AD8B48E
:10212A0035EF10F0010AD8B460EF10F031EF10F07B
:10213A0019501200010E086E0150D8B4A7EF10F022
:10214A00A9EF10F0B9EF10F00150D96EDA6ADF305A
:10215A00E832E832070B036E070E0364B7EF10F09C
:10216A00B9EF10F010EF11F0000E086E25EF11F024
:10217A000150D96EDA6ADF30E832E832070B036EB3
:10218A00010E046E032ACCEF10F0D8900436032E09
:10219A00CAEF10F00450FF0A056E0150D96EDA6AD0
:1021AA00DF50070B020DF350AF0FD96EDA6ADECF9C
:1021BA0006F0DDCF07F006C0D9FF07C0DAFF0550E9
:1021CA00DF1625EF11F00150D96EDA6ADF30E832F6
:1021DA00E832070B036E010E046E032AF7EF10F0C4
:1021EA00D8900436032EF5EF10F00150D96EDA6A52
:1021FA00DF50070B020DF350AF0FD96EDA6ADECF4C
:10220A0005F0DDCF06F005C0D9FF06C0DAFF04509D
:10221A00DF1225EF11F00250036E046A0450000A1F
:10222A00D8B41AEF11F0B9EF10F00350000AD8B47D
:10223A00BDEF10F0010AD8B4E8EF10F0B9EF10F0D2
:10224A0008501200143415341B6E1B50D8A430EFFA
:10225A0011F032EF11F03CEF11F0000E126E000E89
:10226A00136E000E146E000E156EA9EF11F012C057
:10227A0016F013C017F014C018F015C019F0200E8C
:10228A004CEF11F0D8901932183217321632E82E64
:10229A0047EF11F016501A6E148EFF0E1216FF0E2B
:1022AA001316FF0E1416000E1516960E1B5E1BBE95
:1022BA0063EF11F061EF11F079EF11F01B50800A12
:1022CA00970FD8B06BEF11F06DEF11F06FEF11F0BF
:1022DA0032EF11F0D89015321432133212321B3EFB
:1022EA006FEF11F091EF11F01F0E1B647FEF11F0E9
:1022FA0081EF11F089EF11F032EF11F0D890123618
:10230A001336143615361B061B50D8A48FEF11F05E
:10231A0091EF11F083EF11F01A50D8B497EF11F042
:10232A0099EF11F0A1EF11F0151E141E131E126C75
:10233A00000E13221422152212C012F013C013F039
:10234A0014C014F015C015F012001250D8A4B0EF42
:10235A0011F0B2EF11F0B4EF11F016EF12F01250C3
:10236A00D96EDA6A080ED926DFA0BEEF11F0C0EFE7
:10237A0011F0EDEF11F0AB881250D96EDA6A080E3F
:10238A00D926DFA2CBEF11F0CDEF11F0FAEF11F061
:10239A009D8AF28EF28C1250D96EDA6A0E0ED92606
:1023AA00DECF3DF0DDCF3EF01250D96EDA6A100E64
:1023BA00D926DECF77F0DDCF78F01250D96EDA6AFF
:1023CA00120ED926DECF75F0DDCF76F0FAEF11F0D6
:1023DA001250D96EDA6A080ED926DFB2F7EF11F079
:1023EA00F9EF11F0FAEF11F09D9A1250D96EDA6AEC
:1023FA00080ED926DFA404EF12F006EF12F009EF57
:10240A0012F0AB8C16EF12F01250D96EDA6A080E7F
:10241A00D926DFB413EF12F015EF12F016EF12F00F
:10242A00AB9C12001250D8A41DEF12F01FEF12F04D
:10243A0021EF12F071EF12F01250D96EDA6A050E1E
:10244A00D926DFA02BEF12F02DEF12F048EF12F091
:10245A00AC8A1250D96EDA6A050ED926DFA238EF95
:10246A0012F03AEF12F055EF12F09D88F28EF28CCC
:10247A001250D96EDA6A0C0ED926DECF79F0DDCF8A
:10248A007AF055EF12F01250D96EDA6A050ED92693
:10249A00DFB252EF12F054EF12F055EF12F09D989E
:1024AA001250D96EDA6A050ED926DFA45FEF12F050
:1024BA0061EF12F064EF12F0AC8071EF12F012507B
:1024CA00D96EDA6A050ED926DFB46EEF12F070EF14
:1024DA0012F071EF12F0AC9012000950D8A478EF04
:1024EA0012F07AEF12F07CEF12F0A6EF12F049C068
:1024FA000BF00950D96EDA6ADF500F0B0A6E0B50D7
:10250A000A18F80B0A180B6E0950D96EDA6ADF3806
:10251A00070B0A6E0A460A460A460B500A18C70BE8
:10252A000A180B6E0B9C0950D96EDA6ADFAE02D01C
:10253A000B8E01D00B9E0B0E016E010E026E9FECEC
:10254A0010F012000950D8A4ADEF12F0AFEF12F05C
:10255A00B1EF12F0DBEF12F048C00BF00950D96E60
:10256A00DA6ADF500F0B0A6E0B500A18F80B0A18BA
:10257A000B6E0950D96EDA6ADF38070B0A6E0A4603
:10258A000A460A460B500A18C70B0A180B6E0B9C10
:10259A000950D96EDA6ADFAE02D00B8E01D00B9EDB
:1025AA000B0E016E000E026E9FEC10F012001D5011
:1025BA00D8A4E2EF12F0E4EF12F0E6EF12F00EEF19
:1025CA0013F04AC01FF01D50D96EDA6ADF500F0BA4
:1025DA001E6E1F501E18F80B1E181F6E1D50D96E46
:1025EA00DA6ADF38070B1E6E1E461E461E461F504D
:1025FA001E18C70B1E181F6E1F9C1D50D96EDA6A53
:10260A00DFAE02D01F8E01D01F9E1F0E1A6E3FEC46
:10261A0013F01200C30E016E4B0E026EBDEC13F0E6
:10262A004C6E630E4B18D8A41DEF13F01FEF13F076
:10263A002AEF13F04D0E096E72EC12F0C30E016E02
:10264A00620E026EF3EC13F04C6E640E4B18D8A4B3
:10265A0031EF13F033EF13F03EEF13F04D0E096E26
:10266A00A7EC12F0C30E016E610E026EF3EC13F0CA
:10267A004C6E1200010E1C6E1A50D8B447EF13F0BC
:10268A0049EF13F059EF13F01A50D96EDA6ADF30B6
:10269A00E832E832070B1B6E070E1B6457EF13F084
:1026AA0059EF13F05DEF13F0000E1C6E6CEF13F090
:1026BA001AC012F08EEC0FF01AC012F01A50D96E2E
:1026CA00DA6A000EDFBE010E136E17EC10F01C5012
:1026DA0012001A0EF66E280EF76E000EF86E00EE55
:1026EA00A5F010EE32F00900F5CFEEFFE550E1500B
:1026FA00FAE1F00EF66E280EF76E000EF86E09007B
:10270A00F5CF4CF00900F5CF4DF000EE60F0450E24
:10271A00EE6AE806FDE100EE3DF00F0EEE6AE8060D
:10272A00FDE14E904E9200013EEF14F00001EE5191
:10273A00D8A4A2EF13F0A4EF13F0A8EF13F0000E41
:10274A00EF6FBBEF13F0AB9E948E948CEEC0E3F068
:10275A000DEC08F0EEC012F017EC12F0EEC012F019
:10276A00AAEC11F0AB8E010E0001EF6FEF511200CF
:10277A000150D8A4C3EF13F0C5EF13F0C9EF13F05B
:10278A00000E036ED7EF13F09EAACEEF13F0D0EF30
:10279A0013F0C5EF13F00250D96EDA6AAECFDFFF3D
:1027AA00010E036E035012001250D8A4DFEF13F08B
:1027BA00E1EF13F0E5EF13F0000E146EF1EF13F0F2
:1027CA00ACA2EAEF13F0ECEF13F0E5EF13F013C04D
:1027DA00ADFF9D88010E146E145012000150D8A44A
:1027EA00F9EF13F0FBEF13F0FFEF13F0000E036E97
:1027FA000BEF14F0ACA204EF14F006EF14F0FFEFA5
:10280A0013F002C0ADFF9D88010E036E0350120043
:10281A00800F810F820F830F840F890F8A0F8B0F0E
:10282A008C0F8D0F920F930F940F950F960F802593
:10283A000000000300000300000000001E26000044
:10284A0000003D503E10D8B42DEF14F02FEF14F0D5
:10285A003DEF14F002D83BEF14F00500FA6E3D503C
:10286A00FD6E3E50FE6EFF6AFA5012003DEF14F004
:10287A00120063EC14F0C30E0001EE6F9BEC13F030
:10288A004C6EC30E126E610E136ED9EC13F04C6EC1
:10289A004DEF14F0FFEF00F0016EF2900104D8A49E
:1028AA0059EF14F05BEF14F05DEF14F05DEF14F0E4
:1028BA0012004D0E1D6EDCEC12F012005EEC14F0EC
:1028CA001200A19212009E9212009E901200F2949F
:1028DA001200F29212009D981200A19012009E948A
:0828EA0012009E9C1200010285
:020000040030CA
:0E000000FF02191FFF8181FF0FC00FE00F40AC
:00000001FF
