:04000000FFEF00F01E
:100008004C82FACF0EF0FBCF0FF0D9CF10F0DACF39
:1000180011F0F3CF12F0F4CF13F0F2A816EF00F0BE
:1000280018EF00F021EF00F0F2A21DEF00F01FEF33
:1000380000F021EF00F05EEC14F0F2A626EF00F0DD
:1000480028EF00F042EF00F0F2A02DEF00F02FEFC4
:1000580000F042EF00F07DA834EF00F036EF00F03A
:1000680042EF00F081A83BEF00F03DEF00F042EFD7
:1000780000F0010E35EC14F061EF00F0F2A647EF46
:1000880000F049EF00F061EF00F0F2A04EEF00F051
:1000980050EF00F061EF00F07DA855EF00F057EF4A
:1000A80000F061EF00F081B85CEF00F05EEF00F067
:1000B80061EF00F0000E35EC14F09DAC66EF00F037
:1000C80068EF00F071EF00F09EAC6DEF00F06FEF9D
:1000D80000F071EF00F066EC14F0F2AA76EF00F091
:1000E80078EF00F081EF00F0F2A47DEF00F07FEFF1
:1000F80000F081EF00F05CEC14F09DA086EF00F0BA
:1001080088EF00F091EF00F09EA08DEF00F08FEFE8
:1001180000F091EF00F05AEC14F09DA296EF00F079
:1001280098EF00F0A1EF00F09EA29DEF00F09FEF86
:1001380000F0A1EF00F058EC14F0A0A2A6EF00F038
:10014800A8EF00F0B1EF00F0A1A2ADEF00F0AFEF23
:1001580000F0B1EF00F056EC14F09DA4B6EF00F0FB
:10016800B8EF00F0C1EF00F09EA4BDEF00F0BFEFC4
:1001780000F0C1EF00F064EC14F0A0A0C6EF00F0AE
:10018800C8EF00F0D1EF00F0A1A0CDEF00F0CFEF65
:1001980000F0D1EF00F062EC14F09DA8D6EF00F06B
:1001A800D8EF00F0E1EF00F09EA8DDEF00F0DFEF00
:1001B80000F0E1EF00F060EC14F09DAAE6EF00F02B
:1001C800E8EF00F0F1EF00F09EAAEDEF00F0EFEF9E
:1001D80000F0F1EF00F01DEC14F013C0F4FF12C0B2
:1001E800F3FF11C0DAFF10C0D9FF0FC0FBFF0EC02C
:0A01F800FAFF4C9211007FEF13F0A4
:10100000003738392F3435362A3132332D23303DED
:091010002B256C7500257500000C
:10101A00000E0001EA6F000EEB6F000EEC6F000E7F
:10102A00ED6F3650D8A41CEF08F01EEF08F036EF2B
:10103A000AF07FEF0AF0AC98AC94B8963650D96EA5
:10104A00DA6ADECF14F0DECF15F0DECF16F0DECF8F
:10105A0017F0000EAFEC0EF014C026F015C027F002
:10106A0016C028F017C029F0000E226E240E236E37
:10107A00F40E246E4A0E256EE1EC0CF022C0EEF05E
:10108A0023C0EFF024C0F0F025C0F1F0000E266E68
:10109A00000E276E800E286E420E296EEEC022F0D8
:1010AA00EFC023F0F0C024F0F1C025F0E1EC0CF021
:1010BA0022C02EF023C02FF024C030F025C031F01A
:1010CA00000E326E000E336E800E346EBF0E356E19
:1010DA0080EC0AF02EC0EAF02FC0EBF030C0ECF042
:1010EA0031C0EDF060EF0AF0AC98AC84B896365097
:1010FA00D96EDA6ADECF14F0DECF15F0DECF16F045
:10110A00DECF17F0000EAFEC0EF014C026F015C0BB
:10111A0027F016C028F017C029F0000E226E240E00
:10112A00236EF40E246E4A0E256EE1EC0CF022C0FA
:10113A00EEF023C0EFF024C0F0F025C0F1F0000E6D
:10114A00266E000E276E800E286E410E296EEEC0A6
:10115A0022F0EFC023F0F0C024F0F1C025F0E1EC5A
:10116A000CF022C02EF023C02FF024C030F025C08E
:10117A0031F0000E326E000E336E800E346EBF0EEA
:10118A00356E80EC0AF02EC0EAF02FC0EBF030C0CA
:10119A00ECF031C0EDF077EF08F0AC98AC94B8867B
:1011AA003650D96EDA6ADECF14F0DECF15F0DECF14
:1011BA0016F0DECF17F0000EAFEC0EF014C026F0DA
:1011CA0015C027F016C028F017C029F0000E226EAD
:1011DA00240E236EF40E246E4A0E256EE1EC0CF0FA
:1011EA0022C0EEF023C0EFF024C0F0F025C0F1F0E9
:1011FA00000E266E000E276E800E286E410E296E96
:10120A00EEC022F0EFC023F0F0C024F0F1C025F0C8
:10121A00E1EC0CF022C02EF023C02FF024C030F0F5
:10122A0025C031F0000E326E000E336E800E346E21
:10123A00BF0E356E80EC0AF02EC0EAF02FC0EBF03C
:10124A0030C0ECF031C0EDF077EF08F0AC98AC8428
:10125A00B8863650D96EDA6ADECF14F0DECF15F0D2
:10126A00DECF16F0DECF17F0000EAFEC0EF014C092
:10127A0026F015C027F016C028F017C029F0000E76
:10128A00226E240E236EF40E246E4A0E256EE1ECB5
:10129A000CF022C0EEF023C0EFF024C0F0F025C01D
:1012AA00F1F0000E266E000E276E800E286E400E9C
:1012BA00296EEEC022F0EFC023F0F0C024F0F1C096
:1012CA0025F0E1EC0CF022C02EF023C02FF024C050
:1012DA0030F025C031F0000E326E000E336E800EF3
:1012EA00346EBF0E356E80EC0AF02EC0EAF02FC0C5
:1012FA00EBF030C0ECF031C0EDF077EF08F0AC88DD
:10130A00B8963650D96EDA6ADECF14F0DECF15F011
:10131A00DECF16F0DECF17F0000EAFEC0EF014C0E1
:10132A0026F015C027F016C028F017C029F0000EC5
:10133A00226E240E236EF40E246E4A0E256EE1EC04
:10134A000CF022C0EEF023C0EFF024C0F0F025C06C
:10135A00F1F0000E266E000E276E800E286E400EEB
:10136A00296EEEC022F0EFC023F0F0C024F0F1C0E5
:10137A0025F0E1EC0CF022C02EF023C02FF024C09F
:10138A0030F025C031F0000E326E000E336E800E42
:10139A00346EBF0E356E80EC0AF02EC0EAF02FC014
:1013AA00EBF030C0ECF031C0EDF077EF08F0AC882C
:1013BA00B8863650D96EDA6ADECF14F0DECF15F071
:1013CA00DECF16F0DECF17F0000EAFEC0EF014C031
:1013DA0026F015C027F016C028F017C029F0000E15
:1013EA00226E240E236EF40E246E4A0E256EE1EC54
:1013FA000CF022C0EEF023C0EFF024C0F0F025C0BC
:10140A00F1F0000E266E000E276E800E286E400E3A
:10141A00296EEEC022F0EFC023F0F0C024F0F1C034
:10142A0025F0E1EC0CF022C02EF023C02FF024C0EE
:10143A0030F025C031F0000E326E000E336E800E91
:10144A00346EBF0E356E80EC0AF02EC0EAF02FC063
:10145A00EBF030C0ECF031C0EDF077EF08F060EF60
:10146A000AF03650D96EDA6A040ED926DF50376E82
:10147A00386A3850000AD8B445EF0AF034EF0AF057
:10148A003750000AD8B420EF08F0010AD8B479EF2F
:10149A0008F0030AD8B4D2EF08F0010AD8B42BEF47
:1014AA0009F0070AD8B484EF09F0010AD8B4DCEFCE
:1014BA0009F034EF0AF0EAC014F0EBC015F0ECC002
:1014CA0016F0EDC017F022EC11F01450AF6EEAC01E
:1014DA0014F0EBC015F0ECC016F0EDC017F022ECDA
:1014EA0011F015C014F016C015F017C016F0176ADF
:1014FA001450B06E12003150800B0001E66F31506B
:10150A003124E86F30AE8CEF0AF08EEF0AF08FEFDD
:10151A000AF0E881E851D8B495EF0AF097EF0AF09B
:10152A00ACEF0AF0E829D8A49DEF0AF09FEF0AF081
:10153A00A7EF0AF0000E2E6E000E2F6E000E306E10
:10154A00000E316E308E000E316EB4EF0AF0000ECE
:10155A002E6E000E2F6E000E306E000E316E35505C
:10156A00800BE76FE651E719D8B4BEEF0AF0C0EF77
:10157A000AF0C1EF0AF0E68D35503524E76F34AE34
:10158A00C9EF0AF0CBEF0AF0CCEF0AF0E781E75196
:10159A00D8B4D2EF0AF0D4EF0AF0E9EF0AF0E7295B
:1015AA00D8A4DAEF0AF0DCEF0AF0E4EF0AF0000E52
:1015BA00326E000E336E000E346E000E356E348EAF
:1015CA00000E356EF1EF0AF0000E326E000E336E29
:1015DA00000E346E000E356EE851E75DD8B0F8EFB4
:1015EA000AF0FAEF0AF021EF0BF0E6ADFFEF0AF08E
:1015FA0001EF0BF003EF0BF0800EE61BE8C0E9F0F9
:10160A00E7C0E8F0E9C0E7F02EC0E9F032C02EF0FA
:10161A00E9C032F02FC0E9F033C02FF0E9C033F04F
:10162A0030C0E9F034C030F0E9C034F031C0E9F03C
:10163A0035C031F0E9C035F0000EE96FE851E7C076
:10164A00E2F0E36BE25F000EE35BE3BF36EF0BF021
:10165A00E35109E11A0EE25DD8A036EF0BF038EF3C
:10166A000BF06FEF0BF02E502F1030103110D8A462
:10167A0041EF0BF044EF0BF0010E45EF0BF0000EBB
:10168A00E96F000E2E6E000E2F6E000E306E000EE9
:10169A00316EE7C0E8F078EF0BF0E9A157EF0BF0F5
:1016AA0059EF0BF05FEF0BF0D890E9310109E96FC0
:1016BA0061EF0BF0D890E9332EA066EF0BF068EFDC
:1016CA000BF069EF0BF0E98F3134313230322F32BF
:1016DA002E32E82BE751E85DD8A076EF0BF078EFD1
:1016EA000BF052EF0BF0E6BD7DEF0BF07FEF0BF046
:1016FA00BFEF0BF0E851D8A485EF0BF087EF0BF0A2
:10170A0091EF0BF0000E2E6E000E2F6E000E306E53
:10171A00000E316EE0EF0CF032502E2633502F229D
:10172A00345030223550312231A09EEF0BF0A0EF19
:10173A000BF04CEF0CF0E9A1A5EF0BF0A7EF0BF0C3
:10174A00ADEF0BF0D890E9310109E96FAFEF0BF07B
:10175A00D890E9332EA0B4EF0BF0B6EF0BF0B7EF49
:10176A000BF0E98F3134313230322F322E32E82BFE
:10177A004CEF0CF032502E5C33502F583450305806
:10178A003150800AE26F3550800AE259D8B0D0EF62
:10179A000BF0D2EF0BF0FDEF0BF02E50325CE26F44
:1017AA002F503358E36F30503458E46F3150355866
:1017BA00E56FFF0EE2252E6EFF0EE3212F6EFF0E60
:1017CA00E421306EFF0EE521316E800EE61BE96DD5
:1017DA00E951D8A4F3EF0BF0F5EF0BF005EF0CF09D
:1017EA00010E2E26000E2F223022312205EF0CF098
:1017FA0032502E5E33502F5A3450305A3550315AA7
:10180A002E502F1030103110D8A40EEF0CF010EF1C
:10181A000CF045EF0CF0E951D8A416EF0CF018EFD4
:10182A000CF045EF0CF0000E2E6E000E2F6E000E1F
:10183A00306E000E316EE0EF0CF0D8902E362F3657
:10184A0030363136E9AF2CEF0CF02EEF0CF02FEFDB
:10185A000CF02E80E9A134EF0CF036EF0CF03AEFE1
:10186A000CF0D880E9373CEF0CF0D890E937E85112
:10187A00D8B442EF0CF044EF0CF045EF0CF0E80757
:10188A0030AE4AEF0CF04CEF0CF022EF0CF0000EE9
:10189A00E76FE9AF53EF0CF055EF0CF06DEF0CF07A
:1018AA00E9C0E2F07F0EE217D8B45EEF0CF060EF09
:1018BA000CF064EF0CF0010EE76F6DEF0CF02EA048
:1018CA0069EF0CF06BEF0CF06DEF0CF060EF0CF0C1
:1018DA00E751D8B473EF0CF075EF0CF0A0EF0CF0F1
:1018EA00010E2E26000E2F223022312231A080EF47
:1018FA000CF082EF0CF0A0EF0CF02EC0E2F02FC03B
:10190A00E3F030C0E4F031C0E5F0E535E533E43327
:10191A00E333E233E2C02EF0E3C02FF0E4C030F04C
:10192A00E5C031F0E829D8B49DEF0CF09FEF0CF038
:10193A00A0EF0CF0E82BE829D8B4A6EF0CF0A8EF3A
:10194A000CF0B0EF0CF0E851D8A4AEEF0CF0B0EF09
:10195A000CF0C2EF0CF0000E2E6E000E2F6E000E71
:10196A00306E000E316EE851D8A4BEEF0CF0C0EF15
:10197A000CF0C2EF0CF0000EE66FE8A1C7EF0CF016
:10198A00C9EF0CF0CCEF0CF0308ECDEF0CF0309E9E
:10199A00D890E831316EE6AFD5EF0CF0D7EF0CF006
:1019AA00D8EF0CF0318E2EC02EF02FC02FF030C0A1
:1019BA0030F031C031F012002550800B0001D96F90
:1019CA0025502524E06F24AEEDEF0CF0EFEF0CF07C
:1019DA00F0EF0CF0E081E051D8B4F6EF0CF0F8EF3C
:1019EA000CF00DEF0DF0E029D8A4FEEF0CF000EF9B
:1019FA000DF008EF0DF0000E226E000E236E000EA1
:101A0A00246E000E256E248E000E256E15EF0DF045
:101A1A00000E226E000E236E000E246E000E256E3E
:101A2A002950800BD91B29502924E16F28AE20EFB9
:101A3A000DF022EF0DF023EF0DF0E181E151D8B462
:101A4A0029EF0DF02BEF0DF040EF0DF0E129D8A4AE
:101A5A0031EF0DF033EF0DF03BEF0DF0000E266E77
:101A6A00000E276E000E286E000E296E288E000EBC
:101A7A00296E48EF0DF0000E266E000E276E000E3E
:101A8A00286E000E296E2650271028102910D8A477
:101A9A0051EF0DF053EF0DF06BEF0DF0000E226ECB
:101AAA00000E236E000E246E000E256E800E241288
:101ABA007F0E2512D951251222C022F023C023F00D
:101ACA0024C024F025C025F0AEEF0EF0E051D8A4D2
:101ADA0071EF0DF073EF0DF07DEF0DF0000E226E39
:101AEA00000E236E000E246E000E256EAEEF0EF071
:101AFA00E151E0C02AF02B6A2A5E000E2B5A7F0EB3
:101B0A002A24DA6F000E2B20DB6F22C0D5F023C007
:101B1A00D6F024C0D7F025C0D8F0000E226E000EF1
:101B2A00236E000E246E000E256E000EDC6F000E72
:101B3A00DD6F000EDE6F000EDF6F000EE16FDEEF6D
:101B4A000DF0E151D8B4ACEF0DF0AEEF0DF0C5EFEA
:101B5A000DF0D890D537D637D737D837D890223620
:101B6A00233624362536DFAFBDEF0DF0BFEF0DF07B
:101B7A00C0EF0DF02280D890DC37DD37DE37DF3753
:101B8A002650D55D2750D6592850D7592950D859AB
:101B9A00D8A0D2EF0DF0D4EF0DF0DDEF0DF0DF8D10
:101BAA002650D55F2750D65B2850D75B2950D85B83
:101BBA00E12B190EE165E4EF0DF0E6EF0DF0A6EF6B
:101BCA000DF0D551D611D711D811D8B4EFEF0DF0C9
:101BDA00F1EF0DF009EF0EF0DC8109EF0EF0D8906D
:101BEA002236233624362536DFAFFEEF0DF000EF1E
:101BFA000EF001EF0EF02280D890DC37DD37DE37A9
:101C0A00DF37DA07D8A0DB0724AE0EEF0EF010EFAD
:101C1A000EF0F4EF0DF0000EE16FDFAF17EF0EF0EC
:101C2A0019EF0EF03DEF0EF0FF0EDC152A6EFF0ED7
:101C3A00DD152B6EFF0EDE152C6E7F0EDF152D6E59
:101C4A002A502B102C102D10D8B42EEF0EF030EF96
:101C5A000EF034EF0EF0010EE16F3DEF0EF022A010
:101C6A0039EF0EF03BEF0EF03DEF0EF030EF0EF0D5
:101C7A00E151D8B443EF0EF045EF0EF069EF0EF0E4
:101C8A00010E2226000E23222422252225A050EF0F
:101C9A000EF052EF0EF069EF0EF022C02AF023C0C8
:101CAA002BF024C02CF025C02DF02D342D322C32EF
:101CBA002B322A322AC022F02BC023F02CC024F067
:101CCA002DC025F0DA4BDB2BDBBF74EF0EF0DB51B6
:101CDA0008E1DA29D8A074EF0EF076EF0EF081EF62
:101CEA000EF0000EDB6FDA69000E226E000E236E14
:101CFA00000E246E000E256EDBBF8EEF0EF0DB5158
:101D0A0006E1DA05D8B08CEF0EF08EEF0EF09CEFFC
:101D1A000EF0000EDB6F000EDA6F000E226E000E60
:101D2A00236E000E246E000E256E000ED96FDAC0E7
:101D3A00E0F0E0A1A3EF0EF0A5EF0EF0A8EF0EF091
:101D4A00248EA9EF0EF0249ED890E031256E5FEF25
:101D5A000DF012001C6E1C50D8B4B6EF0EF0B8EF9E
:101D6A000EF0DAEF0EF017BEBFEF0EF0BDEF0EF079
:101D7A00DAEF0EF014C018F015C019F016C01AF0F8
:101D8A0017C01BF0181E191E1A1E1B1E182A000E39
:101D9A0019221A221B2218C01EF019C01FF01AC0DD
:101DAA0020F01BC021F0E2EF0EF014C01EF015C0A7
:101DBA001FF016C020F017C021F01450151016108D
:101DCA001710D8A4EBEF0EF0EDEF0EF0F7EF0EF0D0
:101DDA00000E146E000E156E000E166E000E176EB3
:101DEA0088EF0FF0960E1D6E01EF0FF01D2AD890A6
:101DFA00213220321F321E32000E1E14186E000EBF
:101E0A001F14196E000E20141A6EFE0E21141B6E7A
:101E1A00185019101A101B10D8A416EF0FF018EF4B
:101E2A000FF0FBEF0EF026EF0FF01D2A010E1E2613
:101E3A00000E1F2220222122D890213220321F3266
:101E4A001E32000E1E14186E000E1F14196E000E9C
:101E5A0020141A6EFF0E21141B6E185019101A1036
:101E6A001B10D8A43BEF0FF03DEF0FF01AEF0FF065
:101E7A0045EF0FF01D06D8901E361F362036213644
:101E8A0020BE4AEF0FF04CEF0FF054EF0FF0020EA6
:101E9A001D6052EF0FF054EF0FF03FEF0FF01DB03F
:101EAA0059EF0FF05BEF0FF05CEF0FF0209ED89028
:101EBA001D321DC018F0196A1A6A1B6A18C01BF075
:101ECA001A6A196A186A18501E1219501F121A50E3
:101EDA0020121B5021121C50D8B476EF0FF078EF65
:101EEA000FF080EF0FF017BE7FEF0FF07DEF0FF0CE
:101EFA0080EF0FF0218E1EC014F01FC015F020C015
:101F0A0016F021C017F01200010E1A6E1450D8B440
:101F1A0091EF0FF093EF0FF0A3EF0FF01450D96E7B
:101F2A00DA6ADF30E832E832070B156E070E1564FD
:101F3A00A1EF0FF0A3EF0FF0FAEF0FF0000E1A6EF9
:101F4A0010EF10F01450D96EDA6ADF30E832E83256
:101F5A00070B156E010E166E152AB6EF0FF0D89004
:101F6A001636152EB4EF0FF01650FF0A176E1450DE
:101F7A00D96EDA6ADF50070B020DF350B70FD96E2C
:101F8A00DA6ADECF18F0DDCF19F018C0D9FF19C010
:101F9A00DAFF1750DF1610EF10F01450D96EDA6A14
:101FAA00DF30E832E832070B156E010E166E152A7D
:101FBA00E1EF0FF0D8901636152EDFEF0FF0145020
:101FCA00D96EDA6ADF50070B020DF350B70FD96EDC
:101FDA00DA6ADECF17F0DDCF18F017C0D9FF18C0C4
:101FEA00DAFF1650DF1210EF10F01450D96EDA6AC9
:101FFA00DFBC02EF10F005EF10F0010E06EF10F053
:10200A00000E000AD8B4A7EF0FF0010AD8B4D2EF35
:10201A000FF0A3EF0FF01A501200010E1B6E1450AE
:10202A00D8B41AEF10F01CEF10F02CEF10F0145087
:10203A00D96EDA6ADF30E832E832070B166E070E1D
:10204A0016642AEF10F02CEF10F083EF10F0000E58
:10205A001B6E98EF10F01450D96EDA6ADF30E8324E
:10206A00E832070B166E010E176E162A3FEF10F0B4
:10207A00D8901736162E3DEF10F01750FF0A186E3B
:10208A001450D96EDA6ADF50070B020DF350AD0F08
:10209A00D96EDA6ADECF19F0DDCF1AF019C0D9FF8E
:1020AA001AC0DAFF1850DF1698EF10F01450D96EE4
:1020BA00DA6ADF30E832E832070B166E010E176E65
:1020CA00162A6AEF10F0D8901736162E68EF10F01D
:1020DA001450D96EDA6ADF50070B020DF350AD0FB8
:1020EA00D96EDA6ADECF18F0DDCF19F018C0D9FF41
:1020FA0019C0DAFF1750DF1298EF10F01550166E5C
:10210A00176A1750000AD8B48DEF10F02CEF10F0B0
:10211A001650000AD8B430EF10F0010AD8B45BEFB9
:10212A0010F02CEF10F01B501200010E086E015037
:10213A00D8B4A2EF10F0A4EF10F0B4EF10F00150F1
:10214A00D96EDA6ADF30E832E832070B036E070E1F
:10215A000364B2EF10F0B4EF10F00BEF11F0000EC1
:10216A00086E20EF11F00150D96EDA6ADF30E832DA
:10217A00E832070B036E010E046E032AC7EF10F054
:10218A00D8900436032EC5EF10F00450FF0A056EEE
:10219A000150D96EDA6ADF50070B020DF350AD0F0A
:1021AA00D96EDA6ADECF06F0DDCF07F006C0D9FFB6
:1021BA0007C0DAFF0550DF1620EF11F00150D96E83
:1021CA00DA6ADF30E832E832070B036E010E046E7A
:1021DA00032AF2EF10F0D8900436032EF0EF10F035
:1021EA000150D96EDA6ADF50070B020DF350AD0FBA
:1021FA00D96EDA6ADECF05F0DDCF06F005C0D9FF69
:10220A0006C0DAFF0450DF1220EF11F00250036E0D
:10221A00046A0450000AD8B415EF11F0B4EF10F0B4
:10222A000350000AD8B4B8EF10F0010AD8B4E3EFAB
:10223A0010F0B4EF10F008501200163417341D6E67
:10224A001D50D8A42BEF11F02DEF11F037EF11F03C
:10225A00000E146E000E156E000E166E000E176E2E
:10226A00A4EF11F014C018F015C019F016C01AF036
:10227A0017C01BF0200E47EF11F0D8901B321A320C
:10228A0019321832E82E42EF11F018501C6E168ED1
:10229A00FF0E1416FF0E1516FF0E1616000E171651
:1022AA00960E1D5E1DBE5EEF11F05CEF11F074EF2D
:1022BA0011F01D50800A970FD8B066EF11F068EF41
:1022CA0011F06AEF11F02DEF11F0D8901732163293
:1022DA00153214321D3E6AEF11F08CEF11F01F0E09
:1022EA001D647AEF11F07CEF11F084EF11F02DEFFD
:1022FA0011F0D89014361536163617361D061D50AD
:10230A00D8A48AEF11F08CEF11F07EEF11F01C5077
:10231A00D8B492EF11F094EF11F09CEF11F0171E60
:10232A00161E151E146C000E15221622172214C032
:10233A0014F015C015F016C016F017C017F01200E9
:10234A001450D8A4ABEF11F0ADEF11F0AFEF11F0CC
:10235A0011EF12F01450D96EDA6A080ED926DFA0EE
:10236A00B9EF11F0BBEF11F0E8EF11F0AB881450A0
:10237A00D96EDA6A080ED926DFA2C6EF11F0C8EFC5
:10238A0011F0F5EF11F09D8AF28EF28C1450D96E8D
:10239A00DA6A0E0ED926DECF39F0DDCF3AF01450C4
:1023AA00D96EDA6A100ED926DECF77F0DDCF78F053
:1023BA001450D96EDA6A120ED926DECF75F0DDCF47
:1023CA0076F0F5EF11F01450D96EDA6A080ED926B4
:1023DA00DFB2F2EF11F0F4EF11F0F5EF11F09D9A80
:1023EA001450D96EDA6A080ED926DFA4FFEF11F06D
:1023FA0001EF12F004EF12F0AB8C11EF12F014504F
:10240A00D96EDA6A080ED926DFB40EEF12F010EF91
:10241A0012F011EF12F0AB9C12001450D8A418EF6E
:10242A0012F01AEF12F01CEF12F06CEF12F01450C7
:10243A00D96EDA6A050ED926DFA026EF12F028EF48
:10244A0012F043EF12F0AC8A1450D96EDA6A050E14
:10245A00D926DFA233EF12F035EF12F050EF12F067
:10246A009D88F28EF28C1450D96EDA6A0C0ED92637
:10247A00DECF79F0DDCF7AF050EF12F01450D96E3A
:10248A00DA6A050ED926DFB24DEF12F04FEF12F0DD
:10249A0050EF12F09D981450D96EDA6A050ED926BB
:1024AA00DFA45AEF12F05CEF12F05FEF12F0AC808B
:1024BA006CEF12F01450D96EDA6A050ED926DFB421
:1024CA0069EF12F06BEF12F06CEF12F0AC901200A1
:1024DA00C10E016E490E026ECEEC13F04A6E610E09
:1024EA004918D8A47BEF12F07DEF12F093EF12F0A7
:1024FA004B0E096EB3EC12F0C10E016E630E026E42
:10250A00EAEC13F04A6E030E0D6E8A0E0C6E560E2E
:10251A00E82EFED70C2EFCD70D2EFAD7620E4918DC
:10252A00D8A49AEF12F09CEF12F0B2EF12F04B0E11
:10253A00096EE8EC12F0C10E016E640E026EEAEC4E
:10254A0013F04A6E030E0D6E8A0E0C6E560EE82EAE
:10255A00FED70C2EFCD70D2EFAD712000950D8A49C
:10256A00B9EF12F0BBEF12F0BDEF12F0E7EF12F085
:10257A0047C00BF00950D96EDA6ADF500F0B0A6EAA
:10258A000B500A18F80B0A180B6E0950D96EDA6A42
:10259A00DF38070B0A6E0A460A460A460B500A1823
:1025AA00C70B0A180B6E0B9C0950D96EDA6ADFAE9C
:1025BA0002D00B8E01D00B9E0B0E016E010E026E25
:1025CA009AEC10F012000950D8A4EEEF12F0F0EFD6
:1025DA0012F0F2EF12F01CEF13F046C00BF00950A4
:1025EA00D96EDA6ADF500F0B0A6E0B500A18F80B15
:1025FA000A180B6E0950D96EDA6ADF38070B0A6EB1
:10260A000A460A460A460B500A18C70B0A180B6EE6
:10261A000B9C0950D96EDA6ADFAE02D00B8E01D05C
:10262A000B9E0B0E016E000E026E9AEC10F0120059
:10263A001F50D8A423EF13F025EF13F027EF13F060
:10264A004FEF13F048C021F01F50D96EDA6ADF50FD
:10265A000F0B206E21502018F80B2018216E1F50E6
:10266A00D96EDA6ADF38070B206E204620462046EC
:10267A0021502018C70B2018216E219C1F50D96E9B
:10268A00DA6ADFAE02D0218E01D0219E210E1C6EA5
:10269A0050EC13F01200010E1E6E1C50D8B458EF05
:1026AA0013F05AEF13F06AEF13F01C50D96EDA6A7E
:1026BA00DF30E832E832070B1D6E070E1D6468EF43
:1026CA0013F06AEF13F06EEF13F0000E1E6E7DEF3B
:1026DA0013F01CC014F089EC0FF01CC014F01C504D
:1026EA00D96EDA6A000EDFBE010E156E12EC10F01A
:1026FA001E501200080EF66E280EF76E000EF86EC7
:10270A0000EEA3F010EE32F00900F5CFEEFFE5502F
:10271A00E150FAE1D00EF66E280EF76E000EF86E52
:10272A000900F5CF4AF00900F5CF4BF000EE60F052
:10273A00430EEE6AE806FDE100EE39F0110EEE6A8C
:10274A00E806FDE14C904C92000142EF14F00001C2
:10275A00F251D8A4B3EF13F0B5EF13F0B9EF13F0B9
:10276A00000EF36FCCEF13F0AB9E948E948CF2C0F4
:10277A0036F00DEC08F0F2C014F012EC12F0F2C0D0
:10278A0014F0A5EC11F0AB8E010E0001F36FF351BA
:10279A0012000150D8A4D4EF13F0D6EF13F0DAEFF9
:1027AA0013F0000E036EE8EF13F09EAADFEF13F0AA
:1027BA00E1EF13F0D6EF13F00250D96EDA6AAECF1A
:1027CA00DFFF010E036E035012000150D8A4F0EF90
:1027DA0013F0F2EF13F0F6EF13F0000E036E02EFB0
:1027EA0014F0ACA2FBEF13F0FDEF13F0F6EF13F0C9
:1027FA0002C0ADFF9D88010E036E03501200800FC8
:10280A00810F820F830F840F890F8A0F8B0F8C0F12
:10281A008D0F920F930F940F950F960F802500003E
:10282A0000030000030000000000DA24000000009A
:10283A0039503A10D8B424EF14F026EF14F034EFDC
:10284A0014F002D832EF14F00500FA6E3950FD6E1A
:10285A003A50FE6EFF6AFA50120034EF14F012007A
:10286A00016EF2900104D8A43DEF14F03FEF14F08A
:10287A0041EF14F041EF14F0120053EC14F0C10EC2
:10288A000001F26FACEC13F04A6E4AEF14F0FFEF5E
:10289A0000F04B0E1F6E1DEC13F012004EEC14F0FC
:1028AA001200A19212009E9212009E901200F294BF
:1028BA001200F29212009D981200A19012009E94AA
:0828CA0012009E9C12000102A5
:020000040030CA
:0E000000FF02191FFF8181FF0FC00FE00F40AC
:00000001FF
