:040000000FEF01F00D
:100008005C82FACF02F0FBCF03F0F2A80EEF00F00B
:1000180010EF00F019EF00F0F2A215EF00F017EF63
:1000280000F019EF00F048EC11F0F2A61EEF00F016
:1000380020EF00F03AEF00F0F2A025EF00F027EFF4
:1000480000F03AEF00F07DA82CEF00F02EEF00F062
:100058003AEF00F081A833EF00F035EF00F03AEF07
:1000680000F0010E21EC11F059EF00F0F2A63FEF7D
:1000780000F041EF00F059EF00F0F2A046EF00F079
:1000880048EF00F059EF00F07DA84DEF00F04FEF7A
:1000980000F059EF00F081B854EF00F056EF00F08F
:1000A80059EF00F0000E21EC11F09DAC5EEF00F06E
:1000B80060EF00F069EF00F09EAC65EF00F067EFCD
:1000C80000F069EF00F050EC11F0F2AA6EEF00F0CA
:1000D80070EF00F079EF00F0F2A475EF00F077EF21
:1000E80000F079EF00F044EC11F09DA07EEF00F0F5
:1000F80080EF00F089EF00F09EA085EF00F087EF19
:1001080000F089EF00F042EC11F09DA28EEF00F0B4
:1001180090EF00F099EF00F09EA295EF00F097EFB6
:1001280000F099EF00F040EC11F0A0A29EEF00F073
:10013800A0EF00F0A9EF00F0A1A2A5EF00F0A7EF53
:1001480000F0A9EF00F03EEC11F09DA4AEEF00F036
:10015800B0EF00F0B9EF00F09EA4B5EF00F0B7EFF4
:1001680000F0B9EF00F04EEC11F0A0A0BEEF00F0E7
:10017800C0EF00F0C9EF00F0A1A0C5EF00F0C7EF95
:1001880000F0C9EF00F04CEC11F09DA8CEEF00F0A4
:10019800D0EF00F0D9EF00F09EA8D5EF00F0D7EF30
:1001A80000F0D9EF00F04AEC11F09DAADEEF00F064
:1001B800E0EF00F0E9EF00F09EAAE5EF00F0E7EFCE
:1001C80000F0E9EF00F053EC11F09DA6EEEF00F01F
:1001D800F0EF00F0F9EF00F09EA6F5EF00F0F7EF72
:1001E80000F0F9EF00F0FDEC10F0A0A6FEEF00F033
:1001F80000EF01F009EF01F0A1A605EF01F007EF0C
:1002080001F009EF01F046EC11F003C0FBFF02C05A
:0A021800FAFF5C92110057EF10F09E
:10100000003738392F3435362A3132332D23303DED
:091010002B256C7500257500000C
:10101A002E50800B376E2E502E24396E2DAE18EFBF
:10102A0008F01AEF08F01BEF08F039803950D8B4ED
:10103A0021EF08F023EF08F038EF08F03928D8A498
:10104A0029EF08F02BEF08F033EF08F0000E2B6EB3
:10105A00000E2C6E000E2D6E000E2E6E2D8E000EC2
:10106A002E6E40EF08F0000E2B6E000E2C6E000E56
:10107A002D6E000E2E6E3250800B386E3750381897
:10108A00D8B44AEF08F04CEF08F04DEF08F0378C6F
:10109A0032503224386E31AE55EF08F057EF08F06F
:1010AA0058EF08F038803850D8B45EEF08F060EF97
:1010BA0008F075EF08F03828D8A466EF08F068EF52
:1010CA0008F070EF08F0000E2F6E000E306E000E62
:1010DA00316E000E326E318E000E326E7DEF08F0E8
:1010EA00000E2F6E000E306E000E316E000E326E44
:1010FA003950385CD8B084EF08F086EF08F0ADEFCD
:10110A0008F037AC8BEF08F08DEF08F08FEF08F09E
:10111A00800E371A39C03AF038C039F03AC038F080
:10112A002BC03AF02FC02BF03AC02FF02CC03AF067
:10113A0030C02CF03AC030F02DC03AF031C02DF05A
:10114A003AC031F02EC03AF032C02EF03AC032F036
:10115A00000E3A6E395038C033F0346A335E000EEE
:10116A00345A34BEC2EF08F0345009E11A0E335C27
:10117A00D8A0C2EF08F0C4EF08F0FBEF08F02B503C
:10118A002C102D102E10D8A4CDEF08F0D0EF08F0B7
:10119A00010ED1EF08F0000E3A6E000E2B6E000E13
:1011AA002C6E000E2D6E000E2E6E38C039F004EF34
:1011BA0009F03AA0E3EF08F0E5EF08F0EBEF08F0EA
:1011CA00D8903A3001093A6EEDEF08F0D8903A32E9
:1011DA002BA0F2EF08F0F4EF08F0F5EF08F03A8EE2
:1011EA002E342E322D322C322B32392A3850395C99
:1011FA00D8A002EF09F004EF09F0DEEF08F037BCDF
:10120A0009EF09F00BEF09F04BEF09F03950D8A4B8
:10121A0011EF09F013EF09F01DEF09F0000E2B6E24
:10122A00000E2C6E000E2D6E000E2E6E6CEF0AF064
:10123A002F502B2630502C2231502D2232502E2264
:10124A002EA02AEF09F02CEF09F0D8EF09F03AA006
:10125A0031EF09F033EF09F039EF09F0D8903A305D
:10126A0001093A6E3BEF09F0D8903A322BA040EFD1
:10127A0009F042EF09F043EF09F03A8E2E342E328C
:10128A002D322C322B32392AD8EF09F02F502B5C11
:10129A0030502C5831502D582E50800A336E32500F
:1012AA00800A3358D8B05CEF09F05EEF09F089EF95
:1012BA0009F02B502F5C336E2C503058346E2D5061
:1012CA003158356E2E503258366EFF0E33242B6E3F
:1012DA00FF0E34202C6EFF0E35202D6EFF0E3620A9
:1012EA002E6E800E371A3A6C3A50D8A47FEF09F066
:1012FA0081EF09F091EF09F0010E2B26000E2C2246
:10130A002D222E2291EF09F02F502B5E30502C5AAD
:10131A0031502D5A32502E5A2B502C102D102E107F
:10132A00D8A49AEF09F09CEF09F0D1EF09F03A50EE
:10133A00D8A4A2EF09F0A4EF09F0D1EF09F0000E4A
:10134A002B6E000E2C6E000E2D6E000E2E6E6CEFA4
:10135A000AF0D8902B362C362D362E363AAEB8EF08
:10136A0009F0BAEF09F0BBEF09F02B803AA0C0EF01
:10137A0009F0C2EF09F0C6EF09F0D8803A36C8EF93
:10138A0009F0D8903A363950D8B4CEEF09F0D0EFF8
:10139A0009F0D1EF09F039062DAED6EF09F0D8EFF2
:1013AA0009F0AEEF09F0000E386E3AAEDFEF09F041
:1013BA00E1EF09F0F9EF09F03AC033F07F0E331686
:1013CA00D8B4EAEF09F0ECEF09F0F0EF09F0010EFA
:1013DA00386EF9EF09F02BA0F5EF09F0F7EF09F0F5
:1013EA00F9EF09F0ECEF09F03850D8B4FFEF09F043
:1013FA0001EF0AF02CEF0AF0010E2B26000E2C2228
:10140A002D222E222EA00CEF0AF00EEF0AF02CEF5E
:10141A000AF02BC033F02CC034F02DC035F02EC0AA
:10142A0036F03634363235323432333233C02BF07A
:10143A0034C02CF035C02DF036C02EF03928D8B47F
:10144A0029EF0AF02BEF0AF02CEF0AF0392A392893
:10145A00D8B432EF0AF034EF0AF03CEF0AF0395010
:10146A00D8A43AEF0AF03CEF0AF04EEF0AF0000E69
:10147A002B6E000E2C6E000E2D6E000E2E6E395045
:10148A00D8A44AEF0AF04CEF0AF04EEF0AF0000E29
:10149A00376E39A053EF0AF055EF0AF058EF0AF009
:1014AA002D8E59EF0AF02D9ED89039302E6E37AE18
:1014BA0061EF0AF063EF0AF064EF0AF02E8E2BC098
:1014CA002BF02CC02CF02DC02DF02EC02EF01200C7
:1014DA001550800B226E15501524296E14AE78EF24
:1014EA000AF07AEF0AF07BEF0AF029802950D8B483
:1014FA0081EF0AF083EF0AF098EF0AF02928D8A4BE
:10150A0089EF0AF08BEF0AF093EF0AF0000E126EE1
:10151A00000E136E000E146E000E156E148E000E61
:10152A00156EA0EF0AF0000E126E000E136E000E7A
:10153A00146E000E156E1950800B221A19501924B8
:10154A002A6E18AEABEF0AF0ADEF0AF0AEEF0AF072
:10155A002A802A50D8B4B4EF0AF0B6EF0AF0CBEFDB
:10156A000AF02A28D8A4BCEF0AF0BEEF0AF0C6EFA8
:10157A000AF0000E166E000E176E000E186E000EA0
:10158A00196E188E000E196ED3EF0AF0000E166E41
:10159A00000E176E000E186E000E196E16501710F8
:1015AA0018101910D8A4DCEF0AF0DEEF0AF0F6EFF3
:1015BA000AF0000E126E000E136E000E146E000E6C
:1015CA00156E800E14127F0E15122250151212C0BB
:1015DA0012F013C013F014C014F015C015F039EF4F
:1015EA000CF02950D8A4FCEF0AF0FEEF0AF008EF3D
:1015FA000BF0000E126E000E136E000E146E000E2B
:10160A00156E39EF0CF02A5029C01AF01B6A1A5EBF
:10161A00000E1B5A7F0E1A24236E000E1B20246E06
:10162A0012C01EF013C01FF014C020F015C021F024
:10163A00000E126E000E136E000E146E000E156E62
:10164A00000E256E000E266E000E276E000E286E06
:10165A00000E2A6E69EF0BF02A50D8B437EF0BF060
:10166A0039EF0BF050EF0BF0D8901E361F362036AC
:10167A002136D890123613361436153628AE48EF6E
:10168A000BF04AEF0BF04BEF0BF01280D890253697
:10169A0026362736283616501E5C17501F58185003
:1016AA00205819502158D8A05DEF0BF05FEF0BF0CE
:1016BA0068EF0BF0288C16501E5E17501F5A1850F0
:1016CA00205A1950215A2A2A190E2A646FEF0BF050
:1016DA0071EF0BF031EF0BF01E501F10201021108C
:1016EA00D8B47AEF0BF07CEF0BF094EF0BF0258077
:1016FA0094EF0BF0D890123613361436153628AEFE
:10170A0089EF0BF08BEF0BF08CEF0BF01280D89077
:10171A0025362636273628362306D8A0240614AEC0
:10172A0099EF0BF09BEF0BF07FEF0BF0000E2A6E98
:10173A0028AEA2EF0BF0A4EF0BF0C8EF0BF0FF0EF0
:10174A0025141A6EFF0E26141B6EFF0E27141C6E2C
:10175A007F0E28141D6E1A501B101C101D10D8B4B1
:10176A00B9EF0BF0BBEF0BF0BFEF0BF0010E2A6ED7
:10177A00C8EF0BF012A0C4EF0BF0C6EF0BF0C8EFE6
:10178A000BF0BBEF0BF02A50D8B4CEEF0BF0D0EF32
:10179A000BF0F4EF0BF0010E1226000E13221422A6
:1017AA00152215A0DBEF0BF0DDEF0BF0F4EF0BF0D9
:1017BA0012C01AF013C01BF014C01CF015C01DF0A3
:1017CA001D341D321C321B321A321AC012F01BC0D1
:1017DA0013F01CC014F01DC015F0234A242A24BE9D
:1017EA00FFEF0BF0245008E12328D8A0FFEF0BF0FD
:1017FA0001EF0CF00CEF0CF0000E246E2368000EC3
:10180A00126E000E136E000E146E000E156E24BEBC
:10181A0019EF0CF0245006E12304D8B017EF0CF0AE
:10182A0019EF0CF027EF0CF0000E246E000E236E59
:10183A00000E126E000E136E000E146E000E156E60
:10184A00000E226E23C029F029A02EEF0CF030EFF3
:10185A000CF033EF0CF0148E34EF0CF0149ED89089
:10186A002930156EEAEF0AF012000C6E0C50D8B44B
:10187A0041EF0CF043EF0CF065EF0CF007BE4AEFB6
:10188A000CF048EF0CF065EF0CF004C008F005C04E
:10189A0009F006C00AF007C00BF0081E091E0A1E4E
:1018AA000B1E082A000E09220A220B2208C00EF07B
:1018BA0009C00FF00AC010F00BC011F06DEF0CF068
:1018CA0004C00EF005C00FF006C010F007C011F0FA
:1018DA000450051006100710D8A476EF0CF078EF24
:1018EA000CF082EF0CF0000E046E000E056E000E76
:1018FA00066E000E076E13EF0DF0960E0D6E8CEF4E
:10190A000CF00D2AD890113210320F320E32000E1E
:10191A000E14086E000E0F14096E000E10140A6ED3
:10192A00FE0E11140B6E085009100A100B10D8A4E1
:10193A00A1EF0CF0A3EF0CF086EF0CF0B1EF0CF076
:10194A000D2A010E0E26000E0F2210221122D89007
:10195A00113210320F320E32000E0E14086E000EC3
:10196A000F14096E000E10140A6EFF0E11140B6E7E
:10197A00085009100A100B10D8A4C6EF0CF0C8EFD3
:10198A000CF0A5EF0CF0D0EF0CF00D06D8900E3647
:10199A000F361036113610BED5EF0CF0D7EF0CF01B
:1019AA00DFEF0CF0020E0D60DDEF0CF0DFEF0CF054
:1019BA00CAEF0CF00DB0E4EF0CF0E6EF0CF0E7EF35
:1019CA000CF0109ED8900D320DC008F0096A0A6A10
:1019DA000B6A08C00BF00A6A096A086A08500E12F4
:1019EA0009500F120A5010120B5011120C50D8B491
:1019FA0001EF0DF003EF0DF00BEF0DF007BE0AEF4C
:101A0A000DF008EF0DF00BEF0DF0118E0EC004F083
:101A1A000FC005F010C006F011C007F01200000157
:101A2A00D551D8A41BEF0DF01DEF0DF01FEF0DF0EF
:101A3A00ABEF0DF0C69AD551D96EDA6A040ED926E3
:101A4A00DE04D8A42BEF0DF02DEF0DF033EF0DF0DF
:101A5A00D5C045F040EC0FF05CEF0DF0D551D96ED2
:101A6A00DA6A040ED926DF50D8A43EEF0DF040EF13
:101A7A000DF05CEF0DF0D551D96EDA6A060ED92653
:101A8A00DFA44AEF0DF04CEF0DF04FEF0DF0C58ECD
:101A9A005CEF0DF0D551D96EDA6A060ED926DFB49D
:101AAA0059EF0DF05BEF0DF05CEF0DF0C59EC69E91
:101ABA00C69CC6880001D551D96EDA6A070ED926A6
:101ACA00DF50C86ED5C004F014EC11F03BEC11F0F5
:101ADA000001D551D96EDA6A060ED926DFB078EF41
:101AEA000DF07AEF0DF07DEF0DF0C79E8AEF0DF045
:101AFA00D551D96EDA6A060ED926DFA087EF0DF026
:101B0A0089EF0DF08AEF0DF0C78ED551D96EDA6ADA
:101B1A00060ED926DFA294EF0DF096EF0DF099EF9D
:101B2A000DF0C78CA6EF0DF0D551D96EDA6A060E04
:101B3A00D926DFB2A3EF0DF0A5EF0DF0A6EF0DF059
:101B4A00C79CD5C004F0A6EC10F0C68A1200010E9C
:101B5A000A6E0450D8B4B4EF0DF0B6EF0DF0C6EF2C
:101B6A000DF00450D96EDA6ADF30E832E832070B3A
:101B7A00056E070E0564C4EF0DF0C6EF0DF01DEFFC
:101B8A000EF0000E0A6E33EF0EF00450D96EDA6AC8
:101B9A00DF30E832E832070B056E010E066E052AC1
:101BAA00D9EF0DF0D8900636052ED7EF0DF0065076
:101BBA00FF0A076E0450D96EDA6ADF50070B020D6E
:101BCA00F350BB0FD96EDA6ADECF08F0DDCF09F029
:101BDA0008C0D9FF09C0DAFF0750DF1633EF0EF04D
:101BEA000450D96EDA6ADF30E832E832070B056E44
:101BFA00010E066E052A04EF0EF0D8900636052E61
:101C0A0002EF0EF00450D96EDA6ADF50070B020DAC
:101C1A00F350BB0FD96EDA6ADECF07F0DDCF08F0DA
:101C2A0007C0D9FF08C0DAFF0650DF1233EF0EF003
:101C3A000450D96EDA6ADFBC25EF0EF028EF0EF0F9
:101C4A00010E29EF0EF0000E000AD8B4CAEF0DF00B
:101C5A00010AD8B4F5EF0DF0C6EF0DF00A501200E4
:101C6A00010E0B6E0450D8B43DEF0EF03FEF0EF0AC
:101C7A004FEF0EF00450D96EDA6ADF30E832E832FC
:101C8A00070B066E070E06644DEF0EF04FEF0EF0CF
:101C9A00A6EF0EF0000E0B6EBBEF0EF00450D96EDD
:101CAA00DA6ADF30E832E832070B066E010E076E99
:101CBA00062A62EF0EF0D8900736062E60EF0EF075
:101CCA000750FF0A086E0450D96EDA6ADF50070B14
:101CDA00020DF350B10FD96EDA6ADECF09F0DDCF0B
:101CEA000AF009C0D9FF0AC0DAFF0850DF16BBEFB5
:101CFA000EF00450D96EDA6ADF30E832E832070BA8
:101D0A00066E010E076E062A8DEF0EF0D890073682
:101D1A00062E8BEF0EF00450D96EDA6ADF50070BED
:101D2A00020DF350B10FD96EDA6ADECF08F0DDCFBB
:101D3A0009F008C0D9FF09C0DAFF0750DF12BBEF6C
:101D4A000EF00550066E076A0750000AD8B4B0EFC5
:101D5A000EF04FEF0EF00650000AD8B453EF0EF013
:101D6A00010AD8B47EEF0EF04FEF0EF00B501200BE
:101D7A003D343E34446E4450D8A4C6EF0EF0C8EF4A
:101D8A000EF0D2EF0EF0000E3B6E000E3C6E000E0F
:101D9A003D6E000E3E6E3FEF0FF03BC03FF03CC081
:101DAA0040F03DC041F03EC042F0200EE2EF0EF09E
:101DBA00D8904232413240323F32E82EDDEF0EF007
:101DCA003F50436E3D8EFF0E3B16FF0E3C16FF0E34
:101DDA003D16000E3E16960E445E44BEF9EF0EF016
:101DEA00F7EF0EF00FEF0FF04450800A970FD8B0BC
:101DFA0001EF0FF003EF0FF005EF0FF0C8EF0EF051
:101E0A00D8903E323D323C323B32443E05EF0FF031
:101E1A0027EF0FF01F0E446415EF0FF017EF0FF0C6
:101E2A001FEF0FF0C8EF0EF0D8903B363C363D3628
:101E3A003E3644064450D8A425EF0FF027EF0FF0A2
:101E4A0019EF0FF04350D8B42DEF0FF02FEF0FF02A
:101E5A0037EF0FF03E1E3D1E3C1E3B6C000E3C222F
:101E6A003D223E223BC03BF03CC03CF03DC03DF031
:101E7A003EC03EF012004550D96EDA6A050ED926E8
:101E8A00DF50466EC6504618F00B4618C66E000E56
:101E9A002F6E000E306E800E316EBF0E326E4550C0
:101EAA00D96EDA6ADECF04F0DECF05F0DECF06F0B7
:101EBA00DECF07F0000E3AEC0CF004C016F005C0B5
:101ECA0017F006C018F007C019F0000E126E240EA3
:101EDA00136EF40E146E490E156E6DEC0AF012C0F4
:101EEA002BF013C02CF014C02DF015C02EF00DEC01
:101EFA0008F02BC03BF02CC03CF02DC03DF02EC0AA
:101F0A003EF0BDEC0EF03B50C86E12000C50D8A447
:101F1A0091EF0FF093EF0FF095EF0FF0BFEF0FF087
:101F2A0058C00EF00C50D96EDA6ADF500F0B0D6EE6
:101F3A000E500D18F80B0D180E6E0C50D96EDA6A89
:101F4A00DF38070B0D6E0D460D460D460E500D1867
:101F5A00C70B0D180E6E0E9C0C50D96EDA6ADFAEE6
:101F6A0002D00E8E01D00E9E0E0E046E010E056E6C
:101F7A0035EC0EF012000C50D8A4C6EF0FF0C8EFE3
:101F8A000FF0CAEF0FF0F4EF0FF057C00EF00C503D
:101F9A00D96EDA6ADF500F0B0D6E0E500D18F80B62
:101FAA000D180E6E0C50D96EDA6ADF38070B0D6EFB
:101FBA000D460D460D460E500D18C70B0D180E6E28
:101FCA000E9C0C50D96EDA6ADFAE02D00E8E01D0AA
:101FDA000E9E0E0E046E000E056E35EC0EF012000B
:101FEA000F50D8A4FBEF0FF0FDEF0FF0FFEF0FF04B
:101FFA0027EF10F059C011F00F50D96EDA6ADF508E
:10200A000F0B106E11501018F80B1018116E0F509C
:10201A00D96EDA6ADF38070B106E10461046104682
:10202A0011501018C70B1018116E119C0F50D96E51
:10203A00DA6ADFAE02D0118E01D0119E110E0C6E3B
:10204A0028EC10F01200010E0E6E0C50D8B430EFCE
:10205A0010F032EF10F042EF10F00C50D96EDA6A3D
:10206A00DF30E832E832070B0D6E070E0D6440EFE1
:10207A0010F042EF10F046EF10F0000E0E6E55EF22
:10208A0010F00CC004F0ACEC0DF00CC004F00C50D5
:10209A00D96EDA6A000EDFBE010E056E35EC0EF05F
:1020AA000E501200CC0EF66E210EF76E000EF86E70
:1020BA0000EEA7F010EE2EF00900F5CFEEFFE55086
:1020CA00E150FAE1A40EF66E220EF76E000EF86EDB
:1020DA000900F5CF5AF00900F5CF5BF000EE60F089
:1020EA00470EEE6AE806FDE100EE47F0130EEE6ACF
:1020FA00E806FDE15C905C92000184EF10F02EECA2
:10210A0011F0620E5118D8A48DEF10F08FEF10F075
:10211A0095EF10F05B0E0C6E8BEC0FF086EF10F063
:10212A00640E5118D8A49CEF10F09EEF10F086EFC1
:10213A0010F05B0E0C6EC0EC0FF086EF10F00FEF94
:10214A0001F09D869E96A086A196F28EF28C04508E
:10215A00D96EDA6A0C0ED926DECF47F0DDCF48F009
:10216A000450D96EDA6A0A0ED926DECF77F0DDCFAF
:10217A0078F00450D96EDA6A0E0ED926DECF75F0E1
:10218A00DDCF76F01200C698C7B4CEEF10F0D0EFCC
:10219A0010F0E3EF10F0C7BAD5EF10F0D7EF10F058
:1021AA00E3EF10F0C950C7A0DDEF10F0DFEF10F039
:1021BA00D8EF10F0C9CF51F0E4EF10F0C750C6883D
:1021CA001200800F810F820F830F840F890F8A0FED
:1021DA008B0F8C0F8D0F920F930F940F950F960FF5
:1021EA00A0860100000601620000000090210000A4
:1021FA009E9647504810D8B405EF11F007EF11F03A
:10220A0013EF11F002D813EF11F00500FA6E4750E0
:10221A00FD6E4850FE6EFF6AFA501200120004501A
:10222A00D96EDA6A050ED926DF50056EC650051832
:10223A00F00B0518C66E1200016EF2900104D8A4C4
:10224A0029EF11F02BEF11F02DEF11F02DEF11F016
:10225A00120036EC11F0C50E0001D56F14EC0DF02A
:10226A0012005B0E0F6EF5EC0FF012009486948844
:10227A001200A19212009E9212009E901200F294F5
:10228A001200A1961200F29212009D981200A190DB
:0E229A0012009E9412009E9C1200010312007E
:020000040030CA
:0E000000FF02191FFF8181FF0FC00FE00F40AC
:00000001FF
